:020000040800F2
:10000000182C00205503000839740008E549000841
:1000100035740008511800083D7E000800000000FB
:10002000000000000000000000000000017D00084A
:100030008519000800000000157B0008597D0008A4
:100040006F0300086F0300086F0300086F030008C8
:100050006F0300086F0300086F0300086F030008B8
:100060006F0300086F0300086F03000855180008AD
:100070006F0300086F0300086F0300086F03000898
:100080006F030008000000006F0300086F03000802
:100090006F0300086F0300086F0300086F03000878
:1000A0006F0300086F0300086F0300086F03000868
:1000B000ED7D00086F0300086F0300086F03000860
:1000C0006F0300086F0300086F0300086F03000848
:1000D0006F0300086F0300086F0300086F03000838
:1000E0006F0300086F0300086F0300086F03000828
:1000F0006F0300086F0300086F0300080000000092
:10010000000000006F030008000000006F030008FB
:100110006F030008000000006F0300086F03000871
:100120006F0300086F0300086F0300086F030008E7
:100130006F03000800000000000000006F030008CB
:100140006F0300086F0300080000000000000000BB
:10015000000000000000000000000000000000009F
:100160000000000000000000000000006F03000815
:100170006F03000800000000000000000000000005
:10018000000000006F0300080000000000000000F5
:10019000000000000000000000000000000000005F
:1001A00000000000000000006F0300086F0300085B
:1001B0006F0300086F0300086F03000800000000D1
:1001C000000000006F0300080000000000000000B5
:1001D0006F0300086F03000800F002F800F0AAF8AF
:1001E00014A696E8000CB244B344DA4501D100F0FD
:1001F000A1F8BAE80F000FA696E83000A5EB0405B9
:1002000004EB0607AAEB0704A7F101074FEA15154F
:100210004FEA3414A4F10104AC4201D300F08AF88F
:1002200013F0010F18BFFB1A43F0010300F001F8AF
:10023000DBE71847A4D10000C4D10000103A24BF66
:1002400078C878C1FAD8520724BF30C830C144BF3B
:1002500004680C6070470000704700000023002411
:1002600000250026103A28BF78C1FBD8520728BFC6
:1002700030C148BF0B6070476E2900F0AB81702918
:1002800000F0EF82662909F0F485652909F0F1850F
:10029000672909F0EE85612909F0ED8503681B0ADD
:1002A00028BF41F08001692900F05881642900F0DD
:1002B0005581752900F052816F2900F07D827829DF
:1002C00000F0BB82E92900F01782E42900F01482D3
:1002D000F52900F01182EF2900F07A82F82900F068
:1002E000BA820368DB0928BF41F08001632900F06E
:1002F000BB87732900F0C087E32900F0CB87F3297F
:1003000000F0D087002070471FB509F0A5FD01F06F
:100310001FF804000020002109F088FD401C6060E7
:100320000020002109F06CFDE06000F09FF81FBD87
:1003300010B510BD00F0DEFF1146FFF7E5FF09F034
:1003400025F801F0BBF803B4FFF7F2FF03BC01F09E
:1003500003F900000948804709480047FEE7FEE727
:10036000FEE7FEE7FEE7FEE7FEE7FEE7FEE7FEE765
:1003700004480549054A064B70470000D97D00082E
:10038000D901000818220020182C00201824002071
:10039000182400200FB41CB50C0007AA009007D049
:1003A0004142A14202D32044401E01E04FF0FF3001
:1003B000074B7B4469460190069800F024F9002120
:1003C000002C01D0009A11701CBC5DF814FB0000D9
:1003D000770200004FF000020429C0F0128010F0F4
:1003E000030C00F01B80CCF1040CBCF1020F18BF11
:1003F00000F8012BA8BF20F8022BA1EB0C0100F0A4
:100400000DB85FEAC17C24BF00F8012B00F8012B76
:1004100048BF00F8012B70474FF0000200B51346AB
:1004200094469646203922BFA0E80C50A0E80C5014
:10043000B1F12001BFF4F7AF090728BFA0E80C50C5
:1004400048BF0CC05DF804EB890028BF40F8042BBE
:1004500008BF704748BF20F8022B11F0804F18BF2B
:1004600000F8012B704770477047704708487CB50B
:100470007844009007487844009C0546019004E0C9
:100480002046016808448047241DAC42F8D17CBD59
:10049000B0D00000AED0000070B504468569006899
:1004A000C10601D5302600E02026C00707D070BD68
:1004B000D4E9012130469047206A401C20626D1E1D
:1004C000F6D570BD70B5044685690078C00707D1C0
:1004D00070BDD4E9012120209047206A401C206291
:1004E0006D1EF6D570BD09684A0501D540B270474A
:1004F000C905FCD500B2704709684A0501D5C0B2EC
:100500007047C905FCD580B2704770B50C460546EA
:10051000012A05D02878800600D5EA69002302E088
:10052000012305E05B1C934202D2E05C0028F9D174
:10053000A869E618C01AA861286A184428622846E3
:10054000FFF7AAFF04E0D5E9012114F8010B904759
:10055000B442F8D32846FFF7B5FF70BD2DE9F0414E
:100560000646002410687529314616A510D0FFF7FD
:10057000BAFF002802DA404213A507E031688A0773
:1005800001D512A502E0490704D511A5012401E017
:10059000FFF7B2FF00210A2206F1240709E0B0FBB1
:1005A000F2FCB0FBF2F302FB1C003030785418462A
:1005B000491C0028F3D123462A463046BDE8F041C5
:1005C00000F063BA000000002D0000002B000000C6
:1005D0002000000011680268006A530501D5087008
:1005E0000AE0D30501D5088006E0130603D5C2173B
:1005F000C1E9000200E008600120704701694A1C5F
:1006000002610878704700B58FB0CDE90131002153
:10061000059105497944CDE903101146684600F07B
:100620002BF90FB000BD0000E5FFFFFFD1E900236B
:100630009A4202D2531C0B60107070472DE9FF5F85
:1006400015468A460446DFF8AC80F8440027D8E90E
:1006500000103E46CDE9001010E03AF816106A4648
:1006600002A800F023FE411C07D02178890603D59B
:10067000E269391891420DD80744761C207880062B
:1006800002D5E069B84205DDAE42E6DB3AF8160075
:100690000028E2D1A069C01BA0612046FFF7FCFE44
:1006A000D8E90010CDE90010002017E03AF8181042
:1006B0006A4602A800F0FAFDB0F1FF3F81460BD078
:1006C00000250DF1080B05E0D4E901211BF8050018
:1006D00090476D1C4D45F7D308F10100B0428046AC
:1006E000E4DB206A384420622046FFF7EBFEBDE8D9
:1006F000FF9F00002E9800002DE9F0418046D21D9A
:1007000022F007020025D2E90002F52915A614D02F
:10071000011E72F1000106DA0023D0EB030063EB47
:10072000020211A608E0D8F800108B0701D50FA629
:1007300002E0490701D50EA601251146002408F163
:10074000240704E000F05CF930323A55641C50EAAA
:100750000102F7D12B46324621464046BDE8F04122
:1007600000F093B9000000002D0000002B000000F5
:100770002000000030B4002100F1240408E002F061
:100780000705D208303542EA4372DB086554491C3C
:1007900052EA0305F3D10468002310A2250708D507
:1007A00004F020040C4304D0C46901230CA2641E8D
:1007B000C46130BC00F069B910B504462146106828
:1007C000FFF79AFE02462046BDE810400023D1E71D
:1007D000D21D22F00701D1E90023CBE70000000081
:1007E00030000000F0B40D460188090502D5214C07
:1007F0007C4402E01F4C7C440E34002100F12406AE
:1008000008E002F00F071209E75D42EA03721B09D4
:100810007754491C52EA0307F3D1027800231207E8
:1008200004D5702D06D009B1022311342246F0BC44
:1008300000F02BB901231034F8E770B504460D46DB
:1008400021461068FFF758FE024629462046BDE8BB
:1008500070400023C6E7D21D22F00703D3E900232E
:10086000C0E70368126843F0200303600823C361F4
:100870000023B7E7909600002DE9F05F8946044613
:100880004FF0000ADFF874B1FB44C0F820A0204606
:10089000E1688847002874D0252806D0D4E90121D2
:1008A0009047206A401C2062F1E700265F46204600
:1008B000E16888472028054607DB312D05D27819E5
:1008C00010F8200C08B10643F1E7B00701D526F077
:1008D0000406C4F81CA00027C4F818A02A2D09D0CB
:1008E000284609F085FA38B304EB8708303DC8F88C
:1008F000185019E059F8041B204604EB8702916157
:10090000E1688847012F054618D1E069002820DA00
:1009100026F020061DE0D8F8180000EB800005EB5B
:1009200040003038C8F818002046E168884705467E
:1009300009F05EFA0028EED1012F0AD02E2D08D141
:100940002046E16888477F1C0546022F46F02006B6
:10095000C4DBA069002803DA404246F00106A0612A
:10096000F00701D026F010066C2D0BD0682D09D0B1
:100970004C2D39D06A2D35D0742D35D07A2D33D009
:1009800016E038E0E1682F4620468847B842054621
:1009900009D16C2F26D04FF48060E16806432046D1
:1009A0008847054604E06C2F1AD04FF48070064348
:1009B0000DB3A5F14100192802D8203546F4006690
:1009C0004A462946204626604E46FFF755FC80B130
:1009D00001280BD0F61D26F0070000F1080956E7A4
:1009E0004020E4E78020D8E70020D6E706F104099C
:1009F0004DE7284652E7206ABDE8F09F20960000A8
:100A000030B5B0F10A0271F100034FEA900E4EEAE0
:100A1000817EB0EB0E0061EB91014FEA101E4EEAB1
:100A2000017E10EB0E0041EB11114FEA102E4EEA41
:100A3000016E10EB0E0041EB11214FEA104E4EEA11
:100A4000014E10EB0E0041EB1141401841F1000145
:100A50004FEAD00040EA41704FEAD1014FEA8104E9
:100A600044EA907410EB800544EB01046D1944EBEB
:100A70000404521BA3414FF0000348BF0A3200D5C3
:100A800030BD401C41F1000130BD2DE9F0470D465D
:100A900099469246044600F124080168880604D568
:100AA000E06921F01001216000E00120A84201DD91
:100AB000471B00E00027A1697A1902EB0900081A18
:100AC000A0612078C00602D42046FFF7E5FC00268E
:100AD00008E0D4E901211AF806009047206A401C7A
:100AE000761C20624E45F4DB2078C0060AD52046ED
:100AF000FFF7D2FC06E0D4E9012130209047206ABC
:100B0000401C2062381EA7F10107F4DC07E0D4E99D
:100B1000012118F805009047206A401C2062281E19
:100B2000A5F10105F3DC2046FFF7CCFC2078000698
:100B300002D50220BDE8F0870120FBE72DE9FF4F39
:100B40000C461E464FF0FF378BB0D2E90001DDF8AE
:100B500060800A908A46C1F30A5505B93D460021D6
:100B600008464FF00000BAF1000F00F4400005DA2B
:100B700000EB80004FF4400101EA50004FEA905929
:100B8000B9F1010F00DDB9460A9850EA4A000ED0CB
:100B900044F61050A5F2FF3545432F14B8F1000F6D
:100BA0001ED07542291E1EDDC9F100021CE0B8F1FD
:100BB000010F4FF0000001D0302103E0F24305E0C7
:100BC0002154401CB042FBDB30460022002121545E
:100BD0000B99C1F80880C1E900200FB0BDE8F08F83
:100BE000BD1B6D1CDEE74A4600DA694206A800F02C
:100BF000F3FB06AB93E8070003AB83E8070050461E
:100C00000A9908F014FD8DE80700A0F500501F3880
:100C100000900398002D0ADD42F21F014A46084465
:100C2000002303A90390684608F07EFF09E0A0F5C1
:100C300000504A461F38002303A90390684608F075
:100C400088FF8DE807000004000C03D04FF0FF3050
:100C5000410800E01046B8F1000F03D000220092D6
:100C600015461EE0751E05D4FFF7CAFE30326255E8
:100C70006D1EF9D5B3460122084302D000227F1C25
:100C800004E02078302801D100227F1E002A099735
:100C900084D01DE0112D07DAFFF7B2FE3032625525
:100CA0006D1C50EA0102F5D1084302D00098C8B18A
:100CB0000EE00021681E05E0235C625C6354225450
:100CC000401E491C8142F7DBAB46A81B401E099021
:100CD000002004F80B000B98099AC0F80880C0E9BE
:100CE000002B7AE711264FF0000857E72DE9F04F67
:100CF00088460446D21D22F0070191B0D1E90001D7
:100D0000CDE90A0109F05CF802460B98C00F01D04A
:100D10002D2007E02068810701D52B2002E020214B
:100D200001EAC000032A099001D0072A05DB034627
:100D30004146204600F010FB0BE12078800601D5EB
:100D4000E06900E00620B8F1650F814606D0B8F1F1
:100D5000660F18D0B8F1670F70D131E00020B9F1FB
:100D6000110F009001DB112301E009F101030AAA30
:100D700001A90CA8FFF7E2FEDDE90C70002609F1DD
:100D80000105834647E001204B4600904FF00047A5
:100D90000AAA01A90CA8FFF7D1FEDDE90DB00C9954
:100DA0005D46002610B909F101000D18B9EB0500E8
:100DB00003D4C0F1FF3609F10105A5EB09002BE0D2
:100DC000B9F1010F01DA4FF001090020B9F1110F5B
:100DD0000090484601DD112300E003460AAA01A95C
:100DE0000CA8FFF7ABFEDDE90C704D4600268346EC
:100DF000207800070AD4AB4500DA5D4601A8012D32
:100E000004DD411911F8011C302907D04F4502DAE1
:100E100017F1040F04DA012082460FE06D1EEEE7A1
:100E2000002F02DCED1B3E4403E0781CA84200DDED
:100E30007D1CB81B00F1010A4FF000472078000725
:100E400003D4AA4501DB4FF0FF3A0021B7F1004F70
:100E50000DF143088DF8431024D002202B23002FDE
:100E600001DA7F422D230A21021EA0F1010000DCDD
:100E70005FB197FBF1FC97FBF1F201FB1C7C17467D
:100E80000CF1300C08F801CDEEE7A8F10100037079
:100E90002188090501D5452100E06521A0F101085F
:100EA00000F8011C09980FA9A1EB0807FF1D00B16C
:100EB0000120411901EBEA70A1693844081A401E6B
:100EC000A0612078C00602D42046FFF7E5FA099811
:100ED00028B1D4E901219047206A401C2062207883
:100EE000C00622D52046FFF7D7FA1EE0002E04DB0D
:100EF000B34502DD01A8805D00E03020D4E9012186
:100F00009047206A401C2062761CAAF101005FEA2B
:100F1000000A0AD100F01CFAC0680168405CD4E9FC
:100F200001219047206A401C2062281EA5F101057E
:100F3000DCDC07E0D4E9012118F8010B9047206AB6
:100F4000401C2062381EA7F10107F3DC2046FFF7A2
:100F5000B9FA032011B041E62DE9F04F04460D46E1
:100F6000D21D22F0070089B0D0E9009748463946E3
:100F700008F026FF0246F80F01D02D2307E0206875
:100F8000810701D52B2302E0202101EAC0038DF85F
:100F900020300BB1012000E00020032A824601D05E
:100FA000072A04DB2946204600F0D6F93FE12078E5
:100FB000800601D40D2500E0E569C7F30A560D2D22
:100FC00049DA00214FEA175B08464FF00000002F76
:100FD00000F4400007DA00EB80004FF4400100EB22
:100FE000D07001EA60008115012901DD4FF0FF3169
:100FF00000224FEA850CBCF1180F06D31346ACF162
:1010000018004FF08052C24003E04FF4801323FADF
:101010000CF30CF10C0CBCF1200F04D3ACF1200C40
:1010200009FA0CF001E007FA0CF000294FF0004833
:1010300001DD18B90FE00ED140450CD319EB0209C0
:101040005F4121B9404502D19F4329EA0209BBEB28
:10105000175F00D0761C2088000502D57B487844B5
:1010600002E07A487844193808AA302302F80A3096
:10107000037C0AF10101002E0AF1020A53546A4668
:1010800002DC4FF0300101E04FF031014FF0010878
:101090008DF8001002D0A6F2FF3603E059EA4701AE
:1010A00000D06B4E002D02DC2178090704D54FF0EB
:1010B00002082E218DF80110C44600210BE0C7F371
:1010C00003433F01C35C491C6D1E02F8083005292B
:1010D00008F1010801DA002DF1DC00210CE000EB41
:1010E0001973491C1B786D1E082902F808304FEA55
:1010F000091908F1010801DA002DF0DC21688B06DE
:1011000002D516E0A8F10108E04505DD02EB080371
:1011100013F8013C302BF5D0B8F1000F09DD02EBDC
:10112000080313F8013C2E2B03D1090701D4A8F1C1
:101130000108002D05DD3E2102F808106D1E08F1A2
:101140000108407C002E02F8080008F1010804DACA
:101150002D20764202F8080002E02B2002F8080059
:101160000A214FF47A70864208F101080BDB96FBE6
:10117000F0F3303302F8083096FBF0F308F1010881
:1011800000FB136601E0642E0CDB642096FBF0F399
:10119000303302F8083096FBF0F308F1010800FB49
:1011A000136601E00A2E06DB96FBF1F0303002F800
:1011B000080008F1010896FBF1F001FB10603030E7
:1011C00002F80800A16908F1010808EB050202EB2A
:1011D0000A00081AA0612078C00602D42046FFF752
:1011E0005BF9216A08AE01EB0A00206204E0D4E951
:1011F000012116F8010B9047BAF1010AF7D22078C5
:10120000C00602D52046FFF747F96E4609E016F8FA
:10121000010B3E280FD0D4E901219047206A401CE1
:101220002062B8F10108F2D22046FFF74BF909B06D
:101230000320BDE8F08F206A2844206203E0D4E94F
:101240000121302090476D1EEBD3F8E76E8E000031
:1012500002FCFFFF10B5436913B1AFF3008001E05A
:10126000FFF753F9012010BD127800F124010A7034
:1012700000224A700122EDE711684FF0FF32E9E7E2
:1012800010B5436913B1AFF3008001E0FFF7D6F961
:10129000012010BD128800F1240182840022C28442
:1012A0000122EDE711684FF0FF32E9E72DE9F04147
:1012B00016460C46054600F043F8036893F8010112
:1012C000012807D0FF2C12D8185D80B101202C70A6
:1012D000BDE8F081D3F807013246214603F2071337
:1012E000C7182846BC46BDE8F041002360474FF0D0
:1012F000FF30EDE7754600F0EBF8AE4605006946B5
:10130000534620F00700854618B020B5FFF730F8A7
:10131000BDE820404FF000064FF000074FF00008F6
:101320004FF0000BAC46ACE8C009ACE8C009ACE833
:10133000C009ACE8C00921F007018D4670470000E4
:1013400010B500F005F8001D10BD00BFE18A0000D7
:1013500000487047300000202DE9F0411F46044648
:1013600003260168072A01F4006004DB08B116A512
:1013700005E016A503E008B115A500E015A521F0CC
:1013800010002060A069C01EA0610FB1401EA061C6
:101390002046FFF781F84FB1D4E901213846904744
:1013A000206A401C2062C01C206206E0206AFAE726
:1013B000D4E9012115F8010B9047761EF8D220469A
:1013C000FFF780F8BDE8F0814E414E006E616E007F
:1013D000494E4600696E66002DE9F0478146164683
:1013E0008AB0354878440DC88DE80D0032487844FD
:1013F000801C03AC0DC884E80D0041F69B30084406
:10140000372190FBF1F290FBF1F5A5F1800501FB8E
:1014100012041B3C02D56442012000E00020DFF8EA
:1014200098A080460027FA44AAF1BE0A0EE0E00721
:101430000AD03246684607EB470101230AEB8101D7
:1014400008F087FB8DE8070064107F1C002CEED1AC
:10145000194F7F44AE3F19E0E80715D007EB0410A1
:101460000DF1180A90E80E008AE80E00C068F042FC
:1014700001D1981908903246012306A903A808F063
:1014800068FB03AB83E807006D10641C002DE3D1FB
:101490004FF0010332466946B8F1000F03A802D0AD
:1014A00008F042FB01E008F054FBC9E90001C9F86B
:1014B00008200AB0BDE8F087788B000010B504461C
:1014C000AFF300802046BDE81040FEF73CBF0000AF
:1014D000004870471000002030B44FF0013C50F835
:1014E000042B51F8043BCCFA52F4D51A20D1FCB9A4
:1014F00050F8042B51F8043BCCFA52F4D51A17D10A
:10150000B4B950F8042B51F8043BCCFA52F4D51A74
:101510000ED16CB950F8042B51F8043BCCFA52F4BC
:10152000D51A05D1002CDAD030BC4FF0000070473E
:1015300029BAB1FA81F111F01801D1F120008440EB
:10154000F2D1CA40CB4012F0FF0213F0FF0330BCCF
:10155000D01A70477047000001491820ABBEFEE763
:101560002600020080B582B001900198806A009048
:101570000098C06D10F0500F4BD1FFE70099C86D77
:1015800040F40070C86500980068006800070028F3
:1015900021D5FFE70098006803F0DCFED0B1FFE73B
:1015A00000980068C0688004002812D4FFE7009902
:1015B000C86D20F48070C8650098C06DC004002814
:1015C00006D4FFE70099C86D40F00100C865FFE749
:1015D000FFE7FFE719E000980068C068800700286F
:1015E00012D4FFE70099C86D20F48070C865009898
:1015F000C06DC004002806D4FFE70099C86D40F014
:101600000100C865FFE7FFE7FFE7009800F0E4FE90
:1016100010E00098C06DC006002804D5FFE70098D0
:1016200000F0E2FE05E00098406D416B01988847AC
:10163000FFE7FFE702B080BD80B582B0019001985E
:10164000806A00900099C86D40F04000C86500991C
:10165000086E40F004000866009800F0C5FE02B075
:1016600080BD000080B582B001900198806A009032
:10167000009800F0B5FE02B080BD000080B584B0D7
:1016800002900298006803F035FE0090029800680E
:1016900003F038FE00284BD0FFE70098002847D120
:1016A000FFE702980068806800F00D00012809D16A
:1016B000FFE70298006803F0ADFD0298016803207F
:1016C00008600DE00299C86D40F01000C8650299ED
:1016D000086E40F00100086601208DF80F002BE035
:1016E00001F00AFE0190FFE7029800688068C007D9
:1016F000E8B1FFE701F000FE0199401A032815D375
:10170000FFE7029800688068C00770B1FFE70299A0
:10171000C86D40F01000C8650299086E40F00100E5
:10172000086601208DF80F0006E0FFE7DCE7FFE721
:1017300000208DF80F00FFE79DF80F0004B080BD7A
:1017400080B584B00290002000900298006803F0F9
:10175000D9FD002874D1FFE70298006880683F2116
:10176000C8F2000108420ED0FFE70299C86D40F0B0
:101770001000C8650299086E40F00100086601205B
:101780008DF80F0060E00298006803F05DFD40F204
:101790000030C5F2000003F075FD000200281CD5E2
:1017A000FFE740F20000C2F200000068800942F644
:1017B0006351C0F23E51A0FB0110800900EB4001D3
:1017C0000C2000EB81000090FFE7009820B1FFE7BC
:1017D000009801380090F8E7FFE701F08DFD0190D7
:1017E000FFE7029800680068C00740BBFFE7029867
:1017F000006803F087FD28B9FFE70298006803F04E
:1018000023FDFFE701F078FD0199401A032815D365
:10181000FFE7029800680068C00770B9FFE7029907
:10182000C86D40F01000C8650299086E40F00100D4
:10183000086601208DF80F0006E0FFE7D1E7FFE71B
:1018400000208DF80F00FFE79DF80F0004B080BD69
:10185000FFE7FEE780B541F21850C2F2000001F048
:101860009FF980BD84B003900398006840F207415F
:10187000C4F20201884206D8FFE740F60000C4F235
:101880000200009005E040F62000C4F20200009043
:10189000FFE7009802900398007808384CF6CD4195
:1018A000CCF6CC41A0FB01100009019002980399ED
:1018B0004A6C22F0030210448864039940F68000C9
:1018C000C4F20200C864019800F01F0101208840A2
:1018D0000399086504B0704782B0019001980079BF
:1018E0000090009940F6FC00C4F2020000EB810079
:1018F00001994865019940F64010C4F202008865DC
:101900000098013800F01F01012088400199C86546
:1019100002B0704784B00390029101920093039843
:10192000C16C006D48600398406D28B1FFE70398D3
:10193000816DC06D4860FFE70398016C406C00F05A
:101940001F02012090404860009803990968486090
:1019500003988068102809D1FFE701980399096866
:101960008860029803990968C86008E002980399A2
:1019700009688860019803990968C860FFE704B0A6
:10198000704700007047000081B0EFF3108072B61E
:101990000090FFE7FEE7000080B586B00490039159
:1019A00000200190FFE7049890F85800012804D126
:1019B000FFE702208DF817005AE00499012081F812
:1019C0005800FFE7FFE70498FFF758FE8DF80B007B
:1019D0009DF80B00D8BBFFE70498C06D40F00200F3
:1019E00020F488500499C86504980068039903F0AE
:1019F000A3FDFFE70498006803F06CFCF0B1FFE77B
:101A000001980130019001984DF60261C0F2040185
:101A1000884212D3FFE70498C06D40F0100020F018
:101A200002000499C865FFE70499002081F8580076
:101A3000FFE701208DF817001AE0DBE70498C06D7E
:101A400040F0010020F002000499C86505E0049907
:101A5000C86D40F01000C865FFE7FFE7049900205B
:101A600081F85800FFE79DF80B008DF81700FFE79D
:101A70009DF8170006B080BD80B5A4B022902191DA
:101A800000208DF883002198006808B1FFE7FFE788
:101A9000FFE7229890F85800012804D1FFE70220C0
:101AA0008DF88F009FE02299012081F85800FFE710
:101AB000FFE700201B901C9022980068B0F1A04F17
:101AC00006D1FFE740F20010C5F20000049002E0EA
:101AD00000200490FFE7049878B9FFE72299C86DC9
:101AE00040F02000C865FFE72299002081F85800E7
:101AF000FFE701208DF88F0075E0049803F022FCC9
:101B000003902298006803F01DFC002857D1FFE7DE
:101B10000398002853D1FFE740F20030C5F20000DF
:101B20001F902198006860B3FFE71F98806820F439
:101B3000604021994968229A92F8382041EA42315E
:101B400008431F9988604FF0A04003F0E3FB029028
:101B500040F20010C5F2000003F0DCFB01460298E1
:101B6000084368B9FFE71F98806840F61F718843F3
:101B7000219A11689268114308431F998860FFE712
:101B80001CE01F99886820F4604088604FF0A040F6
:101B900003F0C0FB019040F20010C5F2000003F01A
:101BA000B9FB01460198084338B9FFE71F998868D7
:101BB00040F61F7290438860FFE7FFE708E0229934
:101BC000C86D40F02000C86501208DF88300FFE754
:101BD000FFE72299002081F85800FFE79DF8830075
:101BE0008DF88F00FFE79DF88F0024B080BD0000C6
:101BF00080B5C0B020901F9100208DF87B001B9015
:101C00001F98C0680021C4F27F01884201D0FFE71D
:101C100000E0FFE7FFE7209890F85800012804D182
:101C2000FFE702208DF88700D2E32099012081F898
:101C30005800FFE7FFE72098006803F07BFB0028CF
:101C400040F0B283FFE7209800681F990A6849684E
:101C500003F08CFB2098006803F06CFB1A9020982E
:101C6000006803F02FFB19901A98002840F0B88103
:101C7000FFE71998002840F0B381FFE71F988068BC
:101C8000B0F1004F0ED1FFE7209800681F99096856
:101C9000002203F097FB209800684FF0004103F00A
:101CA0003DFC0CE0209800681F9A1168926803F0D0
:101CB00089FB20980068002103F030FCFFE71F98A3
:101CC000406920990968C96801F0180189088840AD
:101CD0001D901F98006904281CD0FFE72098006819
:101CE0001F990A6809691D9B03F0BEFB20980068D4
:101CF0001F9A1169926903F0E9FB209800681F9A06
:101D00001169127F013AB2FA82F25209520603F0C7
:101D1000C9FB64E120980068002103F0C3FA400386
:101D200048B9FFE720980068002103F0BBFAC0F330
:101D30008460189018E020980068002103F0B2FA3F
:101D400090FAA0F03E903E9820B9FFE720208DF851
:101D5000FF0005E03E98B0FA80F08DF8FF00FFE745
:101D60009DF8FF001890FFE7189817901F980068DB
:101D7000400330B9FFE71F980068C0F384601690F5
:101D800015E01F98006890FAA0F03C903C9820B9AC
:101D9000FFE720208DF8F70005E03C98B0FA80F0CE
:101DA0008DF8F700FFE79DF8F7001690FFE717980A
:101DB0001699884207D1FFE7209800680022114653
:101DC00003F098FBFFE720980068012103F06AFA0E
:101DD000400348B9FFE720980068012103F062FA48
:101DE000C0F38460159018E020980068012103F08A
:101DF00059FA90FAA0F03A903A9820B9FFE72020DB
:101E00008DF8EF0005E03A98B0FA80F08DF8EF0019
:101E1000FFE79DF8EF001590FFE7159814901F98C5
:101E20000068400330B9FFE71F980068C0F3846082
:101E3000139015E01F98006890FAA0F03890389839
:101E400020B9FFE720208DF8E70005E03898B0FAC8
:101E500080F08DF8E700FFE79DF8E7001390FFE7BB
:101E600014981399884207D1FFE720980068012150
:101E7000002203F03FFBFFE720980068022103F0F7
:101E800011FA400348B9FFE720980068022103F0E7
:101E900009FAC0F38460129018E0209800680221CB
:101EA00003F000FA90FAA0F03690369820B9FFE7D8
:101EB00020208DF8DF0005E03698B0FA80F08DF82C
:101EC000DF00FFE79DF8DF001290FFE71298119006
:101ED0001F980068400330B9FFE71F980068C0F3FF
:101EE0008460109015E01F98006890FAA0F034907C
:101EF000349820B9FFE720208DF8D70005E034980A
:101F0000B0FA80F08DF8D700FFE79DF8D700109069
:101F1000FFE711981099884207D1FFE720980068E1
:101F20000221002203F0E6FAFFE72098006803216F
:101F300003F0B8F9400348B9FFE72098006803218F
:101F400003F0B0F9C0F384600F9018E020980068A7
:101F5000032103F0A7F990FAA0F03290329820B94B
:101F6000FFE720208DF8CF0005E03298B0FA80F02E
:101F70008DF8CF00FFE79DF8CF000F90FFE70F9897
:101F80000E901F980068400330B9FFE71F98006863
:101F9000C0F384600D9015E01F98006890FAA0F0DF
:101FA0003090309820B9FFE720208DF8C70005E079
:101FB0003098B0FA80F08DF8C700FFE79DF8C700B1
:101FC0000D90FFE70E980D99884207D1FFE7209802
:101FD00000680321002203F08DFAFFE7FFE7FFE727
:101FE0002098006803F08EF9002840F04481FFE754
:101FF000209800681F9A1168D26803F0FFF91F98B3
:10200000C0680021C4F27F01884240F03381FFE7BD
:10201000209800680C901F980068400330B9FFE7D3
:102020001F980068C0F384600B9015E01F9800684B
:1020300090FAA0F02E902E9820B9FFE720208DF87E
:10204000BF0005E02E98B0FA80F08DF8BF00FFE7E2
:102050009DF8BF000B90FFE70B98013000F01F00C8
:1020600009287DD8FFE71F980068400330B9FFE7D3
:102070001F980068C0F384600A9015E01F980068FC
:1020800090FAA0F02C902C9820B9FFE720208DF832
:10209000B70005E02C98B0FA80F08DF8B700FFE7A4
:1020A0009DF8B7000A90FFE70A98013000F01F0082
:1020B000800609901F980068400330B9FFE71F9819
:1020C0000068C0F38460089015E01F98006890FADB
:1020D000A0F02A902A9820B9FFE720208DF8AF00C1
:1020E00005E02A98B0FA80F08DF8AF00FFE79DF880
:1020F000AF000890FFE709980899013101F01F022D
:1021000001219140084307901F980068400330B9AF
:10211000FFE71F980068C0F38460069015E01F98E1
:10212000006890FAA0F02890289820B9FFE72020B6
:102130008DF8A70005E02898B0FA80F08DF8A70088
:10214000FFE79DF8A7000690FFE707980699013181
:1021500001F01F0101EB410140EA0150059082E0CE
:102160001F980068400330B9FFE71F980068C0F36C
:102170008460049015E01F98006890FAA0F0269003
:10218000269820B9FFE720208DF89F0005E02698CB
:10219000B0FA80F08DF89F00FFE79DF89F00049053
:1021A000FFE70498013000F01F00800603901F989D
:1021B0000068400330B9FFE71F980068C0F38460EF
:1021C000029015E01F98006890FAA0F024902498DF
:1021D00020B9FFE720208DF8970005E02498B0FA99
:1021E00080F08DF89700FFE79DF897000290FFE7D9
:1021F00003980299013101F01F0201219140084327
:1022000001901F980068400330B9FFE71F980068ED
:10221000C0F38460009015E01F98006890FAA0F069
:102220002290229820B9FFE720208DF88F0005E04A
:102230002298B0FA80F08DF88F00FFE79DF88F00AC
:102240000090FFE701990098013000F01F0000EBBB
:1022500040020020CFF6206000EB0250084340F01F
:1022600000700590FFE70C9805991F9A926803F09B
:10227000A9F8FFE7FFE71F98408848F208010842E5
:1022800000F09180FFE740F20030C5F2000002F05C
:10229000F9FF1C901F9800680021CCF22131884280
:1022A00008D0FFE71F9800681021C9F2C0018842DA
:1022B00032D1FFE79DF87200000600282CD4FFE71A
:1022C00020980068B0F1A04F25D1FFE71C9840F49A
:1022D000000140F20030C5F2000003F0B7F840F210
:1022E0000000C2F200000068800942F66351C0F2AB
:1022F0003E51A0FB0110800900EB40010C2000EBD7
:1023000081001B90FFE71B9820B1FFE71B98013865
:102310001B90F8E7FFE745E01F9800680021CCF22A
:102320005271884219D1FFE79DF87300C007A0B928
:10233000FFE72098006840F20011C5F200018842D2
:102340000AD0FFE71C9840F0807140F20030C5F2DF
:10235000000003F07BF8FFE723E01F9800680021EE
:10236000CCF6843188421AD1FFE79DF8720040060E
:10237000002814D4FFE72098006840F20011C5F24D
:10238000000188420AD0FFE71C9840F4800140F227
:102390000030C5F2000003F059F8FFE700E0FFE766
:1023A000FFE7FFE7FFE708E02099C86D40F0200055
:1023B000C86501208DF87B00FFE7FFE7209900202A
:1023C00081F85800FFE79DF87B008DF88700FFE754
:1023D0009DF8870040B080BD81B0009001B070478B
:1023E00081B0009001B0704781B0009001B070479B
:1023F00080B588B0069000208DF8170001900698EF
:1024000020B9FFE701208DF81F0079E106984069A7
:1024100040B1FFE7069890F82400012801D1FFE7BA
:10242000FFE7FFE70698C06D50B9FFE7069800F098
:102430006BF9069900200866069981F85800FFE7B5
:102440000698006802F04EFF28B1FFE70698006882
:1024500002F0EEFEFFE70698006802F063FFF0B9B5
:10246000FFE70698006802F0FDFE40F20000C2F2AD
:1024700000000068800942F66351C0F23E51A0FBA3
:1024800001108109022000EB41000190FFE7019853
:1024900020B1FFE7019801380190F8E7FFE70698BF
:1024A000006802F03FFF70B9FFE70699C86D40F081
:1024B0001000C8650699086E40F00100086601200A
:1024C0008DF81700FFE70698006802F033FF0390CD
:1024D0000698C06DC006002800F10481FFE703984C
:1024E000002840F0FF80FFE70698C06D40F0020032
:1024F00020F480700699C8650698006802F002FF13
:10250000D0B9FFE74FF0A04002F0FCFE009040F28F
:102510000010C5F2000002F0F5FE014600980843E5
:1025200048B9FFE70698416840F20030C5F2000064
:1025300002F07EFFFFE7FFE706994A7FC86B40EA9B
:1025400042308A68CB681843104391F8241040EA5F
:1025500001400490069890F8240001280BD1FFE771
:102560000698816A0020CFF6FE7000EB4141049886
:1025700008430490FFE70698C06A50B1FFE7069948
:10258000C86A096B00F4787001430498084304900A
:10259000FFE706980068C06844F20701CFF6F071C3
:1025A00008400499084306990968C86006980068BD
:1025B000006920F04060069A1168526B1043086170
:1025C0000698006802F07EFE02900398002868D109
:1025D000FFE70298002864D1FFE70699087F91F889
:1025E0003810800340EA4100049006980068C068F3
:1025F00044F2020188430499084306990968C860B7
:1026000006980069A0B1FFE706980168086940F4E0
:102610008030086106980068D0F8C00043F6FF716A
:102620008843069A116812691043C1F8C00011E08E
:1026300006980168086920F48030086106980068EF
:10264000D0F8C00043F6FF71884306990968C1F8C5
:10265000C000FFE7069890F84000012819D1FFE775
:1026600006980068006940F2FD7120EA0102069BAD
:102670001968586CD3F848E0D3F84CC040EA0E0013
:1026800040EA0C001B6D1843104340F00100086144
:1026900006E006980168086920F001000861FFE77C
:1026A000FFE70698406901280CD1FFE7069800680B
:1026B000006B20F00F00069A1168126A013A10436D
:1026C000086306E006980168086B20F00F000863B5
:1026D000FFE70698C06D40F0010020F00200069967
:1026E000C86508E00699C86D40F01000C865012073
:1026F0008DF81700FFE79DF817008DF81F00FFE722
:102700009DF81F0008B080BD80B59EB01D900020D0
:102710001C901B901A901990189007A84421FDF75F
:102720007BFE1D980068B0F1A04F40F08280FFE76B
:102730004FF4004007904FF00050169007A801F0AA
:1027400003F918B1FFE7FFF71FF9FFE7FFE741F2D1
:102750004C00C4F20200016841F4005101600068BD
:1027600000F4005006900698FFE7FFE741F24C00A6
:10277000C4F20200016841F001010160006800F04C
:10278000010005900598FFE7FFE741F24C00C4F215
:102790000200016841F002010160006800F00200DF
:1027A00004900498FFE704201890032000901990EB
:1027B000002002901A904FF0904018A9019100F06B
:1027C000E7FB009A0199029845F6010318931992C4
:1027D0001A9040F20040C4F6000000F0D9FB0299C4
:1027E00041F21850C2F2000003900822C4F2020223
:1027F0000260052242608160C160802202614FF464
:10280000807242614FF480628261C161016200F0B6
:1028100073FA18B1FFE7FFF7B7F8FFE7FFE71D9876
:1028200041F21851C2F2000141651D988862FFE72C
:10283000FFE71EB080BD000080B588B0069040F272
:102840000030C5F2000002F025FD039006980068F4
:1028500002F070FD002840F0C880FFE7FFE706980F
:1028600090F85800012804D1FFE702208DF81F00DE
:10287000C4E00699012081F85800FFE7FFE70698B9
:10288000FEF75EFF8DF817009DF81700002840F056
:10289000A480FFE70698C06D40F4807040F60161A7
:1028A00088430699C8650698006840F20011C5F291
:1028B0000001884204D1FFE74FF0A040029003E0FE
:1028C000069800680290FFE7029806990968884216
:1028D00003D0FFE7039830B9FFE70699C86D20F4ED
:1028E0008010C865FFE70698C06DC004002806D5B3
:1028F000FFE70699086E20F00600086603E00699D7
:1029000000200866FFE7069801681C200860FFE7C2
:102910000699002081F85800FFE70698006840F209
:102920000011C5F20001884204D1FFE74FF0A0403A
:10293000019003E0069800680190FFE7019806996E
:10294000096888420BD0FFE7039840B1FFE703987E
:10295000052804D0FFE70398092815D1FFE706985A
:102960000068C0688001002809D5FFE70698C06D9F
:1029700040F4805020F400500699C865FFE706989F
:10298000006802F011FD27E00699C86D40F4801040
:10299000C8650698006840F20011C5F2000188423F
:1029A00004D1FFE74FF0A040009003E006980068D4
:1029B0000090FFE7009804900498C0688001002808
:1029C00009D5FFE70698C06D40F4805020F4005010
:1029D0000699C865FFE7FFE706E0FFE706990020D4
:1029E00081F85800FFE7FFE703E002208DF81700A9
:1029F000FFE79DF817008DF81F00FFE79DF81F0007
:102A000008B080BD80B588B006900591049240F270
:102A10000030C5F2000002F03DFC0290069800680C
:102A200002F088FC002840F0AE80FFE7FFE7069840
:102A300090F85800012804D1FFE702208DF81F000C
:102A4000AAE00699012081F85800FFE7FFE7029805
:102A500048B1FFE70298052805D0FFE7029809284A
:102A600040F08680FFE70698FEF76AFE8DF80F00BB
:102A70009DF80F00002873D1FFE70698C06D40F461
:102A8000807040F6016188430699C8650698006821
:102A900040F20011C5F20001884204D1FFE74FF077
:102AA000A040019003E0069800680190FFE70198BC
:102AB00006990968884203D0FFE7029830B9FFE71A
:102AC0000699C86D20F48010C865FFE70698C06DB0
:102AD000C004002806D5FFE70699086E20F006001E
:102AE000086603E0069900200866FFE70698416D36
:102AF00041F26550C0F60000C8620698416D41F28F
:102B00006560C0F6000008630698416D41F23960C7
:102B1000C0F600004863069801681C200860FFE7C3
:102B20000699002081F85800FFE706980168486878
:102B300040F01000486006980168C86840F0010045
:102B4000C86006980168406D4031059A049B00F00A
:102B50007FF98DF80F000698006802F025FC06E06A
:102B6000FFE70699002081F85800FFE7FFE709E03A
:102B700001208DF80F00FFE70699002081F858002A
:102B8000FFE7FFE703E002208DF80F00FFE79DF865
:102B90000F008DF81F00FFE79DF81F0008B080BDF3
:102BA00080B584B003900398006C0068029003988D
:102BB00000680068019002980399496C01F01F01B8
:102BC000C8404007002825D5FFE79DF804004007CE
:102BD00000281FD5FFE703980068006880060028DA
:102BE00007D4FFE703980168086820F00400086034
:102BF000FFE70398016C406C00F01F020420904036
:102C000048600398006B20B1FFE70398016B884789
:102C1000FFE76EE002980399496C01F01F01C8407C
:102C2000800700282FD5FFE79DF8040080070028C3
:102C300029D5FFE7039800680068800600280BD4B8
:102C4000FFE703980168086820F00A00086003990C
:102C5000012081F82500FFE70398016C406C00F02B
:102C60001F02022090404860FFE70399002081F88E
:102C70002400FFE70398C06A20B1FFE70398C16A08
:102C80008847FFE734E002980399496C01F01F017F
:102C9000C8400007002829D5FFE79DF80400000779
:102CA000002823D5FFE703980168086820F00E008C
:102CB00008600398026C406C00F01F01012000FACC
:102CC00001F151600399C863039981F82500FFE77A
:102CD0000399002081F82400FFE70398406B20B19E
:102CE000FFE70398416B8847FFE700E0FFE7FFE756
:102CF000FFE704B080BD000080B584B00290029868
:102D000020B9FFE701208DF80F009CE002980068D1
:102D100040F20741C4F20201884218D8FFE7029945
:102D200008684FF6F872CBF6FD7210444CF6CD42AF
:102D3000CCF6CC42A0FB02026FF0030000EA920046
:102D4000486402990020C4F20200086418E0029965
:102D500008684FF6F832CBF6FD7210444CF6CD42BF
:102D6000CCF6CC42A0FB02026FF0030000EA920016
:102D70004864029940F20040C4F202000864FFE790
:102D80000299022081F825000298006800680190ED
:102D9000019847F6F0718843019002998868D1F84C
:102DA0000CC00B694A6940EA0C00184310438A6959
:102DB0001043CA691043096A01430198084301900E
:102DC00001980299096808600298FEF74BFD029885
:102DD0008068B0F5804F04D1FFE702990020486079
:102DE000FFE702990879896C08600298C16C006D50
:102DF00048600298406888B1FFE70298406804285C
:102E00000CD8FFE70298FEF767FD0298416D00209D
:102E100008600298816DC06D486007E0029900204B
:102E20004865029988650299C865FFE70299002004
:102E3000C863029A012182F82510029981F82400C2
:102E40008DF80F00FFE79DF80F0004B080BD000073
:102E500080B586B0049003910292019300208DF812
:102E60000300FFE7049890F82400012804D1FFE74D
:102E700002208DF8170065E00499012081F82400F4
:102E8000FFE7FFE7049890F8250001284BD1FFE702
:102E90000499022081F8250004990020C863049851
:102EA0000168086820F00100086004980399029AFC
:102EB000019BFEF72FFD0498006B38B1FFE70498E3
:102EC0000168086840F00E0008600CE00498016892
:102ED000086820F00400086004980168086840F061
:102EE0000A000860FFE70498806C0068C0030028AF
:102EF00007D5FFE70498816C086840F4807008608B
:102F0000FFE70498406D38B1FFE70498416D086809
:102F100040F480700860FFE704980168086840F09A
:102F20000100086009E0FFE70499002081F824000F
:102F3000FFE702208DF80300FFE79DF803008DF8FE
:102F40001700FFE79DF8170006B080BD80B584B07C
:102F5000039000F0D1F9029003980190019801309C
:102F600048B1FFE740F20400C2F200000168019896
:102F700008440190FFE7FFE700F0BEF90299401A0C
:102F80000199884201D2FFE7F6E704B080BD000056
:102F90008BB00A90099100200890FFE7099800681B
:102FA0000899C840002800F0A581FFE7099800684B
:102FB000089A01219140084007900798002800F0E6
:102FC0009581FFE70998406800F00300012807D0C9
:102FD000FFE70998406800F0030002282FD1FFE7BF
:102FE0000A988068069008984100032000FA01F1D1
:102FF0000698884306900998C0680899490000FA25
:1030000001F106980843069006980A9988600A9884
:10301000406806900899012000FA01F1069888435B
:10302000069009984068C0F30010089900FA01F171
:1030300006980843069006980A994860FFE70998A1
:10304000406800F00300032818D0FFE70A98C06822
:10305000069008984100032000FA01F10698884381
:103060000690099880680899490000FA01F10698CD
:103070000843069006980A99C860FFE709984068D7
:1030800000F00300022826D1FFE70A9808996FF0A4
:10309000030202EA51010844006A0690089800F011
:1030A000070081000F2000FA01F10698884306907E
:1030B00009980069089901F00701890000FA01F1F7
:1030C00006980843069006980A99089B02EA53025C
:1030D00011440862FFE70A980068069008984100CA
:1030E000032000FA01F10698884306900998406889
:1030F00000F003000899490000FA01F1069808431E
:10310000069006980A990860099880798007002837
:1031100000F0EB80FFE7FFE741F26000C4F202003D
:10312000016841F001010160006800F001000590B4
:103130000598FFE7089820F003000821C4F2010178
:1031400040580690089800F0030081000F2000FA14
:1031500001F10698884306900A98B0F1904F03D188
:10316000FFE70020049042E00A9840F20041C4F6D4
:103170000001884203D1FFE70120039034E00A9860
:1031800040F60001C4F60001884203D1FFE70220A7
:10319000029026E00A9840F60041C4F600018842F9
:1031A00003D1FFE70320019018E00A9841F20001E3
:1031B000C4F60001884203D1FFE7042000900AE032
:1031C0000A9941F20042C4F600020620914208BF6B
:1031D00005200090FFE700980190FFE7019802901A
:1031E000FFE702980390FFE703980490FFE7049835
:1031F000089901F00301890000FA01F106980843DB
:1032000006900698089921F003010822C4F20102F1
:10321000885040F20840C4F2010000680690079907
:1032200006988843069009988079C006002805D53D
:10323000FFE70799069808430690FFE7069840F2D3
:103240000841C4F20101086040F20C40C4F20100E0
:103250000068069007990698884306900998807937
:103260008006002805D5FFE70799069808430690D1
:10327000FFE7069840F20C41C4F20101086040F2F9
:103280000440C4F20100006806900799069888433C
:103290000690099880798007002805D5FFE70799EF
:1032A000069808430690FFE7069840F20441C4F2EE
:1032B0000101086040F20040C4F20100006806907D
:1032C000079906988843069009988079C00728B125
:1032D000FFE70799069808430690FFE7069840F233
:1032E0000041C4F201010860FFE7FFE708980130E0
:1032F000089053E60BB0704742F21020C2F2000073
:103300000068704740F20400C2F20000026842F216
:103310001021C2F2000108681044086070470000E4
:1033200080B582B000208DF80700032000F0A0F8DF
:103330000F2000F00DF820B1FFE701208DF8070005
:1033400002E000F049F8FFE79DF8070002B080BDF9
:1033500080B582B0019000208DF8030040F2040097
:10336000C2F20000006878B3FFE740F20000C2F24A
:103370000000006840F20401C2F200010A684FF444
:103380007A71B1FBF2F1B0FBF1F001F019FBB0B9C9
:10339000FFE701980F280DD8FFE701994FF0FF30A4
:1033A000002200F04DF8019840F20801C2F200013D
:1033B000086003E001208DF80300FFE703E001202F
:1033C0008DF80300FFE703E001208DF80300FFE71D
:1033D0009DF8030002B080BD80B582B0FFE741F2E6
:1033E0006000C4F20200016841F001010160006860
:1033F00000F0010001900198FFE7FFE741F258005B
:10340000C4F20200016841F080510160006800F0E0
:10341000805000900098FFE701F0BCFA022001F014
:10342000C1FA00F01FFA02B080BD000080B582B082
:103430008DF807009DF9070005F00EFD02B080BD74
:1034400080B586B08DF817000491039205F024FD35
:1034500002909DF91700019002980499039A04F0D4
:1034600023F80146019805F041FD06B080BD00003B
:1034700080B582B00190019805F05AFD02B080BD80
:1034800082B0019001980068009001990120C1F874
:10349000D0020199002081F8C802009AB2F85410B5
:1034A00041F00101A2F85410009AB2F8541041F012
:1034B0000201A2F8541002B07047000080B584B039
:1034C0000290029820B9FFE701208DF80F00BBE0C1
:1034D000029890F8910240B9FFE70299002081F824
:1034E0009002029800F0B4F8FFE70299032081F8F7
:1034F00091020298006804F091FC00208DF807000A
:10350000FFE79DF8070002990979884239DAFFE759
:1035100002989DF8071001EB810100EBC101012029
:1035200048749DF80700029900EB800201EBC2018C
:10353000087402989DF8071001EB810100EBC101AE
:103540000020C87402999DF8072002EB820201EB6B
:10355000C201086202999DF8072002EB820201EB8A
:10356000C201486202999DF8072002EB820201EB3A
:10357000C2018862FFE79DF8070001308DF807005F
:10358000BFE700208DF80700FFE79DF807000299CC
:10359000097988423EDAFFE702989DF8071001EBAF
:1035A000810100EBC101002081F851019DF8071055
:1035B000029A01EB810302EBC30282F850110299D7
:1035C0009DF8072002EB820201EBC20181F8530152
:1035D00002999DF8072002EB820201EBC201C1F8BB
:1035E000600102999DF8072002EB820201EBC20103
:1035F000C1F8640102999DF8072002EB820201EBF9
:10360000C201C1F86801FFE79DF8070001308DF89D
:103610000700BAE7029A10685168926804F0EAFB62
:103620000299002008730299012081F89102029802
:10363000807A012804D1FFE70298FFF721FFFFE716
:1036400000208DF80F00FFE79DF80F0004B080BD4B
:1036500080B594B0139002A84421FCF7DDFE1398C6
:10366000006845F60041C4F2000188421DD1FFE721
:103670004FF40050029000200F9002A800F064F96F
:1036800018B1FFE7FEF780F9FFE7FFE741F25800C6
:10369000C4F20200016841F400010160006800F416
:1036A000000001900198FFE7FFE714B080BD000023
:1036B00085B00390039800285ED1FFE747F2000031
:1036C000C4F20000006800F4C060B0F5806F49D11A
:1036D000FFE747F28001C4F20001086820F480701F
:1036E000086047F20002C4F200021168012060F392
:1036F0004A21116040F20001C2F200010968322241
:1037000051434DF68362C4F21B32A1FB022100EB50
:1037100091400290FFE747F21400C4F200000168F4
:10372000002049050029019006D5FFE702980028EE
:1037300018BF01200190FFE70198C00720B1FFE703
:10374000029801380290E6E747F21400C4F2000044
:1037500000684005002804D5FFE703208DF813001A
:103760007CE008E047F28001C4F20001086820F420
:1037700080700860FFE76DE00398B0F5007F5ED1D0
:10378000FFE747F20000C4F20000006800F4C060E8
:10379000B0F5806F49D1FFE747F28001C4F2000124
:1037A000086840F48070086047F20002C4F200022A
:1037B0001168012060F34A21116040F20001C2F259
:1037C00000010968322251434DF68362C4F21B3274
:1037D000A1FB022100EB91400290FFE747F21400A9
:1037E000C4F200000168002049050029009006D5B8
:1037F000FFE70298002818BF01200090FFE700981B
:10380000C00720B1FFE7029801380290E6E747F2CF
:103810001400C4F2000000684005002804D5FFE74A
:1038200003208DF8130019E008E047F28001C4F28C
:103830000001086840F480700860FFE709E047F283
:103840000001C4F200010868022262F34A20086005
:10385000FFE7FFE700208DF81300FFE79DF8130056
:1038600005B0704747F20801C4F20001086840F44F
:10387000804008607047000081B08DF8030047F277
:103880000001C4F20001086820F0070008604EF64D
:103890001051CEF20001086840F0040008609DF865
:1038A0000300012802D1FFE730BF03E040BF20BF83
:1038B00020BFFFE74EF61051CEF20001086820F05D
:1038C0000400086001B0704781B08DF8030047F232
:1038D0000001C4F200010868012262F302000860DE
:1038E0004EF61051CEF20001086840F00400086066
:1038F0009DF80300012802D1FFE730BF03E040BF7D
:1039000020BF20BFFFE74EF61051CEF2000108683D
:1039100020F00400086001B07047000080B582B05C
:1039200001908DF803100198B0F5804F05D1FFE7A5
:103930009DF80300FFF7C8FF04E09DF80300FFF7C0
:103940009BFFFFE702B080BD80B586B005900020E8
:103950008DF80B008DF80A00059880780007002884
:1039600040F1B580FFE700208DF8090041F25800D2
:10397000C4F202000068C000002813D4FFE7FFE78C
:1039800041F25800C4F20200016841F08051016028
:10399000006800F0805001900198FFE701208DF849
:1039A0000900FFE747F20001C4F20001086840F493
:1039B00080700860FFF7A0FC0390FFE747F200006B
:1039C000C4F200000068C00500280CD4FFE7FFF730
:1039D00093FC0399401A032804D3FFE703208DF8D2
:1039E0000B0000E0EAE79DF80B0000285BD1FFE741
:1039F00041F29000C4F20200006800F440700490AC
:103A00000498C8B1FFE704980599096C884213D05F
:103A1000FFE741F29001C4F20201086820F440700F
:103A20000490086840F480300860086820F4803012
:103A3000086004980860FFE79DF81000C007E0B137
:103A4000FFE7FFF759FC0390FFE741F29000C4F253
:103A500002000068800700280ED4FFE7FFF74CFC47
:103A60000399401A41F28931884204D3FFE70320C9
:103A70008DF80B0000E0E8E7FFE79DF80B0060B968
:103A8000FFE741F29001C4F20201086820F440709F
:103A9000059A126C1043086004E09DF80B008DF845
:103AA0000A00FFE704E09DF80B008DF80A00FFE72D
:103AB0009DF80900012809D1FFE741F25801C4F23D
:103AC0000201086820F080500860FFE7FFE70598D2
:103AD0000078C00760B1FFE741F28801C4F202013B
:103AE000086820F00300059A526810430860FFE759
:103AF00005980078800700280CD5FFE741F288017F
:103B0000C4F20201086820F00C00059A9268104384
:103B10000860FFE705980078400700280CD5FFE70C
:103B200041F28801C4F20201086820F03000059AD1
:103B3000D26810430860FFE7059800780007002866
:103B40000CD5FFE741F28801C4F20201086820F0B9
:103B5000C000059A126910430860FFE705980078D5
:103B6000800600280CD5FFE741F28801C4F202016B
:103B7000086820F44060059A526910430860FFE726
:103B800005980078400600280CD5FFE741F288012F
:103B9000C4F20201086820F44050059A926910436B
:103BA0000860FFE705980078000600280CD5FFE7BD
:103BB00041F28801C4F20201086820F44040059AED
:103BC000D26910430860FFE705984078C00760B1EC
:103BD000FFE741F28801C4F20201086820F4403096
:103BE000059A126A10430860FFE70598407880073D
:103BF00000280CD5FFE741F28801C4F202010868F1
:103C000020F44020059A526A10430860FFE70598A7
:103C10004078400700281BD5FFE741F28801C4F235
:103C20000201086820F44010059A926A1043086067
:103C30000598806AB0F5801F09D1FFE741F20C01B9
:103C4000C4F20201086840F480100860FFE7FFE753
:103C500005984078000700281BD5FFE741F288014E
:103C6000C4F20201086820F44000059AD26A1043A9
:103C700008600598C06AB0F5800F09D1FFE741F2EE
:103C80000C01C4F20201086840F480100860FFE7EC
:103C9000FFE705984078C00600281BD5FFE741F2F2
:103CA0008801C4F20201086820F04070059A126B86
:103CB000104308600598006BB0F1807F09D1FFE7E1
:103CC00041F20C01C4F20201086840F4801008605F
:103CD000FFE7FFE705984078800600281BD5FFE73F
:103CE00041F28801C4F20201086820F04060059AA0
:103CF000526B104308600598406BB0F1006F09D11A
:103D0000FFE741F20C01C4F20201086840F48010A0
:103D10000860FFE7FFE705984078400600281BD5BC
:103D2000FFE741F28801C4F20201086820F0406018
:103D3000059A926B104308600598806BB0F1006F94
:103D400009D1FFE741F20C01C4F20201086840F416
:103D500080100860FFE7FFE705984078000600281C
:103D60001BD5FFE741F28801C4F20201086820F088
:103D70004050059AD26B104308600598C06BB0F1B3
:103D8000805F09D1FFE741F20C01C4F2020108682B
:103D900040F480300860FFE7FFE79DF80A0006B0B6
:103DA00080BD000080B586B0049003910020009093
:103DB000049820B9FFE701208DF8170081E10398EE
:103DC00042F20001C4F20201096801F00F018842C9
:103DD00016D9FFE742F20000C4F20200016821F0A8
:103DE0000F01039A11430160006800F00F0003996E
:103DF000884204D0FFE701208DF8170061E1FFE75A
:103E000004980078C007002800F0A380FFE704981A
:103E10004068032839D1FFE741F20000C4F20200F4
:103E200000688001002804D4FFE701208DF8170006
:103E300047E103F0AFFE019001984BF20141C0F25F
:103E4000C441884220D3FFE741F20800C4F20200D7
:103E5000006810F0F00F0AD0FFE7049800788007A0
:103E6000002810D5FFE70498806860B9FFE741F2A9
:103E70000801C4F202010868082262F30710086012
:103E800080200090FFE7FFE738E0049840680228B0
:103E90000ED1FFE741F20000C4F202000068800387
:103EA000002804D4FFE701208DF8170009E10DE098
:103EB00041F20000C4F2020000684005002804D46A
:103EC000FFE701208DF81700FBE0FFE700F0FEF8A8
:103ED000019001984BF20141C0F2C44188420CD3D9
:103EE000FFE741F20801C4F202010868082262F308
:103EF0000710086080200090FFE7FFE741F208010B
:103F0000C4F20201086820F00300049A52681043CA
:103F10000860FFF7F1F90290FFE741F20800C4F2F0
:103F20000200006800F00C0004994968B0EB810FB2
:103F30000ED0FFE7FFF7E0F90299401A41F289310C
:103F4000884204D3FFE703208DF81700B9E0E4E7C7
:103F5000FFE704980078800700282CD5FFE7049835
:103F600000784007002809D5FFE741F20801C4F2B4
:103F70000201086840F4E0600860FFE704980078F8
:103F8000000700280BD5FFE741F20801C4F2020147
:103F9000086840F4E06020F460500860FFE741F2F8
:103FA0000801C4F20201086820F0F000049A926847
:103FB000104308600DE00098802809D1FFE741F226
:103FC0000801C4F20201086820F0F0000860FFE771
:103FD000FFE7039842F20001C4F20201096801F010
:103FE0000F01884228D2FFE742F20001C4F2020129
:103FF000086820F00F00039A10430860FFF77CF96F
:104000000290FFE742F20000C4F20200006800F0F4
:104010000F00039988420ED0FFE7FFF76DF9029970
:10402000401A41F28931884204D3FFE703208DF81A
:10403000170046E0E6E7FFE704980078400700280D
:104040000CD5FFE741F20801C4F20201086820F430
:10405000E060049AD26810430860FFE70498007893
:10406000000700280DD5FFE741F20801C4F2020164
:10407000086820F46050049A126940EAC20008609F
:10408000FFE700F023F841F20801C4F202010968D9
:10409000C9B20A0949F67871C0F60001895C01F0DD
:1040A0001F01C84040F20001C2F20001086040F266
:1040B0000800C2F200000068FFF74AF98DF8170007
:1040C000FFE79DF8170006B080BD000086B041F202
:1040D0000800C4F20200006800F00C00042806D1B9
:1040E000FFE742F20040C0F2F400019069E041F2C3
:1040F0000800C4F20200006800F00C00082806D195
:10410000FFE744F60000C0F2E810019058E041F2E9
:104110000800C4F20200006800F00C000C284BD12B
:10412000FFE741F20C00C4F20200016801F0030154
:1041300004910068C1B2012000EB111002900498B4
:104140000090022815D0FFE70098032812D1FFE75E
:10415000029944F60000C0F2E810B0FBF1F041F221
:104160000C01C4F202010968C1F30621484305901D
:1041700011E0FFE7029942F20040C0F2F400B0FB08
:10418000F1F041F20C01C4F202010968C1F3062109
:1041900048430590FFE741F20C00C4F202000068BA
:1041A00000F0C061022000EB1160039005980399B4
:1041B000B0FBF1F0019002E000200190FFE7FFE783
:1041C000FFE7019806B07047B0B588B00690069832
:1041D00020B9FFE701208DF81F00CCE30698007896
:1041E000C007002800F09B80FFE741F20800C4F2FE
:1041F0000200006800F00C00049041F20C00C4F2D0
:104200000200006800F00300039004980C2804D119
:10421000FFE70398032804D0FFE70498082812D189
:10422000FFE741F20000C4F20200006880030028AA
:1042300008D5FFE70698406820B9FFE701208DF810
:104240001F0098E36AE0FFE706984068B0F5803FFA
:1042500009D1FFE741F20001C4F20201086840F40D
:104260008030086020E006984068B0F5A02F0DD19E
:10427000FFE741F20001C4F20201086840F4802027
:104280000860086840F4803008600CE041F20001EA
:10429000C4F20201086820F480300860086820F445
:1042A00080200860FFE7FFE7FFE706984068D0B18D
:1042B000FFE7FFF721F80590FFE741F20000C4F2A5
:1042C00002000068800300280CD4FFE7FFF714F811
:1042D0000599401A652804D3FFE703208DF81F00D5
:1042E00049E3EAE719E0FFF707F80590FFE741F235
:1042F0000000C4F202000068800300280CD5FFE72C
:10430000FEF7FAFF0599401A652804D3FFE703205A
:104310008DF81F002FE3EAE7FFE7FFE7FFE70698C6
:1043200000788007002840F19F80FFE741F20800F5
:10433000C4F20200006800F00C00049041F20C008E
:10434000C4F20200006800F00300039004980C28F7
:1043500004D1FFE70398022804D0FFE7049804285B
:104360002CD1FFE741F20000C4F2020000684005D2
:10437000002808D5FFE70698C06820B9FFE70120AC
:104380008DF81F00F7E241F20401C4F2020108684F
:1043900020F0FE40069A126940EA0260086040F28E
:1043A0000800C2F200000068FEF7D2FF20B1FFE76C
:1043B00001208DF81F00DEE2FFE754E00698C06898
:1043C00070B3FFE741F20001C4F20201086840F453
:1043D00080700860FEF790FF0590FFE741F2000053
:1043E000C4F202000068400500280CD4FFE7FEF785
:1043F00083FF0599401A032804D3FFE703208DF8B3
:104400001F00B8E2EAE741F20401C4F202010868C1
:1044100020F0FE40069A126940EA0260086021E03E
:1044200041F20001C4F20201086820F480700860C3
:10443000FEF762FF0590FFE741F20000C4F20200C0
:104440000068400500280CD5FFE7FEF755FF0599E9
:10445000401A032804D3FFE703208DF81F008AE2E7
:10446000EAE7FFE7FFE7FFE7069800780007002884
:1044700049D5FFE70698406910B3FFE741F2940180
:10448000C4F20201086840F001000860FEF734FF42
:104490000590FFE741F29400C4F202000068800733
:1044A00000280CD4FFE7FEF727FF0599401A0328E0
:1044B00004D3FFE703208DF81F005CE2EAE721E068
:1044C00041F29401C4F20201086820F00100086082
:1044D000FEF712FF0590FFE741F29400C4F20200DC
:1044E0000068800700280CD5FFE7FEF705FF059957
:1044F000401A032804D3FFE703208DF81F003AE297
:10450000EAE7FFE7FFE7069800784007002840F158
:10451000C680FFE700208DF80B0041F25800C4F27E
:1045200002000068C000002813D4FFE7FFE741F253
:104530005800C4F20200016841F080510160006837
:1045400000F0805001900198FFE701208DF80B00EA
:10455000FFE747F20000C4F200000068C005002831
:1045600022D4FFE747F20001C4F20001086840F4DA
:1045700080700860FEF7C0FE0590FFE747F200007C
:10458000C4F200000068C00500280CD4FFE7FEF765
:10459000B3FE0599401A032804D3FFE703208DF8E2
:1045A0001F00E8E1EAE7FFE7FFE7069880680128D7
:1045B00009D1FFE741F29001C4F20201086840F01E
:1045C000010008601FE00698806805280DD1FFE70C
:1045D00041F29001C4F20201086840F00400086052
:1045E000086840F0010008600CE041F29001C4F25C
:1045F0000201086820F001000860086820F004004B
:104600000860FFE7FFE7FFE706988068E0B1FFE793
:10461000FEF772FE0590FFE741F29000C4F202003F
:104620000068800700280ED4FFE7FEF765FE0599B5
:10463000401A41F28931884204D3FFE703208DF804
:104640001F0098E1E8E71BE0FEF756FE0590FFE744
:1046500041F29000C4F202000068800700280ED5E5
:10466000FFE7FEF749FE0599401A41F28931884279
:1046700004D3FFE703208DF81F007CE1E8E7FFE7A4
:104680009DF80B00012809D1FFE741F25801C4F25F
:104690000201086820F080500860FFE7FFE70698F5
:1046A00000788006002849D5FFE70698806910B396
:1046B000FFE741F29801C4F20201086840F00100EE
:1046C0000860FEF719FE0590FFE741F29800C4F27A
:1046D00002000068800700280CD4FFE7FEF70CFEFC
:1046E0000599401A032804D3FFE703208DF81F0023
:1046F00041E1EAE721E041F29801C4F202010868D1
:1047000020F001000860FEF7F7FD0590FFE741F299
:104710009800C4F202000068800700280CD5FFE76B
:10472000FEF7EAFD0599401A032804D3FFE70320AA
:104730008DF81F001FE1EAE7FFE7FFE70698C06971
:10474000002800F01481FFE741F20800C4F20200E3
:10475000006800F00C000C2800F0B080FFE706981D
:10476000C06902287CD1FFE741F20001C4F20201D6
:10477000086820F080700860FEF7BEFD0590FFE736
:1047800041F20000C4F202000068800100280CD54C
:10479000FFE7FEF7B1FD0599401A032804D3FFE7B0
:1047A00003208DF81F00E6E0EAE741F20C01C4F2B5
:1047B0000201086848F20C02C0F29F121040DDF8B6
:1047C00018C0DCF82020DCF82450DCF828E0DCF805
:1047D0002C306FF00F0404EB0514224342EA0E2242
:1047E000DCF8304040F2000ECFF6E07E0EEA045EC8
:1047F000AEF5001E42EA0E02DCF834E04FF07E4CCB
:104800000CEA0E6C0CF17E4C42EA0C0242EAC362E6
:104810001043086041F20002C4F20202106840F046
:1048200080701060086840F080700860FEF764FDDA
:104830000590FFE741F20000C4F202000068800129
:1048400000280CD4FFE7FEF757FD0599401A03280E
:1048500004D3FFE703208DF81F008CE0EAE72CE08B
:1048600041F20001C4F20201086820F08070086083
:10487000FEF742FD0590FFE741F20000C4F202009E
:104880000068800100280CD5FFE7FEF735FD05998B
:10489000401A032804D3FFE703208DF81F006AE0C5
:1048A000EAE741F20C01C4F2020108684FF6FC721B
:1048B000CFF6EE6210400860FFE757E00698C06947
:1048C000012804D1FFE701208DF81F0053E041F2D9
:1048D0000C00C4F2020000680390039800F003008B
:1048E0000699096A88423BD1FFE7039800F0F0007F
:1048F00006994A6A6FF00F0101EB021188422FD12D
:10490000FFE7039800F4FE400699896AB0EB012F97
:1049100026D1FFE7039800F078400699C96AB0EB0A
:10492000C16F1DD1FFE7039800F4C00006990A6B20
:104930000021CFF6E07101EA0251A1F50011884291
:104940000ED1FFE7039800F0C06006994A6B4FF064
:104950007E4101EA026101F17E41884204D0FFE715
:1049600001208DF81F0006E0FFE7FFE7FFE70020CA
:104970008DF81F00FFE79DF81F0008B0B0BD0000D4
:104980004EF21001CEF20001086840F0020008600B
:10499000704700003021C4F20101086820F00100D6
:1049A0000860704781B000903021C4F201010868AE
:1049B00020F00200009A1043086001B07047000028
:1049C00080B582B00190019803F09CF902B080BDDF
:1049D0004EF21001CEF20001086820F002000860DB
:1049E00070470000FFE7FEE780B582B0ADF8060033
:1049F000ADF80410ADF80220ADF800302A2000F028
:104A0000CDFBBDF80600013080B200F0AFFBBDF871
:104A10000200013080B200F0A9FB2B2000F0BEFBA9
:104A2000BDF804001A3080B200F0A0FBBDF8000011
:104A30001A3080B200F09AFB2C2000F0AFFB02B0DD
:104A400080BD000080B582B0ADF80600ADF804105E
:104A5000ADF80220BDF80620BDF804301046194616
:104A6000FFF7C2FFBDF8020000F080FB02B080BD7E
:104A700080B584B084460698ADF80EC0ADF80C1031
:104A8000ADF80A20ADF80830ADF80600BDF80E000C
:104A9000BDF80C10BDF80A20013ABDF80830013B02
:104AA00092B29BB2FFF7A0FFBDF80C00ADF8040076
:104AB000FFE7BDF80400BDF8081088421EDAFFE7E2
:104AC000BDF80E00ADF80200FFE7BDF80200BDF82A
:104AD0000A1088420BDAFFE7BDF8060000F046FB3B
:104AE000FFE7BDF802000130ADF80200EDE7FFE797
:104AF000BDF804000130ADF80400DAE704B080BD71
:104B00007047000080B592B0FFF7FAFF43F600400F
:104B1000C4F2000001F0C4FA40F60040C4F6000000
:104B2000009004210C9100F0E1FF6420019000F05E
:104B300069FB00980C9901F067F8019800F062FB9E
:104B4000019800F05FFB112000F028FB7820109006
:104B500000F058FBB12000F021FB05200E9000F082
:104B600013FB3C20029000F00FFB029800F00CFBBE
:104B7000B22000F013FB0E9800F006FB029800F044
:104B800003FB029800F000FBB32000F007FB0E9837
:104B900000F0FAFA029800F0F7FA029800F0F4FA3E
:104BA0000E9800F0F1FA029800F0EEFA029800F088
:104BB000EBFAB42000F0F2FA032000F0E5FAC0208E
:104BC00000F0ECFAAB2000F0DFFA0B2000F0DCFA8A
:104BD0000C9800F0D9FAC12000F0E0FAC52004904A
:104BE00000F0D2FAC22000F0D9FA0D20059000F0B2
:104BF000CBFA0020119000F0C7FAC32000F0CEFAE3
:104C00008D20039000F0C0FA6A2000F0BDFAC420A5
:104C100000F0C4FA039800F0B7FAEE2000F0B4FAFE
:104C2000049800F0BBFA0F20099000F0ADFAE020E4
:104C300000F0B4FA0720089000F0A6FA0E2000F069
:104C4000A3FA0820069000F09FFA089800F09CFA5A
:104C500010200D9000F098FA089800F095FA0220C4
:104C6000079000F091FA089800F08EFA09200B9056
:104C700000F08AFA099800F087FA25200A9000F0DF
:104C800083FA36200F9000F07FFA119800F07CFA3A
:104C9000069800F079FA0C9800F076FA0D9800F07A
:104CA00073FAE12000F07AFA0A2000F06DFA059814
:104CB00000F06AFA069800F067FA089800F064FAC3
:104CC000099800F061FA089800F05EFA079800F081
:104CD0005BFA089800F058FA0B9800F055FA09981A
:104CE00000F052FA0A9800F04FFA352000F04CFA22
:104CF000119800F049FA0B9800F046FA0C9800F071
:104D000043FA0D9800F040FAFC2000F047FA8020AA
:104D100000F03AFA3A2000F041FA0E9800F034FA26
:104D20000F9800F03BFA109800F02EFA212000F0C6
:104D300035FA292000F032FA2A2000F02FFA1198D3
:104D400000F022FA1A2000F01FFA119800F01CFA65
:104D5000692000F019FA2B2000F020FA119800F0D9
:104D600013FA012000F010FA119800F00DFAA020BB
:104D700000F00AFA2C2000F011FA12B080BD0000F9
:104D8000B0B588B094468E4604460E980D990C9A9C
:104D9000ADF81E40ADF81CE08DF81BC0ADF8183022
:104DA000ADF816208DF815108DF814000020019034
:104DB0008DF81000BDF81E00ADF80A009DF8150032
:104DC00040088DF812009DF81220D008012101EB57
:104DD000D2015207002A18BF08469DF81510484313
:104DE000ADF80C009DF81B0020388DF81B00BDF8B5
:104DF0001E00BDF81C109DF812200244013A9DF8D7
:104E000015300B44013B92B29BB2FFF7EDFD0198C8
:104E1000ADF80E00FFE7BDF80E00BDF80C1088429B
:104E200080F2C180FFE79DF815000C2810D1FFE744
:104E30009DF81B0000EB400149F6D470C0F600005D
:104E400000EB8100BDF80E10405C8DF813003EE0D1
:104E50009DF8150010280ED1FFE79DF81B104AF2AF
:104E60004840C0F6000000EB0110BDF80E10405C99
:104E70008DF813002AE09DF81500182810D1FFE7DF
:104E80009DF81B0000EB40014AF63820C0F60000F8
:104E900000EB0110BDF80E10405C8DF8130014E01B
:104EA0009DF8150020280ED1FFE79DF81B104BF64A
:104EB0000840C0F6000000EB8110BDF80E10405C09
:104EC0008DF8130000E06EE0FFE7FFE7FFE700204A
:104ED0008DF81100FFE79DF8110007285CDCFFE763
:104EE0009DF8140030BBFFE79DF813009DF81110EA
:104EF000C840C00728B1FFE7BDF8180000F036F938
:104F000004E0BDF8160000F031F9FFE79DF810004D
:104F100001308DF810009DF810209DF81210B2FBA2
:104F2000F1F000FB112020B9FFE700208DF8100000
:104F300032E02AE09DF813009DF81110C840C00728
:104F400048B1FFE7BDF81E00BDF81C10BDF81820E1
:104F5000FFF778FDFFE7BDF81E000130ADF81E0039
:104F6000BDF81E00BDF80A10401A9DF812108842C4
:104F70000AD1FFE7BDF80A00ADF81E00BDF81C001D
:104F80000130ADF81C0007E0FFE7FFE79DF81100D6
:104F900001308DF811009EE7FFE7BDF80E000130EB
:104FA000ADF80E0037E708B0B0BD0000B0B58AB06C
:104FB00094468E46044610980F990E9AADF82640F6
:104FC000ADF824E0ADF822C08DF82130ADF81E20F8
:104FD000ADF81C108DF81B0000208DF818009DF80E
:104FE0001B1049088DF817108DF81A00FFE79DF87F
:104FF0001A009DF82110884275DAFFE7BDF82200FB
:1050000004909DF821109DF81A00C0430844C1B2D5
:105010000A2004F0BDFA01460498B0FBF1F049F60D
:105020009A11C1F69911A0FB012101EB8101A0EBBE
:1050300041008DF819009DF8180070BBFFE79DF83E
:105040001A009DF821100139884226DAFFE79DF801
:105050001900E8B9FFE7BDF826209DF81A009DF871
:10506000171010FB0120BDF82410BDF81E30BDF84C
:105070001C209DF81BE0EC460024CCF80840CCF83E
:1050800004E0CCF8002080B22022FFF779FE24E073
:1050900001208DF81800FFE7FFE7BDF826209DF8F6
:1050A0001A009DF8171010FB0120BDF824109DF880
:1050B00019203032BDF81E30BDF81CC09DF81B40D1
:1050C000EE460025CEF80850CEF80440CEF800C0D9
:1050D00080B2D2B2FFF754FEFFE79DF81A0001300C
:1050E0008DF81A0083E70AB0B0BD0000B0B588B0F3
:1050F00094468E4604460E980D990C9AADF81E40C3
:10510000ADF81CE0CDF818C0ADF81630ADF814209D
:105110008DF813108DF81200FFE70698007818B389
:10512000FFE7BDF81E00BDF81C10069A1278BDF806
:105130001630BDF814C09DF813409DF81250EE468D
:10514000CEF80850CEF80440CEF800C0FFF718FEA5
:105150009DF81310BDF81E0000EB5100ADF81E00C5
:10516000069801300690D8E708B0B0BD80B582B08F
:10517000ADF806009DF8070000F028F89DF806003D
:1051800000F024F802B080BD80B582B08DF8070031
:105190009DF8070000F01AF802B080BD80B584B019
:1051A0008DF80F0040F60000C4F6000001904FF4A7
:1051B0000061029100F09AFC9DF80F0000F006F8E3
:1051C0000198029900F020FD04B080BD80B582B046
:1051D0008DF80700FFE743F60040C4F2000000F03E
:1051E000CFFF08B9FFE7F6E79DF8071043F6004048
:1051F000C4F2000000F0FAFF042004F0BBF802B093
:1052000080BD000080B582B001900198FDF79EFE40
:1052100002B080BD81B00090009880684FF6C071E8
:10522000C7F6FF71084002300099886001B07047EE
:1052300081B00090009988684FF6C072C5F6FF7281
:105240001040886001B0704781B00090009880687D
:105250004FF6C071C7F6FF710840013000998860B1
:1052600001B0704781B000900098806840F0805095
:105270004FF6C071C7F6FF7108400099886001B011
:105280007047000081B000900098806800F0E070E6
:1052900001B0704781B000900098806800F01F0056
:1052A00001B0704783B0029001910298019900EB20
:1052B0008100603000900098006800F0F84003B072
:1052C0007047000081B0009000988068C0F3C00073
:1052D00001B0704781B0009000988068C00F01B0A5
:1052E0007047000081B0009000988068C0F3407063
:1052F00001B0704781B0009000988068C0F3400012
:1053000001B0704781B000900098806800F0010003
:1053100001B0704781B000900098806800F00100F3
:1053200001B0704781B0009000988068C0F30070B1
:1053300001B0704781B0009000988068C0F3800091
:1053400001B0704781B0009000988068C0F3800081
:1053500001B0704781B000900098C06800F44060D0
:10536000B0FA80F0400901B07047000084B00390AB
:10537000029101920398029901F4407100EB91109F
:105380003030009000980068029901F01F021F2140
:10539000914088430199C1F3846191400843009989
:1053A000086004B07047000081B0009000988068E9
:1053B0004FF6C071C7F6FF7108400430009988604D
:1053C00001B0704784B00390029101920398029952
:1053D00001F0007100EBD15014300090009800688B
:1053E0000299C1F3045207219140884301999140E9
:1053F00008430099086004B07047000083B0029031
:10540000019100920298D0F8B00001996FF3DF414A
:105410008843009A02F018034FF6FF72C0F20702A9
:10542000DA40114008440299C1F8B00003B0704757
:1054300082B0019000910198806820F47C1000995E
:1054400008430199886002B07047000082B0019063
:1054500000910198806820F0E0700099084301995C
:10546000886002B07047000085B0049003910292FA
:1054700001930498039900EB81006030009000983C
:1054800000684FF20001C0F2FF310140029800F0C5
:10549000F840019A1043084340F00040009908602A
:1054A00005B0704784B0039002910192039802996D
:1054B00000EB8100603000900098006820F00070E0
:1054C000019908430099086004B0704784B00390C4
:1054D000029101920398029900EB810060300090E4
:1054E0000098006820F080700199084300990860D6
:1054F00004B0704784B0039002910192039802991E
:1055000000EB8100603000900098006820F00040BF
:10551000019908430099086004B0704782B0019077
:1055200000910198406920F00040009908430199DA
:10553000486102B07047000082B00190009101986C
:1055400080684FF6C071C3F6FF710140009800F00B
:105550008040084400F100400199886002B0704723
:1055600082B00190019A41F24C00C4F2020001683D
:10557000114301600068019908400090009802B052
:105580007047000082B00190019A41F24C00C4F2D1
:105590000200016811430160006801990840009011
:1055A000009802B07047000082B00190019A41F269
:1055B0004C00C4F2020001681143016000680199C7
:1055C00008400090009802B07047000082B001903F
:1055D000019A41F24C00C4F20200016811430160DB
:1055E0000068019908400090009802B070470000E0
:1055F00082B00190019A41F25800C4F202000168A1
:10560000114301600068019908400090009802B0C1
:105610007047000082B00190019A41F25800C4F234
:105620000200016811430160006801990840009080
:10563000009802B07047000082B00190019A41F2D8
:105640006000C4F202000168114301600068019922
:1056500008400090009802B07047000082B00190AE
:10566000019A41F26000C4F2020001681143016036
:105670000068019908400090009802B0704700004F
:1056800082B00190019A41F26000C4F20200016808
:10569000114301600068019908400090009802B031
:1056A0007047000081B00090009A40F20441C4F2BB
:1056B000010108689043086001B0704781B0009014
:1056C000009A40F22441C4F2010108689043086046
:1056D00001B0704781B00090009A40F20C41C4F2D2
:1056E000010108689043086001B0704781B00090E4
:1056F000009A40F22C41C4F201010868904308600E
:1057000001B0704781B00090009A40F20041C4F2AD
:10571000010108689043086001B0704781B00090B3
:10572000009A40F22041C4F20101086890430860E9
:1057300001B0704781B00090009A40F20841C4F275
:10574000010108689043086001B0704781B0009083
:10575000009A40F22841C4F20101086890430860B1
:1057600001B0704781B00090009A40F20441C4F249
:10577000010108681043086001B0704781B00090D3
:10578000009A40F22441C4F2010108681043086005
:1057900001B0704781B00090009A40F20C41C4F211
:1057A000010108681043086001B0704781B00090A3
:1057B000009A40F22C41C4F20101086810430860CD
:1057C00001B0704781B00090009A40F20041C4F2ED
:1057D000010108681043086001B0704781B0009073
:1057E000009A40F22041C4F20101086810430860A9
:1057F00001B0704781B00090009A40F20841C4F2B5
:10580000010108681043086001B0704781B0009042
:10581000009A40F22841C4F2010108681043086070
:1058200001B0704780B586B00590002004900598BF
:10583000007A002800F0D080FFE705980068002873
:1058400061D0FFE70598407A0146039140B1FFE738
:10585000039801280DD0FFE70398022812D01AE020
:1058600005980068FFF71EFF05980068FFF7AAFF7C
:1058700014E005980068FFF745FF05980068FFF7FA
:1058800071FF0BE005980068FFF79CFF0598006822
:10589000FFF768FF02E001200490FFE70598807A97
:1058A00080B3FFE70598807A01460291012808D06D
:1058B000FFE7029802280DD0FFE70298032812D0D4
:1058C0001AE005980068FFF705FF05980068FFF7E4
:1058D00091FF16E005980068FFF72CFF0598006817
:1058E000FFF758FF0DE005980068FFF783FF059864
:1058F0000068FFF74FFF04E0049840F002000490B6
:10590000FFE7FFE7FFE705984068002863D0FFE75F
:105910000598407A0146019140B1FFE701980128BE
:105920000DD0FFE70198022812D01AE005984068D0
:10593000FFF7C4FE05984068FFF750FF16E0059892
:105940004068FFF7EBFE05984068FFF717FF0DE092
:1059500005984068FFF742FF05984068FFF70EFF83
:1059600004E0049840F004000490FFE70598807A72
:1059700080B3FFE70598807A01460091012808D09E
:10598000FFE7009802280DD0FFE70098032812D007
:105990001AE005984068FFF7A9FE05984068FFF7F0
:1059A00035FF16E005984068FFF7D0FE059840687F
:1059B000FFF7FCFE0DE005984068FFF727FF05980C
:1059C0004068FFF7F3FE04E0049840F005000490FF
:1059D000FFE7FFE7FFE710E005980068FFF792FE9A
:1059E00005980068FFF75EFE05984068FFF796FE91
:1059F00005984068FFF762FEFFE7049806B080BD97
:105A000080B586B0039002910298006890FAA0F0E9
:105A10000490049820B9FFE720208DF8170005E0D6
:105A20000498B0FA80F08DF81700FFE79DF8170092
:105A30000190FFE7029800680199C84000284AD009
:105A4000FFE702980068019A012191400840009008
:105A50000098E0B3FFE702984068012805D0FFE70F
:105A60000298406802280DD1FFE703980099029A36
:105A7000926800F05DF90398029A1168D26800F00C
:105A800009F9FFE703980099029A126900F012F9E8
:105A900002984068022813D1FFE70098FF2807D832
:105AA000FFE703980099029A526900F027F806E090
:105AB00003980099029A526900F05EF8FFE7FFE749
:105AC00003980099029A526800F0A6F8FFE701983F
:105AD00001300190AEE7002006B080BD82B0019099
