:020000040800F2
:10000000182C0020B1020008E56B0008B14A000876
:10001000E16B0008290A0008E97A000800000000E6
:10002000000000000000000000000000616D0008FA
:100030006D0B000800000000C16C0008B96D0008DD
:10004000CB020008CB020008CB020008CB0200085C
:10005000CB020008CB020008CB020008CB0200084C
:10006000CB020008CB020008CB0200082D0A0008D2
:100070003D0A0008CB020008CB020008CB020008B2
:10008000CB020008CB020008CB020008CB0200081C
:10009000CB020008CB020008CB020008CB0200080C
:1000A000CB020008CB020008CB020008CB020008FC
:1000B000516E0008CB020008CB020008CB020008FA
:1000C000CB020008CB020008CB020008CB020008DC
:1000D000CB020008D97A0008CB020008CB02000846
:1000E000CB020008CB020008CB020008CB020008BC
:1000F000CB020008CB020008CB020008CB020008AC
:10010000CB020008CB020008CB020008CB0200089B
:10011000CB020008CB020008CB020008CB0200088B
:10012000CB020008CB020008CB020008CB0200087B
:10013000CB020008CB020008CB020008CB0200086B
:10014000CB020008CB020008CB0200080000000030
:10015000000000000000000000000000000000009F
:10016000000000000000000000000000CB020008BA
:10017000CB020008CB020008CB020008CB0200082B
:10018000CB020008CB020008CB020008CB0200081B
:10019000CB02000800000000CB020008CB020008E0
:1001A000CB020008CB020008CB020008CB020008FB
:1001B000CB020008CB020008CB020008CB020008EB
:1001C000CB020008CB020008CB020008CB020008DB
:1001D000CB020008CB02000800F002F800F058F84B
:1001E00014A696E8000CB244B344DA4501D100F0FD
:1001F0004FF8BAE80F000FA696E83000A5EB04050B
:1002000004EB0607AAEB0704A7F101074FEA15154F
:100210004FEA3414A4F10104AC4201D300F038F8E1
:1002200013F0010F18BFFB1A43F0010300F001F8AF
:10023000DBE71847C4900000E4900000103A24BFA8
:1002400078C878C1FAD8520724BF30C830C144BF3B
:1002500004680C6070470000704700000023002411
:1002600000250026103A28BF78C1FBD8520728BFC6
:1002700030C148BF0B6070471FB509F00FF89DE80B
:10028000030000F05FF900F0D5F81FBD10B510BDF8
:1002900000F092F91146FFF7EFFF08F03BFF00F086
:1002A000CAF903B4FFF7F2FF03BC00F0D5F9000070
:1002B0000948804709480047FEE7FEE7FEE7FEE7FA
:1002C000FEE7FEE7FEE7FEE7FEE7FEE70448054936
:1002D000054A064B704700003D6E0008D901000832
:1002E000181E0020182C002018240020182400209C
:1002F00053EA020C00F069802DE9F04B4FF0000644
:10030000002B1FBFB3FA83F503FA05F424FA05F6B0
:100310005E4012BF1643B2FA82F502FA05F4C5F147
:1003200020051EBF22FA05FC44EA0C04203556EADB
:10033000044C4FEA144418BF641C4FF000084FF0FF
:100340000009904271EB030C39D3002919BFB1FAAF
:1003500081F701FA07F6B0FA80F700FA07F6C7F15D
:1003600020071EBF20FA07FC46EA0C062037B6FB22
:10037000F4FCA7EB0507103F07F01F0BCBF120069D
:100380002CFA06F60CFA0BFB44BFB3460026202FCE
:10039000A4BF5E464FF0000B5BEA060C08BF4FF0AF
:1003A000010B19EB0B0948EB0608ABFB027C06FBC3
:1003B00002CC0BFB03CCC01B71EB0C01C1E70B465D
:1003C000024641464846BDE8F08B13B5084318BFC6
:1003D0004FF0FF300146AFF30080BDE81C4070478E
:1003E0004FF0000200B5134694469646203922BFCE
:1003F000A0E80C50A0E80C50B1F12001BFF4F7AF19
:10040000090728BFA0E80C5048BF0CC05DF804EBFA
:10041000890028BF40F8042B08BF704748BF20F868
:10042000022B11F0804F18BF00F8012B7047704766
:100430007047704708487CB5784400900748784476
:10044000009C0546019004E020460168084480476E
:10045000241DAC42F8D17CBDDC8E0000DA8E000099
:1004600070B5064600F052F8056806F10B0020F062
:100470000704B4429CBF002070BD2B466A68BAB125
:100480001068A04210D304F1080188423CBF5068B4
:10049000586007D35168101941601168091B016049
:1004A00058601460101D70BD13465268002AE7D1D1
:1004B0002146284600F032F80028DED170BD70B524
:1004C0000446051F00F022F80068002C14BF4468A1
:1004D00070BD002C18BFAC423CBF20466468F8D306
:1004E00001680A18AA4218BF456003D12A68054668
:1004F0001144016028684119A1421CBF6C6070BDA5
:100500006168696021680844286070BD00487047D0
:1005100018000020704770477047704738B5044690
:100520000A4600206946AFF30080002808BF38BDA6
:1005300002460099204600F064F8012038BD0120F1
:1005400000F082B8F8B5AFF30080054600200C46F5
:100550000C2000BF0646A819A0420DD932466946B4
:100560000020AFF30080070008BF00F06DF800988E
:10057000A04218BF0546C419FFF7C8FF056007462B
:10058000F01D20F007004619284600F00AF8B44292
:1005900008BFF8BDA21B31463868BDE8F84000F03E
:1005A00030B800210160416070470C2070470000A6
:1005B00000487047100000207546FFF7F9FFAE466F
:1005C00005006946534620F00700854618B020B55F
:1005D000FFF77CFEBDE820404FF000064FF000071B
:1005E0004FF000084FF0000BAC46ACE8C009ACE897
:1005F000C009ACE8C009ACE8C00921F007018D468C
:100600007047034640688C46002818BF88423CBFAC
:1006100003464068F8D318681844884207D00CF1A4
:10062000030020F00700001D411A521A0146081D60
:100630000A60FFF744BF10B50446AFF300802046C0
:10064000BDE81040FFF72DBE10B500F011F8BDE871
:10065000104000F008B8000001491820ABBEFEE7CA
:10066000260002007047002801D0FFF7F5BF704751
:1006700010B5012805D0002103A000F021F80120C9
:1006800010BD09A1F8E7000053494752544D454DAC
:100690003A204F7574206F662068656170206D6523
:1006A0006D6F7279000000003A2048656170206D1E
:1006B000656D6F727920636F727275707465640016
:1006C00070B505460C460A2000E06D1C00F011F8DC
:1006D00035B128780028F8D102E0641C00F009F850
:1006E00014B120780028F8D1BDE870400A20AFF39B
:1006F000008008B569468DF800000320ABBE08BD38
:1007000080B582B001900198806A00900098C06D19
:1007100010F0500F4BD1FFE70099C86D40F4007006
:10072000C8650098006800680007002821D5FFE729
:100730000098006804F02EFFD0B1FFE70098006831
:10074000C0688004002812D4FFE70099C86D20F427
:100750008070C8650098C06DC004002806D4FFE70B
:100760000099C86D40F00100C865FFE7FFE7FFE7AB
:1007700019E000980068C0688007002812D4FFE7DD
:100780000099C86D20F48070C8650098C06DC004E1
:10079000002806D4FFE70099C86D40F00100C86545
:1007A000FFE7FFE7FFE7009801F050F810E000983E
:1007B000C06DC006002804D5FFE7009801F04EF890
:1007C00005E00098406D416B01988847FFE7FFE71F
:1007D00002B080BD80B582B001900198806A00901F
:1007E0000099C86D40F04000C8650099086E40F05F
:1007F00004000866009801F031F802B080BD0000E6
:1008000080B582B001900198806A0090009801F054
:1008100021F802B080BD000080B584B0029002983B
:10082000006804F087FE00900298006804F08AFED9
:1008300000284BD0FFE70098002847D1FFE7029837
:100840000068806800F00D00012809D1FFE70298D8
:10085000006804F0FFFD02980168032008600DE0C5
:100860000299C86D40F01000C8650299086E40F00A
:100870000100086601208DF80F002BE002F014F94A
:100880000190FFE7029800688068C007E8B1FFE7C1
:1008900002F00AF90199401A032815D3FFE70298DC
:1008A00000688068C00770B1FFE70299C86D40F02A
:1008B0001000C8650299086E40F00100086601202A
:1008C0008DF80F0006E0FFE7DCE7FFE700208DF87A
:1008D0000F00FFE79DF80F0004B080BD80B586B023
:1008E0000490002002900498006804F02BFE002879
:1008F00040F09280FFE70498006880683F21C8F2CA
:10090000000108420ED0FFE70499C86D40F01000C6
:10091000C8650499086E40F00100086601208DF852
:1009200017007DE00498006804F0AEFD04980168AB
:100930000120B1F1A04F01900CD0FFE704980068AE
:100940004FF60071CAF6FF710844B0FA80F0400912
:100950000190FFE70198C10740F20070C5F2000066
:1009600000291CBF40F20030C5F2000004F0AAFDCF
:100970004FEA002000281CD5FFE740F20000C2F239
:1009800000000068800942F66351C0F23E51A0FBAE
:100990000110800900EB40010C2000EB8100029067
:1009A000FFE7029820B1FFE7029801380290F8E7CC
:1009B000FFE702F079F80390FFE704980068006809
:1009C000C00740BBFFE70498006804F0BBFD28B9EE
:1009D000FFE70498006804F057FDFFE702F064F8B1
:1009E0000399401A032815D3FFE7049800680068AC
:1009F000C00770B9FFE70499C86D40F01000C865E2
:100A00000499086E40F00100086601208DF8170077
:100A100006E0FFE7D1E7FFE700208DF81700FFE7CA
:100A20009DF8170006B080BDFFE7FEE780B541F2F4
:100A30009C40C2F2000001F08BFC80BD80B541F209
:100A4000FC40C2F2000001F083FC80BD84B0039042
:100A50000398006840F20741C4F20201884206D8B8
:100A6000FFE740F60000C4F20200009005E040F607
:100A70002000C4F202000090FFE700980290039863
:100A8000007808384CF6CD41CCF6CC41A0FB0110E3
:100A900000090190029803994A6C22F00302104465
:100AA0008864039940F68000C4F20200C86401988B
:100AB00000F01F01012088400399086504B07047C9
:100AC00082B00190019800790090009940F6FC00F6
:100AD000C4F2020000EB810001994865019940F6DB
:100AE0004010C4F2020088650098013800F01F0130
:100AF000012088400199C86502B0704784B0039016
:100B00000291019200930398C16C006D48600398B4
:100B1000406D28B1FFE70398816DC06D4860FFE725
:100B20000398016C406C00F01F0201209040486067
:100B3000009803990968486003988068102809D1D3
:100B4000FFE701980399096888600298039909688A
:100B5000C86008E0029803990968886001980399C1
:100B60000968C860FFE704B07047000070470000E4
:100B700081B0EFF3108072B60090FFE7FEE700004F
:100B800080B586B00490039100200190FFE704989F
:100B900090F85800012804D1FFE702208DF81700D3
:100BA0005AE00499012081F85800FFE7FFE7049814
:100BB000FFF732FE8DF80B009DF80B00D8BBFFE766
:100BC0000498C06D40F0020020F488500499C86574
:100BD00004980068039904F0CFFDFFE704980068CB
:100BE00004F098FCF0B1FFE7019801300190019802
:100BF0004DF60261C0F20401884212D3FFE7049867
:100C0000C06D40F0100020F002000499C865FFE7B5
:100C10000499002081F85800FFE701208DF81700A3
:100C20001AE0DBE70498C06D40F0010020F00200FC
:100C30000499C86505E00499C86D40F01000C865C6
:100C4000FFE7FFE70499002081F85800FFE79DF8CF
:100C50000B008DF81700FFE79DF8170006B080BD68
:100C600080B5AEB02C902B9100208DF8AB002B9866
:100C7000006808B1FFE7FFE7FFE72C9890F85800FD
:100C8000012804D1FFE702208DF8B7005DE12C991F
:100C9000012081F85800FFE7FFE70020259026900B
:100CA0002C980068B0F1A04F06D1FFE740F2001089
:100CB000C5F200000E9015E02C98006840F200414B
:100CC000C5F20001884207D1FFE740F20050C5F2AB
:100CD00000000E900C9003E000200E900C90FFE7B7
:100CE0000C98FFE70E9878B9FFE72C99C86D40F093
:100CF0002000C865FFE72C99002081F85800FFE725
:100D000001208DF8B70020E10E9804F03BFC0D9017
:100D10002C98006804F036FC002840F00281FFE7C0
:100D20000D98002840F0FD80FFE72C980168012015
:100D3000B1F1A04F0B900CD0FFE72C9800684FF654
:100D40000071CAF6FF710844B0FA80F040090B90B8
:100D5000FFE70B98C10740F20070C5F200000029C0
:100D60001CBF40F20030C5F2000029902B980068AB
:100D7000002872D0FFE72998806820F460402B9902
:100D800049682C9A92F8382041EA4231084329995F
:100D900088602C9801680120B1F1A04F0A900CD016
:100DA000FFE72C9800684FF60071CAF6FF710844FF
:100DB000B0FA80F040090A90FFE70A98C10740F2B4
:100DC0000070C5F2000000291CBF40F20030C5F2DF
:100DD000000040F20031C5F20001884210D1FFE767
:100DE0004FF0A04004F0B6FB089040F20010C5F2AE
:100DF000000004F0AFFB01460898084309901BE08F
:100E000040F20040C5F2000004F0A4FB069040F25E
:100E10000050C5F2000004F09DFB0146069808430F
:100E2000079040F20060C5F2000004F093FB014619
:100E3000079808430990FFE7099868B9FFE72998E0
:100E4000806840F61F7188432B9A1168926811439D
:100E5000084329998860FFE762E02999886820F4AF
:100E6000604088602C9801680120B1F1A04F059086
:100E70000CD0FFE72C9800684FF60071CAF6FF719E
:100E80000844B0FA80F040090590FFE70598C107D3
:100E900040F20070C5F2000000291CBF40F2003093
:100EA000C5F2000040F20031C5F20001884210D1C5
:100EB000FFE74FF0A04004F04DFB039040F200101C
:100EC000C5F2000004F046FB014603980843049075
:100ED0001BE040F20040C5F2000004F03BFB019033
:100EE00040F20050C5F2000004F034FB01460198C6
:100EF0000843029040F20060C5F2000004F02AFBB3
:100F00000146029808430490FFE7049838B9FFE7C8
:100F10002999886840F61F7290438860FFE7FFE7D1
:100F200008E02C99C86D40F02000C86501208DF8BC
:100F3000AB00FFE7FFE72C99002081F85800FFE79E
:100F40009DF8AB008DF8B700FFE79DF8B7002EB015
:100F500080BD000080B5C4B02490239100208DF89E
:100F60008B001F902398C0680021C4F27F01884243
:100F700001D0FFE700E0FFE7FFE7249890F8580072
:100F8000012805D1FFE702208DF8970000F059BC39
:100F90002499012081F85800FFE7FFE724980068B2
:100FA00004F0E8FA002840F03884FFE7249800684D
:100FB00023990A68496804F0F9FA2498006804F053
:100FC000D9FA1E902498006804F09CFA1D901E988F
:100FD000002840F0B881FFE71D98002840F0B38159
:100FE000FFE723988068B0F1004F0ED1FFE7249807
:100FF000006823990968002204F004FB2498006823
:101000004FF0004104F0AAFB0CE024980068239AFA
:101010001168926804F0F6FA24980068002104F040
:101020009DFBFFE72398406924990968C96801F08E
:1010300018018908884021902398006904281CD051
:10104000FFE72498006823990A680969219B04F046
:101050002BFB24980068239A1169926904F056FBCF
:1010600024980068239A1169127F013AB2FA82F239
:101070005209520604F036FB64E12498006800210E
:1010800004F030FA400348B9FFE7249800680021D3
:1010900004F028FAC0F384601C9018E024980068DB
:1010A000002104F01FFA90FAA0F04290429820B973
:1010B000FFE720208DF80F0105E04298B0FA80F09C
:1010C0008DF80F01FFE79DF80F011C90FFE71C98BA
:1010D0001B9023980068400330B9FFE7239800680D
:1010E000C0F384601A9015E02398006890FAA0F08D
:1010F0004090409820B9FFE720208DF8070105E0D7
:101100004098B0FA80F08DF80701FFE79DF80701DD
:101110001A90FFE71B981A99884207D1FFE7249895
:1011200000680022114604F005FBFFE724980068E0
:10113000012104F0D7F9400348B9FFE7249800687B
:10114000012104F0CFF9C0F38460199018E02498CD
:101150000068012104F0C6F990FAA0F03E903E9894
:1011600020B9FFE720208DF8FF0005E03E98B0FA97
:1011700080F08DF8FF00FFE79DF8FF001990FFE772
:101180001998189023980068400330B9FFE7239816
:101190000068C0F38460179015E02398006890FA07
:1011A000A0F03C903C9820B9FFE720208DF8F70094
:1011B00005E03C98B0FA80F08DF8F700FFE79DF865
:1011C000F7001790FFE718981799884207D1FFE7B3
:1011D000249800680121002204F0ACFAFFE724986B
:1011E0000068022104F07EF9400348B9FFE7249823
:1011F0000068022104F076F9C0F38460169018E0CC
:1012000024980068022104F06DF990FAA0F03A9059
:101210003A9820B9FFE720208DF8EF0005E03A98D2
:10122000B0FA80F08DF8EF00FFE79DF8EF00169020
:10123000FFE71698159023980068400330B9FFE740
:1012400023980068C0F38460149015E02398006828
:1012500090FAA0F03890389820B9FFE720208DF858
:10126000E70005E03898B0FA80F08DF8E700FFE776
:101270009DF8E7001490FFE715981499884207D16C
:10128000FFE7249800680221002204F053FAFFE7E8
:1012900024980068032104F025F9400348B9FFE7CA
:1012A00024980068032104F01DF9C0F384601390B2
:1012B00018E024980068032104F014F990FAA0F0D3
:1012C0003690369820B9FFE720208DF8DF0005E042
:1012D0003698B0FA80F08DF8DF00FFE79DF8DF0068
:1012E0001390FFE71398129023980068400330B9D9
:1012F000FFE723980068C0F38460119015E02398FD
:10130000006890FAA0F03490349820B9FFE72020CC
:101310008DF8D70005E03498B0FA80F08DF8D7004A
:10132000FFE79DF8D7001190FFE7129811998842C6
:1013300007D1FFE7249800680321002204F0FAF99E
:10134000FFE7FFE7FFE72498006804F0FBF80028B8
:1013500040F04481FFE724980068239A1168D2681E
:1013600004F06CF92398C0680021C4F27F01884220
:1013700040F03381FFE724980068109023980068BC
:10138000400330B9FFE723980068C0F384600F90F2
:1013900015E02398006890FAA0F03290329820B9B6
:1013A000FFE720208DF8CF0005E03298B0FA80F0FA
:1013B0008DF8CF00FFE79DF8CF000F90FFE70F9863
:1013C000013000F01F0009287DD8FFE7239800684E
:1013D000400330B9FFE723980068C0F384600E90A3
:1013E00015E02398006890FAA0F03090309820B96A
:1013F000FFE720208DF8C70005E03098B0FA80F0B4
:101400008DF8C700FFE79DF8C7000E90FFE70E9824
:10141000013000F01F0080060D9023980068400303
:1014200030B9FFE723980068C0F384600C9015E0A2
:101430002398006890FAA0F02E902E9820B9FFE72C
:1014400020208DF8BF0005E02E98B0FA80F08DF8CE
:10145000BF00FFE79DF8BF000C90FFE70D980C99C7
:10146000013101F01F020121914008430B902398A4
:101470000068400330B9FFE723980068C0F3846038
:101480000A9015E02398006890FAA0F02C902C9810
:1014900020B9FFE720208DF8B70005E02C98B0FABE
:1014A00080F08DF8B700FFE79DF8B7000A90FFE7DE
:1014B0000B980A99013101F01F0101EB410140EA4B
:1014C0000150099082E023980068400330B9FFE79B
:1014D00023980068C0F38460089015E023980068A2
:1014E00090FAA0F02A902A9820B9FFE720208DF8E2
:1014F000AF0005E02A98B0FA80F08DF8AF00FFE762
:101500009DF8AF000890FFE70898013000F01F0039
:101510008006079023980068400330B9FFE72398BE
:101520000068C0F38460069015E02398006890FA84
:10153000A0F02890289820B9FFE720208DF8A70078
:1015400005E02898B0FA80F08DF8A700FFE79DF835
:10155000A7000690FFE707980699013101F01F02E6
:10156000012191400843059023980068400330B959
:10157000FFE723980068C0F38460049015E0239887
:10158000006890FAA0F02690269820B9FFE7202066
:101590008DF89F0005E02698B0FA80F08DF89F0046
:1015A000FFE79DF89F000490FFE70599049801303C
:1015B00000F01F0000EB40020020CFF6206000EB9F
:1015C0000250084340F000700990FFE71098099915
:1015D000239A926804F016F8FFE7FFE72398408803
:1015E00048F20801084200F01781FFE724980168DB
:1015F0000120B1F1A04F03900CD0FFE724980068C0
:101600004FF60071CAF6FF710844B0FA80F0400945
:101610000390FFE70398C10740F20070C5F2000095
:1016200000291CBF40F20030C5F2000003F04AFF61
:1016300020902398006840F20001CCF221318842CA
:1016400008D0FFE7239800681021C9F2C001884242
:101650005AD1FFE79DF882000006002854D4FFE726
:1016600024980068B0F1A04F09D0FFE724980068E3
:1016700040F20061C5F20001884244D1FFE724989E
:1016800001680120B1F1A04F02900CD0FFE724982F
:1016900000684FF60071CAF6FF710844B0FA80F096
:1016A00040090290FFE70298C10740F20070C5F2BE
:1016B000000000291CBF40F20030C5F20000209954
:1016C00041F4000103F0E2FF40F20000C2F200002A
:1016D00000684FEA901042F66351C0F23E51A0FB01
:1016E00001104FEA901000EB40014FF00C0000EBAE
:1016F00081001F90FFE71F9820B1FFE71F98013876
:101700001F90F8E7FFE786E0239800680021CCF2FD
:10171000527188423ED1FFE79DF88300C007C8BBE5
:10172000FFE72498006840F20011C5F200018842EA
:1017300009D1FFE72498006840F20051C5F200018A
:10174000884226D0FFE7249801680120B1F1A04F1C
:1017500001900CD0FFE7249800684FF60071CAF69C
:10176000FF710844B0FA80F040090190FFE701984A
:10177000C10740F20070C5F2000000291CBF40F212
:101780000030C5F20000209941F0807103F07EFF27
:10179000FFE73FE0239800680021CCF684318842BF
:1017A00036D1FFE79DF882004006002830D4FFE7DD
:1017B0002498006840F20011C5F20001884226D04A
:1017C000FFE7249801680120B1F1A04F00900CD0F0
:1017D000FFE7249800684FF60071CAF6FF710844CD
:1017E000B0FA80F040090090FFE70098C10740F28E
:1017F0000070C5F2000000291CBF40F20030C5F2A5
:101800000000209941F4800103F040FFFFE700E071
:10181000FFE7FFE7FFE7FFE708E02499C86D40F026
:101820002000C86501208DF88B00FFE7FFE72499B1
:10183000002081F85800FFE79DF88B008DF8970095
:10184000FFE79DF8970044B080BD000081B0009094
:1018500001B0704781B0009001B0704781B0009036
:1018600001B0704780B58EB00C9000208DF82F002D
:1018700007900C9820B9FFE701208DF83700DCE1D4
:101880000C98406940B1FFE70C9890F824000128BB
:1018900001D1FFE7FFE7FFE70C98C06D50B9FFE704
:1018A0000C9800F0CFF90C99002008660C9981F88B
:1018B0005800FFE70C98006803F034FE28B1FFE7FA
:1018C0000C98006803F0D4FDFFE70C98006803F063
:1018D00049FEF0B9FFE70C98006803F0E3FD40F221
:1018E0000000C2F200000068800942F66351C0F2B5
:1018F0003E51A0FB01108109022000EB410007903E
:10190000FFE7079820B1FFE7079801380790F8E74D
:10191000FFE70C98006803F025FE70B9FFE70C990B
:10192000C86D40F01000C8650C99086E40F00100C9
:10193000086601208DF82F00FFE70C98006803F07F
:1019400019FE09900C98C06DC006002800F167814F
:10195000FFE70998002840F06281FFE70C98C06D0E
:1019600040F0020020F480700C99C8650C98006863
:1019700003F0E8FD00287CD1FFE70C980168012006
:10198000B1F1A04F06900CD0FFE70C9800684FF61D
:101990000071CAF6FF710844B0FA80F04009069061
:1019A000FFE70698C10740F20070C5F20000002969
:1019B0001CBF40F20030C5F2000040F20031C5F219
:1019C0000001884210D1FFE74FF0A04003F0BAFDBC
:1019D000049040F20010C5F2000003F0B3FD014690
:1019E0000498084305901BE040F20040C5F2000057
:1019F00003F0A8FD029040F20050C5F2000003F091
:101A0000A1FD014602980843039040F20060C5F230
:101A1000000003F097FD0146039808430590FFE797
:101A2000059828BBFFE70C9801680120B1F1A04F91
:101A300001900CD0FFE70C9800684FF60071CAF6D1
:101A4000FF710844B0FA80F040090190FFE7019867
:101A5000C10740F20070C5F2000000291CBF40F22F
:101A60000030C5F200000C99496803F001FEFFE761
:101A7000FFE70C994A7FC86B40EA42308A68CB681E
:101A80001843104391F8241040EA01400A900C9842
:101A900090F8240001280BD1FFE70C98816A002000
:101AA000CFF6FE7000EB41410A9808430A90FFE729
:101AB0000C98C06A50B1FFE70C99C86A096B00F432
:101AC000787001430A9808430A90FFE70C98006871
:101AD000C06844F20701CFF6F07108400A99084344
:101AE0000C990968C8600C980068006920F0406093
:101AF0000C9A1168526B104308610C98006803F04F
:101B000001FD08900998002868D1FFE7089800288F
:101B100064D1FFE70C99087F91F83810800340EA00
:101B200041000A900C980068C06844F202018843A2
:101B30000A9908430C990968C8600C980069A0B11B
:101B4000FFE70C980168086940F4803008610C9840
:101B50000068D0F8C00043F6FF7188430C9A116802
:101B600012691043C1F8C00011E00C9801680869BF
:101B700020F4803008610C980068D0F8C00043F66B
:101B8000FF7188430C990968C1F8C000FFE70C9801
:101B900090F84000012819D1FFE70C98006800690F
:101BA00040F2FD7120EA01020C9B1968586CD3F8D1
:101BB00048E0D3F84CC040EA0E0040EA0C001B6D30
:101BC0001843104340F00100086106E00C980168DA
:101BD000086920F001000861FFE7FFE70C98406901
:101BE00001280CD1FFE70C980068006B20F00F0073
:101BF0000C9A1168126A013A1043086306E00C98C7
:101C00000168086B20F00F000863FFE70C98C06DB7
:101C100040F0010020F002000C99C86508E00C9922
:101C2000C86D40F01000C86501208DF82F00FFE757
:101C30009DF82F008DF83700FFE79DF837000EB0B4
:101C400080BD000080B5A2B02190002020901F90A0
:101C50001E901D901C9007A85421FEF7C1FB2198EF
:101C60000068B0F1A04F40F08280FFE74FF40040E1
:101C700007904FF00050189007A801F025F918B10F
:101C8000FFE7FEF775FFFFE7FFE741F24C00C4F204
:101C90000200016841F400510160006800F4005046
:101CA00006900698FFE7FFE741F24C00C4F20200FD
:101CB000016841F001010160006800F00100059039
:101CC0000598FFE7FFE741F24C00C4F2020001680B
:101CD00041F002010160006800F0020004900498E5
:101CE000FFE704201C90032000901D90002002902C
:101CF0001E904FF090401CA9019100F021FD009A28
:101D00000199029845F601031C931D921E9040F222
:101D10000040C4F6000000F013FD029941F29C401F
:101D2000C2F2000003900822C4F2020202600522FF
:101D300042608160C160802202614FF48072426122
:101D40004FF480628261C161016200F0ADFB18B1A5
:101D5000FFE7FEF70DFFFFE7FFE7219841F29C4107
:101D6000C2F20001416521988862FFE7FFE722B0D7
:101D700080BD000080B58CB00A900A9801680120EF
:101D8000B1F1A04F06900CD0FFE70A9800684FF61B
:101D90000071CAF6FF710844B0FA80F0400906905D
:101DA000FFE70698C10740F20070C5F20000002965
:101DB0001CBF40F20030C5F2000003F08BFB07901F
:101DC0000A98006803F0D6FB002840F0FE80FFE789
:101DD000FFE70A9890F85800012804D1FFE7022095
:101DE0008DF82F00FAE00A99012081F85800FFE7EA
:101DF000FFE70A98FEF772FD8DF827009DF827008F
:101E0000002840F0DA80FFE70A98C06D40F4807047
:101E100040F6016188430A99C8650A98006840F253
:101E20000011C5F20001884204D1FFE74FF0A04045
:101E3000059015E00A98006840F20051C5F20001D3
:101E4000884206D1FFE740F20040C5F2000004904E
:101E500003E00A9800680490FFE704980590FFE704
:101E600005980A990968884203D0FFE7079830B9B6
:101E7000FFE70A99C86D20F48010C865FFE70A984B
:101E8000C06DC004002806D5FFE70A99086E20F04F
:101E90000600086603E00A9900200866FFE70A9832
:101EA00001681C200860FFE70A99002081F85800AB
:101EB000FFE70A98006840F20011C5F2000188426D
:101EC00004D1FFE74FF0A040039015E00A980068A6
:101ED00040F20051C5F20001884206D1FFE740F20E
:101EE0000040C5F20000029003E00A9800680290EA
:101EF000FFE702980390FFE703980A990968884270
:101F00000BD0FFE7079840B1FFE70798052804D0FA
:101F1000FFE70798092815D1FFE70A980068C0680D
:101F20008001002809D5FFE70A98C06D40F4805071
:101F300020F400500A99C865FFE70A98006803F08A
:101F400053FB39E00A99C86D40F48010C8650A98BF
:101F5000006840F20011C5F20001884204D1FFE799
:101F60004FF0A040019015E00A98006840F200513F
:101F7000C5F20001884206D1FFE740F20040C5F2F9
:101F80000000009003E00A9800680090FFE70098C6
:101F90000190FFE7019808900898C0688001002828
:101FA00009D5FFE70A98C06D40F4805020F4005036
:101FB0000A99C865FFE7FFE706E0FFE70A990020F6
:101FC00081F85800FFE7FFE703E002208DF82700C3
:101FD000FFE79DF827008DF82F00FFE79DF82F0001
:101FE0000CB080BD80B58AB0089007910692089821
:101FF00001680120B1F1A04F03900CD0FFE70898D1
:1020000000684FF60071CAF6FF710844B0FA80F01C
:1020100040090390FFE70398C10740F20070C5F242
:10202000000000291CBF40F20030C5F2000003F0A0
:1020300051FA04900898006803F09CFA002840F0D8
:10204000CA80FFE7FFE7089890F85800012804D1FC
:10205000FFE702208DF82700C6E00899012081F8EB
:102060005800FFE7FFE70898006840F20061C5F2FA
:10207000000188420CD0FFE7049848B1FFE70498BC
:10208000052805D0FFE70498092840F09980FFE76C
:102090000898FEF723FC8DF817009DF8170000281C
:1020A00040F08680FFE70898C06D40F4807040F6ED
:1020B000016188430899C8650898006840F20011DA
:1020C000C5F20001884204D1FFE74FF0A040029022
:1020D00015E00898006840F20051C5F200018842FE
:1020E00006D1FFE740F20040C5F20000019003E096
:1020F000089800680190FFE701980290FFE70298B6
:1021000008990968884203D0FFE7049830B9FFE7CF
:102110000899C86D20F48010C865FFE70898C06D65
:10212000C004002806D5FFE70899086E20F00600D5
:10213000086603E0089900200866FFE70898416DEB
:1021400040F20170C0F60000C8620898416D40F688
:102150000100C0F6000008630898416D40F2D57098
:10216000C0F600004863089801681C200860FFE77B
:102170000899002081F85800FFE70898016848682E
:1021800040F01000486008980168C86840F00100FD
:10219000C86008980168406D4031079A069B00F0BE
:1021A0002FFA8DF817000898006803F01DFA06E072
:1021B000FFE70899002081F85800FFE7FFE709E0F2
:1021C00001208DF81700FFE70899002081F85800DA
:1021D000FFE7FFE703E002208DF81700FFE79DF817
:1021E00017008DF82700FFE79DF827000AB080BD93
:1021F00082B0019000208DF80300019890F825002E
:10220000022807D0FFE701990420C86301208DF858
:1022100003002DE001980168086820F00E000860B6
:102220000198816C086820F480700860019801684A
:10223000086820F0010008600198016C406C00F013
:102240001F020120904048600198C16C006D4860F9
:102250000198406D58B1FFE70198416D086820F47E
:10226000807008600198816DC06D4860FFE7FFE7EE
:102270000199012081F82500FFE70199002081F8EC
:102280002400FFE79DF8030002B0704780B582B0DC
:10229000019000208DF80300019890F82500022895
:1022A00011D0FFE701990420C8630199012081F84A
:1022B0002500FFE70199002081F82400FFE70120B5
:1022C0008DF803003FE001980168086820F00E00D7
:1022D000086001980168086820F001000860019812
:1022E000816C086820F4807008600198016C406C73
:1022F00000F01F020120904048600198C16C006D01
:1023000048600198406D58B1FFE70198416D086839
:1023100020F4807008600198816DC06D4860FFE70F
:102320000199012081F82500FFE70199002081F83B
:102330002400FFE70198806B20B1FFE70198816BD3
:102340008847FFE7FFE79DF8030002B080BD00006B
:1023500080B584B003900398006C006802900398E5
:1023600000680068019002980399496C01F01F0110
:10237000C8404007002825D5FFE79DF80400400726
:1023800000281FD5FFE70398006800688006002832
:1023900007D4FFE703980168086820F0040008608C
:1023A000FFE70398016C406C00F01F02042090408E
:1023B00048600398006B20B1FFE70398016B8847E2
:1023C000FFE76EE002980399496C01F01F01C840D5
:1023D000800700282FD5FFE79DF80400800700281C
:1023E00029D5FFE7039800680068800600280BD411
:1023F000FFE703980168086820F00A000860039965
:10240000012081F82500FFE70398016C406C00F083
:102410001F02022090404860FFE70399002081F8E6
:102420002400FFE70398C06A20B1FFE70398C16A60
:102430008847FFE734E002980399496C01F01F01D7
:10244000C8400007002829D5FFE79DF804000007D1
:10245000002823D5FFE703980168086820F00E00E4
:1024600008600398026C406C00F01F01012000FA24
:1024700001F151600399C863039981F82500FFE7D2
:102480000399002081F82400FFE70398406B20B1F6
:10249000FFE70398416B8847FFE700E0FFE7FFE7AE
:1024A000FFE704B080BD000080B584B002900298C0
:1024B00020B9FFE701208DF80F009CE0029800682A
:1024C00040F20741C4F20201884218D8FFE702999E
:1024D00008684FF6F872CBF6FD7210444CF6CD4208
:1024E000CCF6CC42A0FB02026FF0030000EA92009F
:1024F000486402990020C4F20200086418E00299BE
:1025000008684FF6F832CBF6FD7210444CF6CD4217
:10251000CCF6CC42A0FB02026FF0030000EA92006E
:102520004864029940F20040C4F202000864FFE7E8
:102530000299022081F82500029800680068019045
:10254000019847F6F0718843019002998868D1F8A4
:102550000CC00B694A6940EA0C00184310438A69B1
:102560001043CA691043096A014301980843019066
:1025700001980299096808600298FEF767FA0298C4
:102580008068B0F5804F04D1FFE7029900204860D1
:10259000FFE702990879896C08600298C16C006DA8
:1025A00048600298406888B1FFE7029840680428B4
:1025B0000CD8FFE70298FEF783FA0298416D0020DD
:1025C00008600298816DC06D486007E002990020A4
:1025D0004865029988650299C865FFE7029900205D
:1025E000C863029A012182F82510029981F824001B
:1025F0008DF80F00FFE79DF80F0004B080BD0000CC
:1026000080B586B0049003910292019300208DF86A
:102610000300FFE7049890F82400012804D1FFE7A5
:1026200002208DF8170065E00499012081F824004C
:10263000FFE7FFE7049890F8250001284BD1FFE75A
:102640000499022081F8250004990020C8630498A9
:102650000168086820F00100086004980399029A54
:10266000019BFEF74BFA0498006B38B1FFE7049822
:102670000168086840F00E0008600CE004980168EA
:10268000086820F00400086004980168086840F0B9
:102690000A000860FFE70498806C0068C003002807
:1026A00007D5FFE70498816C086840F480700860E3
:1026B000FFE70498406D38B1FFE70498416D086862
:1026C00040F480700860FFE704980168086840F0F3
:1026D0000100086009E0FFE70499002081F8240068
:1026E000FFE702208DF80300FFE79DF803008DF857
:1026F0001700FFE79DF8170006B080BD80B584B0D5
:10270000039000F0D1F902900398019001980130F4
:1027100048B1FFE740F20400C2F2000001680198EE
:1027200008440190FFE7FFE700F0BEF90299401A64
:102730000199884201D2FFE7F6E704B080BD0000AE
:102740008BB00A90099100200890FFE70998006873
:102750000899C840002800F0A581FFE709980068A3
:10276000089A01219140084007900798002800F03E
:102770009581FFE70998406800F00300012807D021
:10278000FFE70998406800F0030002282FD1FFE717
:102790000A988068069008984100032000FA01F129
:1027A0000698884306900998C0680899490000FA7D
:1027B00001F106980843069006980A9988600A98DD
:1027C000406806900899012000FA01F106988843B4
:1027D000069009984068C0F30010089900FA01F1CA
:1027E00006980843069006980A994860FFE70998FA
:1027F000406800F00300032818D0FFE70A98C0687B
:10280000069008984100032000FA01F106988843D9
:102810000690099880680899490000FA01F1069825
:102820000843069006980A99C860FFE7099840682F
:1028300000F00300022826D1FFE70A9808996FF0FC
:10284000030202EA51010844006A0690089800F069
:10285000070081000F2000FA01F1069888430690D6
:1028600009980069089901F00701890000FA01F14F
:1028700006980843069006980A99089B02EA5302B4
:1028800011440862FFE70A98006806900898410022
:10289000032000FA01F106988843069009984068E1
:1028A00000F003000899490000FA01F10698084376
:1028B000069006980A990860099880798007002890
:1028C00000F0EB80FFE7FFE741F26000C4F2020096
:1028D000016841F001010160006800F0010005900D
:1028E0000598FFE7089820F003000821C4F20101D1
:1028F00040580690089800F0030081000F2000FA6D
:1029000001F10698884306900A98B0F1904F03D1E0
:10291000FFE70020049042E00A9840F20041C4F62C
:102920000001884203D1FFE70120039034E00A98B8
:1029300040F60001C4F60001884203D1FFE70220FF
:10294000029026E00A9840F60041C4F60001884251
:1029500003D1FFE70320019018E00A9841F200013B
:10296000C4F60001884203D1FFE7042000900AE08A
:102970000A9941F20042C4F600020620914208BFC3
:1029800005200090FFE700980190FFE70198029072
:10299000FFE702980390FFE703980490FFE704988D
:1029A000089901F00301890000FA01F10698084333
:1029B00006900698089921F003010822C4F201024A
:1029C000885040F20840C4F2010000680690079960
:1029D00006988843069009988079C006002805D596
:1029E000FFE70799069808430690FFE7069840F22C
:1029F0000841C4F20101086040F20C40C4F2010039
:102A0000006806900799069888430690099880798F
:102A10008006002805D5FFE7079906980843069029
:102A2000FFE7069840F20C41C4F20101086040F251
:102A30000440C4F201000068069007990698884394
:102A40000690099880798007002805D5FFE7079947
:102A5000069808430690FFE7069840F20441C4F246
:102A60000101086040F20040C4F2010000680690D5
:102A7000079906988843069009988079C00728B17D
:102A8000FFE70799069808430690FFE7069840F28B
:102A90000041C4F201010860FFE7FFE70898013038
:102AA000089053E60BB0704741F61460C2F2000084
:102AB0000068704740F20400C2F20000026841F66C
:102AC0001461C2F2000108681044086070470000F9
:102AD00080B582B000208DF80700032000F0A0F838
:102AE0000F2000F00DF820B1FFE701208DF807005E
:102AF00002E000F049F8FFE79DF8070002B080BD52
:102B000080B582B0019000208DF8030040F20400EF
:102B1000C2F20000006878B3FFE740F20000C2F2A2
:102B20000000006840F20401C2F200010A684FF49C
:102B30007A71B1FBF2F1B0FBF1F001F093FAB0B9A8
:102B4000FFE701980F280DD8FFE701994FF0FF30FC
:102B5000002200F04DF8019840F20801C2F2000195
:102B6000086003E001208DF80300FFE703E0012087
:102B70008DF80300FFE703E001208DF80300FFE775
:102B80009DF8030002B080BD80B582B0FFE741F23E
:102B90006000C4F20200016841F0010101600068B8
:102BA00000F0010001900198FFE7FFE741F25800B3
:102BB000C4F20200016841F080510160006800F039
:102BC000805000900098FFE701F036FA022001F0F3
:102BD0003BFA00F007F902B080BD000080B582B07A
:102BE0008DF807009DF9070005F08AFF02B080BD4F
:102BF00080B586B08DF817000491039205F0A0FF10
:102C000002909DF91700019002980499039A04F02C
:102C100021F80146019805F0BDFF06B080BD000017
:102C200080B582B00190019805F0D6FF02B080BD5A
:102C300085B00390039800285ED1FFE747F20000BB
:102C4000C4F20000006800F4C060B0F5806F49D1A4
:102C5000FFE747F28001C4F20001086820F48070A9
:102C6000086047F20002C4F200021168012060F31C
:102C70004A21116040F20001C2F2000109683222CB
:102C800051434DF68362C4F21B32A1FB022100EBDB
:102C900091400290FFE747F21400C4F2000001687F
:102CA000002049050029019006D5FFE70298002879
:102CB00018BF01200190FFE70198C00720B1FFE78E
:102CC000029801380290E6E747F21400C4F20000CF
:102CD00000684005002804D5FFE703208DF81300A5
:102CE0007CE008E047F28001C4F20001086820F4AB
:102CF00080700860FFE76DE00398B0F5007F5ED15B
:102D0000FFE747F20000C4F20000006800F4C06072
:102D1000B0F5806F49D1FFE747F28001C4F20001AE
:102D2000086840F48070086047F20002C4F20002B4
:102D30001168012060F34A21116040F20001C2F2E3
:102D400000010968322251434DF68362C4F21B32FE
:102D5000A1FB022100EB91400290FFE747F2140033
:102D6000C4F200000168002049050029009006D542
:102D7000FFE70298002818BF01200090FFE70098A5
:102D8000C00720B1FFE7029801380290E6E747F25A
:102D90001400C4F2000000684005002804D5FFE7D5
:102DA00003208DF8130019E008E047F28001C4F217
:102DB0000001086840F480700860FFE709E047F20E
:102DC0000001C4F200010868022262F34A20086090
:102DD000FFE7FFE700208DF81300FFE79DF81300E1
:102DE00005B0704747F20801C4F20001086840F4DA
:102DF000804008607047000081B08DF8030047F202
:102E00000001C4F20001086820F0070008604EF6D7
:102E10001051CEF20001086840F0040008609DF8EF
:102E20000300012802D1FFE730BF03E040BF20BF0D
:102E300020BFFFE74EF61051CEF20001086820F0E7
:102E40000400086001B0704781B08DF8030047F2BC
:102E50000001C4F200010868012262F30200086068
:102E60004EF61051CEF20001086840F004000860F0
:102E70009DF80300012802D1FFE730BF03E040BF07
:102E800020BF20BFFFE74EF61051CEF200010868C8
:102E900020F00400086001B07047000080B582B0E7
:102EA00001908DF803100198B0F5804F05D1FFE730
:102EB0009DF80300FFF7C8FF04E09DF80300FFF74B
:102EC0009BFFFFE702B080BD80B586B00590002073
:102ED0008DF80B008DF80A0005988078000700280F
:102EE00040F1B580FFE700208DF8090041F258005D
:102EF000C4F202000068C000002813D4FFE7FFE717
:102F000041F25800C4F20200016841F080510160B2
:102F1000006800F0805001900198FFE701208DF8D3
:102F20000900FFE747F20001C4F20001086840F41D
:102F300080700860FFF7B8FD0390FFE747F20000DC
:102F4000C4F200000068C00500280CD4FFE7FFF7BA
:102F5000ABFD0399401A032804D3FFE703208DF843
:102F60000B0000E0EAE79DF80B0000285BD1FFE7CB
:102F700041F29000C4F20200006800F44070049036
:102F80000498C8B1FFE704980599096D884213D0E9
:102F9000FFE741F29001C4F20201086820F440709A
:102FA0000490086840F480300860086820F480309D
:102FB000086004980860FFE79DF81000C007E0B1C2
:102FC000FFE7FFF771FD0390FFE741F29000C4F2C5
:102FD00002000068800700280ED4FFE7FFF764FDB9
:102FE0000399401A41F28931884204D3FFE7032054
:102FF0008DF80B0000E0E8E7FFE79DF80B0060B9F3
:10300000FFE741F29001C4F20201086820F4407029
:10301000059A126D1043086004E09DF80B008DF8CE
:103020000A00FFE704E09DF80B008DF80A00FFE7B7
:103030009DF80900012809D1FFE741F25801C4F2C7
:103040000201086820F080500860FFE7FFE705985C
:103050000078C00760B1FFE741F28801C4F20201C5
:10306000086820F00300059A526810430860FFE7E3
:1030700005980078800700280CD5FFE741F2880109
:10308000C4F20201086820F00C00059A926810430F
:103090000860FFE705980078400700280CD5FFE797
:1030A00041F28801C4F20201086820F03000059A5C
:1030B000D26810430860FFE70598007800070028F1
:1030C0000CD5FFE741F28801C4F20201086820F044
:1030D000C000059A126910430860FFE70598007860
:1030E000C00600280CD5FFE741F28801C4F20201B6
:1030F000086820F44070059A526910430860FFE7A1
:1031000005980078800600280CD5FFE741F2880179
:10311000C4F20201086820F44060059A92691043E5
:103120000860FFE705980078400600280CD5FFE707
:1031300041F28801C4F20201086820F44050059A67
:10314000D26910430860FFE7059800780006002860
:103150000CD5FFE741F28801C4F20201086820F4AF
:103160004040059A126A10430860FFE705984078CE
:10317000C00760B1FFE741F28801C4F202010868AC
:1031800020F44030059A526A10430860FFE7059822
:103190008078800700280CD5FFE741F29C01C4F23B
:1031A0000201086820F00300059A926A1043086043
:1031B000FFE705984078800700280CD5FFE741F22B
:1031C0008801C4F20201086820F44020059AD26AFE
:1031D00010430860FFE705984078400700281BD59A
:1031E000FFE741F28801C4F20201086820F44010B0
:1031F000059A126B104308600598006BB0F5801FAC
:1032000009D1FFE741F20C01C4F20201086840F461
:1032100080100860FFE7FFE7059840780007002866
:103220001BD5FFE741F28801C4F20201086820F4CF
:103230004000059A526B104308600598406BB0F54A
:10324000800F09D1FFE741F20C01C4F202010868C6
:1032500040F480100860FFE7FFE705984078C0065B
:1032600000281BD5FFE741F28801C4F2020108687B
:1032700020F04070059A926B104308600598806BAF
:10328000B0F1807F09D1FFE741F20C01C4F20201E5
:10329000086840F480100860FFE7FFE70598407871
:1032A000800600281BD5FFE741F28801C4F2020125
:1032B000086820F04060059AD26B104308600598BA
:1032C000C06BB0F1006F09D1FFE741F20C01C4F20D
:1032D0000201086840F480100860FFE7FFE70598E6
:1032E0004078400600281BD5FFE741F28801C4F270
:1032F0000201086820F04060059A126C10430860D3
:103300000598006CB0F1006F09D1FFE741F20C01A4
:10331000C4F20201086840F480100860FFE7FFE78C
:1033200005984078000600281BD5FFE741F2880188
:10333000C4F20201086820F04050059A526C104314
:1033400008600598406CB0F1805F09D1FFE741F259
:103350000C01C4F20201086840F480300860FFE705
:10336000FFE705988078C007D8B1FFE741F28801F0
:10337000C4F20201086820F04040059A926C1043A4
:1033800008600598806CB0F1804F09D1FFE741F2E9
:103390000C01C4F20201086840F480300860FFE7C5
:1033A000FFE705988078400700281BD5FFE741F22A
:1033B0009C01C4F20201086820F44010059AD26C06
:1033C000104308600598C06CB0F5001F09D1FFE7F5
:1033D00041F20C01C4F20201086840F48010086058
:1033E000FFE7FFE79DF80A0006B080BD80B586B014
:1033F0000490039100200090049820B9FFE7012079
:103400008DF8170081E1039842F20001C4F2020135
:10341000096801F00F01884216D9FFE742F2000067
:10342000C4F20200016821F00F01039A1143016008
:10343000006800F00F000399884204D0FFE70120E4
:103440008DF8170061E1FFE704980078C0070028B5
:1034500000F0A380FFE704984068032839D1FFE714
:1034600041F20000C4F2020000688001002804D488
:10347000FFE701208DF8170047E103F023FC0190DE
:1034800001984BF20141C0F2C441884220D3FFE7CA
:1034900041F20800C4F20200006810F0F00F0AD0F8
:1034A000FFE7049800788007002810D5FFE704980C
:1034B000806860B9FFE741F20801C4F202010868C0
:1034C000082262F30710086080200090FFE7FFE702
:1034D00038E00498406802280ED1FFE741F200006E
:1034E000C4F2020000688003002804D4FFE7012032
:1034F0008DF8170009E10DE041F20000C4F202006E
:1035000000684005002804D4FFE701208DF817006B
:10351000FBE0FFE700F02CF9019001984BF201412C
:10352000C0F2C44188420CD3FFE741F20801C4F263
:1035300002010868082262F30710086080200090EA
:10354000FFE7FFE741F20801C4F20201086820F03A
:103550000300049A526810430860FFF7A5FA02902E
:10356000FFE741F20800C4F20200006800F00C001E
:1035700004994968B0EB810F0ED0FFE7FFF794FA8A
:103580000299401A41F28931884204D3FFE70320AF
:103590008DF81700B9E0E4E7FFE7049800788007AA
:1035A00000282CD5FFE7049800784007002809D5AB
:1035B000FFE741F20801C4F20201086840F4E0604C
:1035C0000860FFE704980078000700280BD5FFE7A4
:1035D00041F20801C4F20201086840F4E06020F4FE
:1035E00060500860FFE741F20801C4F20201086878
:1035F00020F0F000049A9268104308600DE00098F3
:10360000802809D1FFE741F20801C4F202010868ED
:1036100020F0F0000860FFE7FFE7039842F20001A6
:10362000C4F20201096801F00F01884228D2FFE7C5
:1036300042F20001C4F20201086820F00F00039A70
:1036400010430860FFF730FA0290FFE742F20000F3
:10365000C4F20200006800F00F00039988420ED007
:10366000FFE7FFF721FA0299401A41F289318842B7
:1036700004D3FFE703208DF8170046E0E6E7FFE7F5
:1036800004980078400700280CD5FFE741F20801B4
:10369000C4F20201086820F4E060049AD268104382
:1036A0000860FFE704980078000700280DD5FFE7C1
:1036B00041F20801C4F20201086820F46050049A43
:1036C000126940EAC2000860FFE700F051F841F2D9
:1036D0000801C4F202010968C9B20A0949F2B62117
:1036E000C0F60001895C01F01F01C84040F20001F2
:1036F000C2F20001086040F20800C2F20000006857
:10370000FFF7FEF98DF81700FFE79DF8170006B0E8
:1037100080BD000040F20000C2F200000068704767
:1037200080B5FFF7F7FF41F20801C4F20201096812
:10373000C1F3022249F2C621C0F60001895C01F002
:103740001F01C84080BD000080B5FFF7E3FF41F2D4
:103750000801C4F202010968C1F3C22249F2C6217C
:10376000C0F60001895C01F01F01C84080BD000067
:1037700086B041F20800C4F20200006800F00C00BC
:10378000042806D1FFE742F20040C0F2F4000190A5
:1037900069E041F20800C4F20200006800F00C0089
:1037A000082806D1FFE744F60000C0F2E8100190B7
:1037B00058E041F20800C4F20200006800F00C007A
:1037C0000C284BD1FFE741F20C00C4F20200016863
:1037D00001F0030104910068C1B2012000EB111057
:1037E000029004980090022815D0FFE70098032863
:1037F00012D1FFE7029944F60000C0F2E810B0FBD6
:10380000F1F041F20C01C4F202010968C1F3062192
:103810004843059011E0FFE7029942F20040C0F2F0
:10382000F400B0FBF1F041F20C01C4F202010968AE
:10383000C1F3062148430590FFE741F20C00C4F2B2
:103840000200006800F0C061022000EB11600390EC
:1038500005980399B0FBF1F0019002E0002001907F
:10386000FFE7FFE7FFE7019806B07047B0B588B003
:103870000690069820B9FFE701208DF81F00CCE3E1
:1038800006980078C007002800F09B80FFE741F20F
:103890000800C4F20200006800F00C00049041F23D
:1038A0000C00C4F20200006800F0030003900498CA
:1038B0000C2804D1FFE70398032804D0FFE70498FD
:1038C000082812D1FFE741F20000C4F202000068AC
:1038D0008003002808D5FFE70698406820B9FFE775
:1038E00001208DF81F0098E36AE0FFE70698406822
:1038F000B0F5803F09D1FFE741F20001C4F20201B7
:10390000086840F48030086020E006984068B0F510
:10391000A02F0DD1FFE741F20001C4F202010868B7
:1039200040F480200860086840F4803008600CE0B3
:1039300041F20001C4F20201086820F480300860FE
:10394000086820F480200860FFE7FFE7FFE706989B
:103950004068D0B1FFE7FFF7A7F80590FFE741F215
:103960000000C4F202000068800300280CD4FFE7C6
:10397000FFF79AF80599401A652804D3FFE703205A
:103980008DF81F0049E3EAE719E0FFF78DF805908D
:10399000FFE741F20000C4F2020000688003002843
:1039A0000CD5FFE7FFF780F80599401A652804D386
:1039B000FFE703208DF81F002FE3EAE7FFE7FFE7AB
:1039C000FFE7069800788007002840F19F80FFE716
:1039D00041F20800C4F20200006800F00C000490FC
:1039E00041F20C00C4F20200006800F003000390F2
:1039F00004980C2804D1FFE70398022804D0FFE7BD
:103A0000049804282CD1FFE741F20000C4F2020020
:103A100000684005002808D5FFE70698C06820B96F
:103A2000FFE701208DF81F00F7E241F20401C4F224
:103A30000201086820F0FE40069A126940EA02601E
:103A4000086040F20800C2F200000068FFF758F872
:103A500020B1FFE701208DF81F00DEE2FFE754E010
:103A60000698C06870B3FFE741F20001C4F202019A
:103A7000086840F480700860FFF716F80590FFE7CB
:103A800041F20000C4F202000068400500280CD496
:103A9000FFE7FFF709F80599401A032804D3FFE769
:103AA00003208DF81F00B8E2EAE741F20401C4F2F6
:103AB0000201086820F0FE40069A126940EA02609E
:103AC000086021E041F20001C4F20201086820F41C
:103AD00080700860FEF7E8FF0590FFE741F2000004
:103AE000C4F202000068400500280CD5FFE7FEF78D
:103AF000DBFF0599401A032804D3FFE703208DF864
:103B00001F008AE2EAE7FFE7FFE7FFE70698007891
:103B10000007002849D5FFE70698406910B3FFE782
:103B200041F29401C4F20201086840F0010008600B
:103B3000FEF7BAFF0590FFE741F29400C4F20200DD
:103B40000068800700280CD4FFE7FEF7ADFF059959
:103B5000401A032804D3FFE703208DF81F005CE21E
:103B6000EAE721E041F29401C4F20201086820F082
:103B700001000860FEF798FF0590FFE741F294000E
:103B8000C4F202000068800700280CD5FFE7FEF7AA
:103B90008BFF0599401A032804D3FFE703208DF813
:103BA0001F003AE2EAE7FFE7FFE7069800784007E0
:103BB000002840F1C680FFE700208DF80B0041F29D
:103BC0005800C4F202000068C000002813D4FFE7C8
:103BD000FFE741F25800C4F20200016841F0805151
:103BE0000160006800F0805001900198FFE701201B
:103BF0008DF80B00FFE747F20000C4F200000068F8
:103C0000C005002822D4FFE747F20001C4F20001FA
:103C1000086840F480700860FEF746FF0590FFE7F3
:103C200047F20000C4F200000068C00500280CD470
:103C3000FFE7FEF739FF0599401A032804D3FFE791
:103C400003208DF81F00E8E1EAE7FFE7FFE70698A9
:103C50008068012809D1FFE741F29001C4F2020116
:103C6000086840F0010008601FE006988068052899
:103C70000DD1FFE741F29001C4F20201086840F063
:103C800004000860086840F0010008600CE041F2A0
:103C90009001C4F20201086820F001000860086881
:103CA00020F004000860FFE7FFE7FFE70698806860
:103CB000E0B1FFE7FEF7F8FE0590FFE741F2900064
:103CC000C4F202000068800700280ED4FFE7FEF768
:103CD000EBFE0599401A41F28931884204D3FFE78F
:103CE00003208DF81F0098E1E8E71BE0FEF7DCFEFB
:103CF0000590FFE741F29000C4F2020000688007DF
:103D000000280ED5FFE7FEF7CFFE0599401A41F2D5
:103D10008931884204D3FFE703208DF81F007CE13E
:103D2000E8E7FFE79DF80B00012809D1FFE741F222
:103D30005801C4F20201086820F080500860FFE7D3
:103D4000FFE7069800788006002849D5FFE7069827
:103D5000806910B3FFE741F29801C4F202010868DC
:103D600040F001000860FEF79FFE0590FFE741F27A
:103D70009800C4F202000068800700280CD4FFE716
:103D8000FEF792FE0599401A032804D3FFE70320AB
:103D90008DF81F0041E1EAE721E041F29801C4F209
:103DA0000201086820F001000860FEF77DFE059022
:103DB000FFE741F29800C4F2020000688007002883
:103DC0000CD5FFE7FEF770FE0599401A032804D3CF
:103DD000FFE703208DF81F001FE1EAE7FFE7FFE799
:103DE0000698C069002800F01481FFE741F208003E
:103DF000C4F20200006800F00C000C2800F0B08053
:103E0000FFE70698C06902287CD1FFE741F2000174
:103E1000C4F20201086820F080700860FEF744FEDA
:103E20000590FFE741F20000C4F202000068800143
:103E300000280CD5FFE7FEF737FE0599401A032846
:103E400004D3FFE703208DF81F00E6E0EAE741F224
:103E50000C01C4F20201086848F20C02C0F29F1281
:103E60001040DDF818C0DCF82020DCF82450DCF825
:103E700028E0DCF82C306FF00F0404EB051422432B
:103E800042EA0E22DCF8304040F2000ECFF6E07E2F
:103E90000EEA045EAEF5001E42EA0E02DCF834E0E3
:103EA0004FF07E4C0CEA0E6C0CF17E4C42EA0C0298
:103EB00042EAC3621043086041F20002C4F2020207
:103EC000106840F080701060086840F080700860F2
:103ED000FEF7EAFD0590FFE741F20000C4F20200A0
:103EE0000068800100280CD4FFE7FEF7DDFD05998E
:103EF000401A032804D3FFE703208DF81F008CE04D
:103F0000EAE72CE041F20001C4F20201086820F067
:103F100080700860FEF7C8FD0590FFE741F20000E1
:103F2000C4F202000068800100280CD5FFE7FEF70C
:103F3000BBFD0599401A032804D3FFE703208DF841
:103F40001F006AE0EAE741F20C01C4F202010868CE
:103F50004FF6FC72CFF6EE6210400860FFE757E0C4
:103F60000698C069012804D1FFE701208DF81F00E1
:103F700053E041F20C00C4F2020000680390039881
:103F800000F003000699096A88423BD1FFE70398D5
:103F900000F0F00006994A6A6FF00F0101EB021180
:103FA00088422FD1FFE7039800F4FE400699896A02
:103FB000B0EB012F26D1FFE7039800F07840069977
:103FC000C96AB0EBC16F1DD1FFE7039800F4C000D0
:103FD00006990A6B0021CFF6E07101EA0251A1F5C2
:103FE000001188420ED1FFE7039800F0C0600699E7
:103FF0004A6B4FF07E4101EA026101F17E41884245
:1040000004D0FFE701208DF81F0006E0FFE7FFE77F
:10401000FFE700208DF81F00FFE79DF81F0008B0A4
:10402000B0BD00004EF21001CEF20001086840F071
:1040300002000860704700003021C4F201010868E6
:1040400020F001000860704781B000903021C4F278
:104050000101086820F00200009A1043086001B0D6
:104060007047000080B582B00190019802F07AFE9E
:1040700002B080BD4EF21001CEF20001086820F0BF
:10408000020008607047000083B00190FFE70198CC
:1040900090F88400012804D1FFE702208DF80B007E
:1040A0002CE00199012081F88400FFE7FFE70199E6
:1040B0002420C1F8880001980068006800900198E9
:1040C0000168086820F001000860009820F00050A6
:1040D00000900199002048660098019909680860DD
:1040E00001992020C1F88800FFE70199002081F89C
:1040F0008400FFE700208DF80B00FFE79DF80B0020
:1041000003B0704782B00190ADF8021002B0704762
:1041100081B0009001B0704780B584B002900191E9
:10412000FFE7029890F88400012804D1FFE70220FD
:104130008DF80F0032E00299012081F88400FFE73A
:10414000FFE702992420C1F88800029800680068FF
:10415000009002980168086820F001000860029849
:104160000068806820F0606001990843029909683E
:104170008860029802F070FE009802990968086051
:1041800002992020C1F88800FFE70299002081F8F9
:104190008400FFE700208DF80F00FFE79DF80F0077
:1041A00004B080BD80B584B002900191FFE7029811
:1041B00090F88400012804D1FFE702208DF80F0059
:1041C00032E00299012081F88400FFE7FFE70299BD
:1041D0002420C1F8880002980068006800900298C6
:1041E0000168086820F00100086002980068806893
:1041F00020F060400199084302990968886002989C
:1042000002F02AFE009802990968086002992020AD
:10421000C1F88800FFE70299002081F88400FFE7D9
:1042200000208DF80F00FFE79DF80F0004B080BD5F
:1042300081B0009001B0704781B0009001B070472C
:1042400081B0009001B0704780B590B00F900F988A
:104250000068C0690E900F98006800680D900F9874
:10426000006880680C900E9840F60F0108400B9093
:104270000B98E0B9FFE79DF838008006002815D5B7
:10428000FFE79DF834008006002806D4FFE79DF87C
:104290003300C006002809D5FFE70F98406F20B112
:1042A000FFE70F98416F8847FFE796E2FFE70B981B
:1042B000002800F00C81FFE70C980121C1F20001F9
:1042C000084209D1FFE70D9840F22011C0F20041E9
:1042D000084200F0FC80FFE79DF83800C00788B175
:1042E000FFE79DF83500C00760B1FFE70F98016850
:1042F000012008620F99D1F8900040F00100C1F848
:104300009000FFE79DF838008007002811D5FFE7EF
:104310009DF83000C00760B1FFE70F9801680220E8
:1043200008620F99D1F8900040F00400C1F89000A5
:10433000FFE79DF838004007002811D5FFE79DF8FA
:104340003000C00760B1FFE70F98016804200862E1
:104350000F99D1F8900040F00200C1F89000FFE7FB
:104360009DF838000007002819D5FFE79DF83400B4
:104370008006002807D4FFE70C980121C1F2000154
:1043800008420CD0FFE70F980168082008620F99D7
:10439000D1F8900040F00800C1F89000FFE79DF8C8
:1043A00039000007002813D5FFE79DF837004007C4
:1043B00000280DD5FFE70F9801684FF400600862F0
:1043C0000F99D1F8900040F02000C1F89000FFE76D
:1043D0000F98D0F89000002878D0FFE79DF83800BB
:1043E0008006002815D5FFE79DF8340080060028D8
:1043F00006D4FFE79DF83300C006002809D5FFE783
:104400000F98406F20B1FFE70F98416F8847FFE793
:10441000FFE70F98D0F890000A900F980068806826
:1044200000F04000402806D0FFE79DF8280010F07B
:10443000280F42D0FFE70F9802F036FF0F98006870
:1044400080684006002833D5FFE7FFE7FFE70F98B5
:10445000006850E8020F20F040000990FFE709993A
:104460000F98026842E802100028F0D1FFE7FFE74A
:104470000F98D0F88000B0B1FFE70F98D0F8801007
:1044800047F27110C0F6000088630F98D0F88000E2
:10449000FDF7FCFE30B1FFE70F98D0F88000816B8C
:1044A0008847FFE703E00F98FFF7CAFEFFE703E046
:1044B0000F98FFF7C5FEFFE707E00F98FFF7C0FE74
:1044C0000F990020C1F89000FFE7FFE785E10F9802
:1044D000C06E012840F02281FFE79DF83800C00639
:1044E000002840F11B81FFE79DF83400C00600283A
:1044F00040F11481FFE70F980168102008620F98BF
:10450000006880684006002840F1A680FFE70F9809
:10451000D0F8800000684068ADF82200BDF82200A5
:1045200000287CD0FFE7BDF822000F99B1F85C109D
:10453000884274DAFFE7BDF822000F99A1F85E0007
:104540000F98D0F88000006800688006002859D4D1
:10455000FFE7FFE7FFE70F98006850E8000F20F43F
:1045600080700790FFE707990F98026842E80010F3
:104570000028F0D1FFE7FFE7FFE7FFE70F980068AB
:1045800050E8020F20F001000690FFE706990F980F
:10459000026842E802100028F0D1FFE7FFE7FFE7DA
:1045A000FFE70F98006850E8020F20F040000590E8
:1045B000FFE705990F98026842E802100028F0D141
:1045C000FFE7FFE70F992020C1F88C000F9900202A
:1045D000C866FFE7FFE70F98006850E8000F20F07B
:1045E00010000490FFE704990F98026842E8001059
:1045F0000028F0D1FFE7FFE70F98D0F88000FDF723
:10460000F7FDFFE70F99022008670F98B0F85C10DC
:10461000B0F85E20891A89B2FFF774FD1BE0BDF87F
:1046200022000F99B1F85C10884213D1FFE70F9870
:10463000D0F88000006800688006002809D5FFE7F0
:104640000F99022008670F98B0F85C10FFF75AFD29
:10465000FFE7FFE7FFE7C0E00F99B1F85C00B1F8B2
:104660005E10401AADF80E000F98B0F85E000028FA
:1046700053D0FFE7BDF80E0000284ED0FFE7FFE75C
:10468000FFE70F98006850E8000F20F49070029048
:10469000FFE702990F98026842E800100028F0D165
:1046A000FFE7FFE7FFE7FFE70F98006850E8020F1A
:1046B0004FF6FE71CEF6FF7108400190FFE70199B9
:1046C0000F98026842E802100028EDD1FFE7FFE7EB
:1046D0000F992020C1F88C000F990020C8660F990F
:1046E0004867FFE7FFE70F98006850E8000F20F0E9
:1046F00010000090FFE700990F98026842E8001050
:104700000028F0D1FFE7FFE70F99022008670F9814
:10471000BDF80E10FFF7F6FCFFE75EE09DF83A00EB
:10472000C00600280FD5FFE79DF83200400600289C
:1047300009D5FFE70F9801684FF4801008620F98C1
:10474000FFF77AFD49E09DF838000006002815D5EE
:10475000FFE79DF834000006002806D4FFE79DF827
:1047600032000006002809D5FFE70F98806F20B1BE
:10477000FFE70F98816F8847FFE72EE09DF838002C
:10478000400600280AD5FFE79DF8340040060028BF
:1047900004D5FFE70F9802F0D7FD1EE09DF83A0020
:1047A000000600280AD5FFE79DF8370040060028DC
:1047B00004D5FFE70F98FFF73BFD0EE09DF83B00A7
:1047C000C00750B1FFE79DF837000006002804D568
:1047D000FFE70F98FFF79CFCFFE710B080BD0000DB
:1047E00080B582B00090009820B9FFE701208DF8D5
:1047F000070046E00098806908B1FFE700E0FFE7A6
:104800000098D0F8880040B9FFE70099002081F8AF
:104810008400009800F03AF8FFE700992420C1F8DE
:10482000880000980168086820F00100086000987E
:10483000806A20B1FFE7009802F052FBFFE7009882
:1048400002F0D2FD012804D1FFE701208DF8070016
:1048500017E000980168486820F49040486000988C
:104860000168886820F02A0088600098016808685C
:1048700040F001000860009802F0D6FB8DF80700B8
:10488000FFE79DF8070002B080BD000080B5A0B032
:104890001F9000201E901D901C901B901A9005A840
:1048A0005421FBF79DFD1F98006843F60001C4F2F8
:1048B000010188426DD1FFE701200590002006909C
:1048C00005A8FEF701FB18B1FFE7FCF751F9FFE778
:1048D000FFE741F26000C4F20200016841F4804148
:1048E0000160006800F4804004900498FFE7FFE74F
:1048F00041F24C00C4F20200016841F00401016081
:10490000006800F0040003900398FFE730201A903D
:1049100002201B90002001901C901D9007201E90EB
:1049200040F60000C4F600001AA9FDF709FF01993E
:1049300041F2FC40C2F2000002901C22C4F20202CA
:1049400002601922426010228260C16080220261EE
:1049500041618161C1614FF400510162FDF7A4FD25
:1049600018B1FFE7FCF704F9FFE7FFE71F9841F2F2
:10497000FC41C2F20001C1671F988862FFE7252051
:10498000009000221146FEF733F90098FEF726F951
:10499000FFE720B080BD000080B586B00490039191
:1049A000ADF80A200498D0F88800202870D1FFE7DD
:1049B000039820B1FFE7BDF80A0020B9FFE7012006
:1049C0008DF8170068E0039804990865BDF80A009F
:1049D0000499A1F85400BDF80A000499A1F8560002
:1049E00004990020C1F8900004992120C1F88800A2
:1049F0000498C06F88B3FFE70498C16F47F2152091
:104A0000C0F60000C8620498C16F47F29120C0F65A
:104A1000000008630498C16F47F29510C0F60000CB
:104A200048630498C16F0020886304980268016D90
:104A3000C06F2832BDF80A30FDF7E2FD60B1FFE734
:104A400004991020C1F8900004992020C1F8880032
:104A500001208DF817001FE0FFE70498016840204F
:104A60000862FFE7FFE70498006850E8020F40F093
:104A700080000190FFE701990498026842E8021063
:104A80000028F0D1FFE7FFE700208DF8170003E0D2
:104A900002208DF81700FFE79DF8170006B080BDD3
:104AA00081B0009001B0704781B0009001B07047B4
:104AB000FFE7FEE780B584B000F046F841F21C4005
:104AC000C2F20000008841F22041C2F200010191CF
:104AD000488041F21E40C2F2000000888880FE201B
:104AE0000870AA20487041F2F052C2F20002106829
:104AF0005268C1F80A20C1F80600002088730391AB
:104B00000290FFE702980E2811D8FFE70398027879
:104B100041F22041C2F20001887B1044887303985F
:104B200001300390FFE7029801300290EAE741F27A
:104B30005C50C2F2000041F22041C2F200010F229B
:104B4000FFF72AFF04B080BD80B598B04FF09040C9
:104B500001F09CF8179040F20040C4F6000001F00C
:104B600095F8169040F60000C4F6000001F08EF8AB
:104B700015909DF85C008007002809D4FFE741F2FA
:104B80001C40C2F20000008840F48050149008E0FD
:104B900041F21C40C2F20000008820F480501490C2
:104BA000FFE7149841F21C41C2F2000108809DF811
:104BB0005C00C00748B9FFE741F21C40C2F20000A8
:104BC000008840F40050139008E041F21C40C2F20B
:104BD0000000008820F400501390FFE7139841F282
:104BE0001C41C2F2000108809DF85C0040060028CC
:104BF00009D4FFE741F21C40C2F20000008840F0F7
:104C00002000129008E041F21C40C2F2000000882F
:104C100020F020001290FFE7129841F21C41C2F2EE
:104C2000000108809DF85D00C00748B9FFE741F228
:104C30001C40C2F20000008840F00200119008E021
:104C400041F21C40C2F20000008820F002001190E6
:104C5000FFE7119841F21C41C2F2000108809DF863
:104C60005D008007002809D4FFE741F21C40C2F232
:104C70000000008840F00800109008E041F21C405D
:104C8000C2F20000008820F008001090FFE71098A2
:104C900041F21C41C2F2000108809DF85C0000074F
:104CA000002809D4FFE741F21C40C2F2000000884E
:104CB00040F010000F9008E041F21C40C2F20000EA
:104CC000008820F010000F90FFE70F9841F21C4180
:104CD000C2F2000108809DF85C000006002809D49B
:104CE000FFE741F21E40C2F20000008840F01000D1
:104CF0000E9008E041F21E40C2F20000008820F051
:104D000010000E90FFE70E9841F21E41C2F2000122
:104D100008809DF85C00C006002809D4FFE741F236
:104D20001E40C2F20000008840F008000D9008E02C
:104D300041F21E40C2F20000008820F008000D90F1
:104D4000FFE70D9841F21E41C2F2000108809DF874
:104D50005C008006002809D4FFE741F21E40C2F241
:104D60000000008840F004000C9008E041F21E4072
:104D7000C2F20000008820F004000C90FFE70C98BD
:104D800041F21E41C2F2000108809DF85400400625
:104D9000002809D4FFE741F21E40C2F2000000885B
:104DA00040F001000B9008E041F21E40C2F200000A
:104DB000008820F001000B90FFE70B9841F21E41A4
:104DC000C2F2000108809DF854008007002809D431
:104DD000FFE741F21E40C2F20000008840F00200EE
:104DE0000A9008E041F21E40C2F20000008820F064
:104DF00002000A90FFE70A9841F21E41C2F2000148
:104E000008809DF859008006002809D4FFE741F288
:104E10001C40C2F20000008840F40070099008E0D5
:104E200041F21C40C2F20000008820F4007009909A
:104E3000FFE7099841F21C41C2F2000108809DF889
:104E400059000006002809D4FFE741F21C40C2F2D5
:104E50000000008840F48070089008E041F21C4097
:104E6000C2F20000008820F480700890FFE70898E4
:104E700041F21C41C2F2000108809DF85400C007B5
:104E800048B9FFE741F21C40C2F20000008840F040
:104E90008000079008E041F21C40C2F20000008848
:104EA00020F080000790FFE7079841F21C41C2F212
:104EB000000108809DF854000006002809D4FFE78F
:104EC00041F21C40C2F20000008840F04000069011
:104ED00008E041F21C40C2F20000008820F04000CF
:104EE0000690FFE7069841F21C41C2F200010880DB
:104EF0009DF854000007002809D4FFE741F21C4048
:104F0000C2F20000008840F48040059008E041F2C1
:104F10001C40C2F20000008820F480400590FFE7AA
:104F2000059841F21C41C2F2000108809DF854002E
:104F30004007002809D4FFE741F21C40C2F20000FC
:104F4000008840F40040049008E041F21C40C2F2A6
:104F5000000000886FF3DF300490FFE7049841F20F
:104F60001C41C2F2000108809DF85500C00748B9F5
:104F7000FFE741F21C40C2F20000008840F001004F
:104F8000039008E041F21C40C2F20000008820F0CB
:104F900001000390FFE7039841F21C41C2F20001B7
:104FA00008809DF855008007002809D4FFE741F2EA
:104FB0001C40C2F20000008840F00400029008E0AB
:104FC00041F21C40C2F20000008820F00400029070
:104FD000FFE7029841F21C41C2F20001088041F251
:104FE0003040C2F2000041F23401C2F200010191EE
:104FF0000522FCF7F7FF0198028841F2F051C2F256
:1050000000014A8042880A808288CA80C0888880DD
:1050100018B080BD80B582B0ADF80600ADF80410C0
:10502000ADF80220ADF800302A2000F0D7F9BDF825
:105030000600013080B200F0B9F9BDF8020001307D
:1050400080B200F0B3F92B2000F0C8F9BDF80400DD
:105050001A3080B200F0AAF9BDF800001A3080B210
:1050600000F0A4F92C2000F0B9F902B080BD0000D6
:1050700080B582B0ADF80600ADF80410ADF802209E
:10508000BDF80620BDF8043010461946FFF7C2FFF0
:10509000BDF8020000F08AF902B080BD80B584B08E
:1050A00084460698ADF80EC0ADF80C10ADF80A2095
:1050B000ADF80830ADF80600BDF80E00BDF80C10D4
:1050C000BDF80A20013ABDF80830013B92B29BB20C
:1050D000FFF7A0FFBDF80C00ADF80400FFE7BDF836
:1050E0000400BDF8081088421EDAFFE7BDF80E0084
:1050F000ADF80200FFE7BDF80200BDF80A108842D3
:105100000BDAFFE7BDF8060000F050F9FFE7BDF845
:1051100002000130ADF80200EDE7FFE7BDF8040042
:105120000130ADF80400DAE704B080BD704700003C
:1051300080B592B0FFF7FAFF43F60040C4F20000DA
:1051400000F01CFF40F60040C4F60000009004216F
:105150000C9100F0A9FD6420019000F073F9009813
:105160000C9900F02FFE019800F06CF9019800F006
:1051700069F9112000F032F97820109000F062F9FE
:10518000B12000F02BF905200E9000F01DF93C2015
:10519000029000F019F9029800F016F9B22000F020
:1051A0001DF90E9800F010F9029800F00DF9029820
:1051B00000F00AF9B32000F011F90E9800F004F99C
:1051C000029800F001F9029800F0FEF80E9800F045
:1051D000FBF8029800F0F8F8029800F0F5F8B42017
:1051E00000F0FCF8032000F0EFF8C02000F0F6F823
:1051F000AB2000F0E9F80B2000F0E6F80C9800F086
:10520000E3F8C12000F0EAF8C520049000F0DCF8D3
:10521000C22000F0E3F80D20059000F0D5F8002042
:10522000119000F0D1F8C32000F0D8F88D20039041
:1052300000F0CAF86A2000F0C7F8C42000F0CEF8E9
:10524000039800F0C1F8EE2000F0BEF8049800F0DA
:10525000C5F80F20099000F0B7F8E02000F0BEF884
:105260000720089000F0B0F80E2000F0ADF80820FC
:10527000069000F0A9F8089800F0A6F810200D900C
:1052800000F0A2F8089800F09FF80220079000F0C4
:105290009BF8089800F098F809200B9000F094F81B
:1052A000099800F091F825200A9000F08DF836203A
:1052B0000F9000F089F8119800F086F8069800F039
:1052C00083F80C9800F080F80D9800F07DF8E1204C
:1052D00000F084F80A2000F077F8059800F074F8E0
:1052E000069800F071F8089800F06EF8099800F040
:1052F0006BF8089800F068F8079800F065F80898CF
:1053000000F062F80B9800F05FF8099800F05CF884
:105310000A9800F059F8352000F056F8119800F07E
:1053200053F80B9800F050F80C9800F04DF80D98D9
:1053300000F04AF8FC2000F051F8802000F044F81A
:105340003A2000F04BF80E9800F03EF80F9800F06D
:1053500045F8109800F038F8212000F03FF8292097
:1053600000F03CF82A2000F039F8119800F02CF8F1
:105370001A2000F029F8119800F026F8692000F0B2
:1053800023F82B2000F02AF8119800F01DF80120D6
:1053900000F01AF8119800F017F8A02000F014F8A7
:1053A0002C2000F01BF812B080BD000080B582B048
:1053B000ADF806009DF8070000F028F89DF80600FB
:1053C00000F024F802B080BD80B582B08DF80700EF
:1053D0009DF8070000F01AF802B080BD80B584B0D7
:1053E0008DF80F0040F60000C4F6000001904FF465
:1053F0000061029100F058FC9DF80F0000F006F8E3
:105400000198029900F0DEFC04B080BD80B582B046
:105410008DF80700FFE743F60040C4F2000000F0FB
:105420001DFE08B9FFE7F6E79DF8071043F60040B8
:10543000C4F2000000F048FE042003F05FFE02B05A
:1054400080BD000080B582B001900198FDF756F94B
:1054500002B080BD81B00090009880684FF6C071A6
:10546000C7F6FF71084002300099886001B07047AC
:1054700081B00090009988684FF6C072C5F6FF723F
:105480001040886001B0704781B00090009880683B
:105490004FF6C071C7F6FF7108400130009988606F
:1054A00001B0704781B000900098806840F0805053
:1054B0004FF6C071C7F6FF7108400099886001B0CF
:1054C0007047000081B000900098806800F0E070A4
:1054D00001B0704781B000900098806800F01F0014
:1054E00001B0704783B0029001910298019900EBDE
:1054F0008100603000900098006800F0F84003B030
:105500007047000081B0009000988068C0F3C00030
:1055100001B0704781B0009000988068C00F01B062
:105520007047000081B0009000988068C0F3407020
:1055300001B0704781B0009000988068C0F34000CF
:1055400001B0704781B000900098806800F00100C1
:1055500001B0704781B000900098806800F00100B1
:1055600001B0704781B0009000988068C0F300706F
:1055700001B0704781B0009000988068C0F380004F
:1055800001B0704781B0009000988068C0F380003F
:1055900001B0704781B000900098C06800F440608E
:1055A000B0FA80F0400901B07047000084B0039069
:1055B000029101920398029901F4407100EB91105D
:1055C0003030009000980068029901F01F021F21FE
:1055D000914088430199C1F3846191400843009947
:1055E000086004B07047000081B0009000988068A7
:1055F0004FF6C071C7F6FF7108400430009988600B
:1056000001B0704784B0039002910192039802990F
:1056100001F0007100EBD150143000900098006848
:105620000299C1F3045207219140884301999140A6
:1056300008430099086004B07047000083B00290EE
:10564000019100920298D0F8B00001996FF3DF4108
:105650008843009A02F018034FF6FF72C0F2070267
:10566000DA40114008440299C1F8B00003B0704715
:1056700082B0019000910198806820F47C1000991C
:1056800008430199886002B07047000082B0019021
:1056900000910198806820F0E0700099084301991A
:1056A000886002B07047000085B0049003910292B8
:1056B00001930498039900EB8100603000900098FA
:1056C00000684FF20001C0F2FF310140029800F083
:1056D000F840019A1043084340F0004000990860E8
:1056E00005B0704784B0039002910192039802992B
:1056F00000EB8100603000900098006820F000709E
:10570000019908430099086004B0704784B0039081
:10571000029101920398029900EB810060300090A1
:105720000098006820F08070019908430099086093
:1057300004B0704784B003900291019203980299DB
:1057400000EB8100603000900098006820F000407D
:10575000019908430099086004B0704782B0019035
:1057600000910198406920F0004000990843019998
:10577000486102B07047000082B00190009101982A
:1057800080684FF6C071C3F6FF710140009800F0C9
:105790008040084400F100400199886002B07047E1
:1057A00082B00190019A41F24C00C4F202000168FB
:1057B000114301600068019908400090009802B010
:1057C0007047000082B00190019A41F24C00C4F28F
:1057D00002000168114301600068019908400090CF
:1057E000009802B07047000082B00190019A41F227
:1057F0005800C4F202000168114301600068019979
:1058000008400090009802B07047000082B00190FC
:10581000019A41F25800C4F202000168114301608C
:105820000068019908400090009802B0704700009D
:1058300082B00190019A41F26000C4F20200016856
:10584000114301600068019908400090009802B07F
:105850007047000081B00090009A40F20441C4F209
:10586000010108689043086001B0704781B0009062
:10587000009A40F22441C4F2010108689043086094
:1058800001B0704781B00090009A40F20C41C4F220
:10589000010108689043086001B0704781B0009032
:1058A000009A40F22C41C4F201010868904308605C
:1058B00001B0704781B00090009A40F20041C4F2FC
:1058C000010108689043086001B0704781B0009002
:1058D000009A40F22041C4F2010108689043086038
:1058E00001B0704781B00090009A40F20841C4F2C4
:1058F000010108689043086001B0704781B00090D2
:10590000009A40F22841C4F20101086890430860FF
:1059100001B0704781B00090009A40F20441C4F297
:10592000010108681043086001B0704781B0009021
:10593000009A40F22441C4F2010108681043086053
:1059400001B0704781B00090009A40F20C41C4F25F
:10595000010108681043086001B0704781B00090F1
:10596000009A40F22C41C4F201010868104308601B
:1059700001B0704781B00090009A40F20041C4F23B
:10598000010108681043086001B0704781B00090C1
:10599000009A40F22041C4F20101086810430860F7
:1059A00001B0704781B00090009A40F20841C4F203
:1059B000010108681043086001B0704781B0009091
:1059C000009A40F22841C4F20101086810430860BF
:1059D00001B0704780B586B005900020049005980E
:1059E000007A002800F0D080FFE7059800680028C2
:1059F00061D0FFE70598407A0146039140B1FFE787
:105A0000039801280DD0FFE70398022812D01AE06E
:105A100005980068FFF71EFF05980068FFF7AAFFCA
:105A200014E005980068FFF745FF05980068FFF748
:105A300071FF0BE005980068FFF79CFF0598006870
:105A4000FFF768FF02E001200490FFE70598807AE5
:105A500080B3FFE70598807A01460291012808D0BB
:105A6000FFE7029802280DD0FFE70298032812D022
:105A70001AE005980068FFF705FF05980068FFF732
:105A800091FF16E005980068FFF72CFF0598006865
:105A9000FFF758FF0DE005980068FFF783FF0598B2
:105AA0000068FFF74FFF04E0049840F00200049004
:105AB000FFE7FFE7FFE705984068002863D0FFE7AE
:105AC0000598407A0146019140B1FFE7019801280D
:105AD0000DD0FFE70198022812D01AE0059840681F
