:020000040800F2
:10000000C02900205503000835790008114F000869
:10001000317900084D1800089D8300080000000099
:100020000000000000000000000000005D820008E9
:10003000811900080000000071800008B5820008E6
:100040006F0300086F0300086F0300086F030008C8
:100050006F0300086F0300086F0300086F030008B8
:100060006F0300086F0300086F03000851180008B1
:100070006F0300086F0300086F0300086F03000898
:100080006F0300086F0300086F0300086F03000888
:100090006F0300086F0300086F0300086F03000878
:1000A0006F0300086F0300086F0300086F03000868
:1000B0004D8300086F0300086F0300086F030008FA
:1000C0006F0300086F0300086F0300086F03000848
:1000D0006F0300086F0300086F0300086F03000838
:1000E0006F0300086F0300086F0300086F03000828
:1000F0006F0300086F0300086F0300086F03000818
:100100006F0300086F0300086F0300086F03000807
:100110006F0300086F0300086F0300086F030008F7
:100120006F0300086F0300086F0300086F030008E7
:100130006F0300086F0300086F0300086F030008D7
:100140006F0300086F0300086F0300080000000041
:10015000000000000000000000000000000000009F
:100160000000000000000000000000006F03000815
:100170006F0300086F0300086F0300086F03000897
:100180006F0300086F0300086F0300086F03000887
:100190006F030008000000006F0300086F030008F1
:1001A0006F0300086F0300086F0300086F03000867
:1001B0006F0300086F0300086F0300086F03000857
:1001C0006F0300086F0300086F0300086F03000847
:1001D0006F0300086F03000800F002F800F0AAF8AF
:1001E00014A696E8000CB244B344DA4501D100F0FD
:1001F000A1F8BAE80F000FA696E83000A5EB0405B9
:1002000004EB0607AAEB0704A7F101074FEA15154F
:100210004FEA3414A4F10104AC4201D300F08AF88F
:1002200013F0010F18BFFB1A43F0010300F001F8AF
:10023000DBE7184764CF000084CF0000103A24BFEA
:1002400078C878C1FAD8520724BF30C830C144BF3B
:1002500004680C6070470000704700000023002411
:1002600000250026103A28BF78C1FBD8520728BFC6
:1002700030C148BF0B6070476E2900F0898170293A
:1002800000F0CD82662909F0D884652909F0D5846B
:10029000672909F0D284612909F0D18403681B0A17
:1002A00028BF41F08001692900F03681642900F0FF
:1002B0003381752900F030816F2900F05B82782945
:1002C00000F09982E92900F0F581E42900F0F2813B
:1002D000F52900F0EF81EF2900F05882F82900F0AD
:1002E00098820368DB0928BF41F08001632900F090
:1002F0009987732900F09E87E32900F0A987F329E5
:1003000000F0AE87002070471FB509F089FC01F0AE
:1003100001F804000020002109F06CFC401C606022
:100320000020002109F050FCE06000F07DF81FBDC6
:1003300010B510BD00F0C0FF1146FFF7E5FF08F053
:10034000A3FF01F09DF803B4FFF7F2FF03BC01F037
:10035000A1F800000948804709480047FEE7FEE78A
:10036000FEE7FEE7FEE7FEE7FEE7FEE7FEE7FEE765
:1003700004480549054A064B7047000039830008C8
:10038000D9010008C01F0020C0290020C021002082
:10039000C02100200FB41CB50C0007AA009007D0A4
:1003A0004142A14202D32044401E01E04FF0FF3001
:1003B000074B7B4469460190069800F002F9002142
:1003C000002C01D0009A11701CBC5DF814FB0000D9
:1003D000330200004FF0000200B5134694469646E3
:1003E000203922BFA0E80C50A0E80C50B1F1200148
:1003F000BFF4F7AF090728BFA0E80C5048BF0CC0F6
:100400005DF804EB890028BF40F8042B08BF704753
:1004100048BF20F8022B11F0804F18BF00F8012BC5
:10042000704770477047704708487CB57844009023
:1004300007487844009C0546019004E02046016886
:1004400008448047241DAC42F8D17CBDB4CE0000E6
:10045000B2CE000070B5044685690068C10601D5BA
:10046000302600E02026C00707D070BDD4E9012166
:1004700030469047206A401C20626D1EF6D570BD44
:1004800070B5044685690078C00707D170BDD4E90E
:10049000012120209047206A401C20626D1EF6D565
:1004A00070BD09684A0501D540B27047C905FCD541
:1004B00000B2704709684A0501D5C0B27047C90546
:1004C000FCD580B2704770B50C460546012A05D0B0
:1004D0002878800600D5EA69002302E0012305E0C0
:1004E0005B1C934202D2E05C0028F9D1A869E618AF
:1004F000C01AA861286A184428622846FFF7AAFF94
:1005000004E0D5E9012114F8010B9047B442F8D377
:100510002846FFF7B5FF70BD2DE9F04106460024DF
:1005200010687529314616A510D0FFF7BAFF0028CC
:1005300002DA404213A507E031688A0701D512A507
:1005400002E0490704D511A5012401E0FFF7B2FF3D
:1005500000210A2206F1240709E0B0FBF2FCB0FBFF
:10056000F2F302FB1C00303078541846491C002876
:10057000F3D123462A463046BDE8F04100F063BA85
:10058000000000002D0000002B00000020000000F3
:1005900011680268006A530501D508700AE0D305A6
:1005A00001D5088006E0130603D5C217C1E9000291
:1005B00000E008600120704701694A1C0261087868
:1005C000704700B58FB0CDE9013100210591054993
:1005D0007944CDE903101146684600F02BF90FB0BD
:1005E00000BD0000E5FFFFFFD1E900239A4202D2DF
:1005F000531C0B60107070472DE9FF5F15468A464B
:100600000446DFF8AC80F8440027D8E900103E46E5
:10061000CDE9001010E03AF816106A4602A800F082
:1006200023FE411C07D02178890603D5E2693918D9
:1006300091420DD80744761C2078800602D5E069E7
:10064000B84205DDAE42E6DB3AF816000028E2D1FA
:10065000A069C01BA0612046FFF7FCFED8E900108E
:10066000CDE90010002017E03AF818106A4602A8F9
:1006700000F0FAFDB0F1FF3F81460BD000250DF1EF
:10068000080B05E0D4E901211BF8050090476D1C1B
:100690004D45F7D308F10100B0428046E4DB206A03
:1006A000384420622046FFF7EBFEBDE8FF9F0000C4
:1006B0003A9600002DE9F0418046D21D22F0070253
:1006C0000025D2E90002F52915A614D0011E72F109
:1006D000000106DA0023D0EB030063EB020211A64F
:1006E00008E0D8F800108B0701D50FA602E04907F3
:1006F00001D50EA601251146002408F1240704E0C7
:1007000000F05CF930323A55641C50EA0102F7D12E
:100710002B46324621464046BDE8F04100F093B9F1
:10072000000000002D0000002B0000002000000051
:1007300030B4002100F1240408E002F00705D208DB
:10074000303542EA4372DB086554491C52EA03051E
:10075000F3D10468002310A2250708D504F0200473
:100760000C4304D0C46901230CA2641EC46130BCD4
:1007700000F069B910B5044621461068FFF79AFEEB
:1007800002462046BDE810400023D1E7D21D22F0EA
:100790000701D1E90023CBE7000000003000000092
:1007A000F0B40D460188090502D5214C7C4402E0D5
:1007B0001F4C7C440E34002100F1240608E002F0B6
:1007C0000F071209E75D42EA03721B097754491CBF
:1007D00052EA0307F3D102780023120704D5702DE3
:1007E00006D009B1022311342246F0BC00F02BB927
:1007F00001231034F8E770B504460D462146106811
:10080000FFF758FE024629462046BDE87040002307
:10081000C6E7D21D22F00703D3E90023C0E703682F
:10082000126843F0200303600823C3610023B7E785
:100830009C9400002DE9F05F894604464FF0000AC1
:10084000DFF874B1FB44C0F820A02046E168884777
:10085000002874D0252806D0D4E901219047206AC9
:10086000401C2062F1E700265F462046E168884789
:100870002028054607DB312D05D2781910F8200C09
:1008800008B10643F1E7B00701D526F00406C4F825
:100890001CA00027C4F818A02A2D09D0284609F06A
:1008A0008BF938B304EB8708303DC8F8185019E0CD
:1008B00059F8041B204604EB87029161E1688847E0
:1008C000012F054618D1E069002820DA26F020061D
:1008D0001DE0D8F8180000EB800005EB4000303830
:1008E000C8F818002046E1688847054609F064F911
:1008F0000028EED1012F0AD02E2D08D12046E16824
:1009000088477F1C0546022F46F02006C4DBA069FD
:10091000002803DA404246F00106A061F00701D04A
:1009200026F010066C2D0BD0682D09D04C2D39D037
:100930006A2D35D0742D35D07A2D33D016E038E0BD
:10094000E1682F4620468847B842054609D16C2FFA
:1009500026D04FF48060E16806432046884705466C
:1009600004E06C2F1AD04FF4807006430DB3A5F14C
:100970004100192802D8203546F400664A46294627
:10098000204626604E46FFF777FC80B101280BD049
:10099000F61D26F0070000F1080956E74020E4E7BD
:1009A0008020D8E70020D6E706F104094DE7284665
:1009B00052E7206ABDE8F09F2C94000030B5B0F1FA
:1009C0000A0271F100034FEA900E4EEA817EB0EB0D
:1009D0000E0061EB91014FEA101E4EEA017E10EB12
:1009E0000E0041EB11114FEA102E4EEA016E10EB92
:1009F0000E0041EB11214FEA104E4EEA014E10EB72
:100A00000E0041EB1141401841F100014FEAD000C6
:100A100040EA41704FEAD1014FEA810444EA907400
:100A200010EB800544EB01046D1944EB0404521BE8
:100A3000A3414FF0000348BF0A3200D530BD401C2F
:100A400041F1000130BD2DE9F0470D46994692462F
:100A5000044600F124080168880604D5E06921F005
:100A60001001216000E00120A84201DD471B00E0E9
:100A70000027A1697A1902EB0900081AA061207801
:100A8000C00602D42046FFF7E5FC002608E0D4E9C2
:100A900001211AF806009047206A401C761C20624B
:100AA0004E45F4DB2078C0060AD52046FFF7D2FC7D
:100AB00006E0D4E9012130209047206A401C2062E2
:100AC000381EA7F10107F4DC07E0D4E9012118F88A
:100AD00005009047206A401C2062281EA5F10105F0
:100AE000F3DC2046FFF7CCFC2078000602D502207C
:100AF000BDE8F0870120FBE72DE9FF4F0C461E46BD
:100B00004FF0FF378BB0D2E90001DDF860800A902A
:100B10008A46C1F30A5505B93D46002108464FF003
:100B20000000BAF1000F00F4400005DA00EB80008D
:100B30004FF4400101EA50004FEA9059B9F1010F1A
:100B400000DDB9460A9850EA4A000ED044F610502B
:100B5000A5F2FF3545432F14B8F1000F1ED07542A2
:100B6000291E1EDDC9F100021CE0B8F1010F4FF093
:100B7000000001D0302103E0F24305E02154401C85
:100B8000B042FBDB30460022002121540B99C1F812
:100B90000880C1E900200FB0BDE8F08FBD1B6D1CBF
:100BA000DEE74A4600DA694206A800F0F7FB06AB2A
:100BB00093E8070003AB83E8070050460A9908F062
:100BC0001AFC8DE80700A0F500501F38009003982C
:100BD000002D0ADD42F21F014A460844002303A902
:100BE0000390684608F084FE09E0A0F500504A46EC
:100BF0001F38002303A90390684608F08EFE8DE895
:100C000007000004000C03D04FF0FF30410800E063
:100C10001046B8F1000F03D00022009215461EE0E6
:100C2000751E05D4FFF7CAFE303262556D1EF9D528
:100C3000B3460122084302D000227F1C04E0207842
:100C4000302801D100227F1E002A099784D01DE0A0
:100C5000112D07DAFFF7B2FE303262556D1C50EAF3
:100C60000102F5D1084302D00098C8B10EE000217E
:100C7000681E05E0235C625C63542254401E491CDC
:100C80008142F7DBAB46A81B401E0990002004F808
:100C90000B000B98099AC0F80880C0E9002B7AE78E
:100CA00011264FF0000857E72DE9F04F884604461B
:100CB000D21D22F0070191B0D1E90001CDE90A016E
:100CC00008F062FF02460B98C00F01D02D2007E00C
:100CD0002068810701D52B2002E0202101EAC00015
:100CE000032A099001D0072A05DB03464146204626
:100CF00000F014FB0BE12078800601D5E06900E0EC
:100D00000620B8F1650F814606D0B8F1660F18D0FD
:100D1000B8F1670F70D131E00020B9F1110F0090E8
:100D200001DB112301E009F101030AAA01A90CA8C2
:100D3000FFF7E2FEDDE90C70002609F101058346AC
:100D400047E001204B4600904FF000470AAA01A956
:100D50000CA8FFF7D1FEDDE90DB00C995D46002629
:100D600010B909F101000D18B9EB050003D4C0F169
:100D7000FF3609F10105A5EB09002BE0B9F1010FE0
:100D800001DA4FF001090020B9F1110F0090484637
:100D900001DD112300E003460AAA01A90CA8FFF710
:100DA000ABFEDDE90C704D46002683462078000737
:100DB0000AD4AB4500DA5D4601A8012D04DD4119D6
:100DC00011F8011C302907D04F4502DA17F1040F42
:100DD00004DA012082460FE06D1EEEE7002F02DCF0
:100DE000ED1B3E4403E0781CA84200DD7D1CB81BCF
:100DF00000F1010A4FF000472078000703D4AA450C
:100E000001DB4FF0FF3A0021B7F1004F0DF143082D
:100E10008DF8431024D002202B23002F01DA7F42CB
:100E20002D230A21021EA0F1010000DC5FB197FB17
:100E3000F1FC97FBF1F201FB1C7C17460CF1300C26
:100E400008F801CDEEE7A8F101000370218809053B
:100E500001D5452100E06521A0F1010800F8011C41
:100E600009980FA9A1EB0807FF1D00B10120411946
:100E700001EBEA70A1693844081A401EA06120788D
:100E8000C00602D42046FFF7E5FA099828B1D4E954
:100E900001219047206A401C20622078C00622D59C
:100EA0002046FFF7D7FA1EE0002E04DBB34502DD33
:100EB00001A8805D00E03020D4E901219047206A3C
:100EC000401C2062761CAAF101005FEA000A0AD1E8
:100ED00000F020FAC0680168405CD4E90121904725
:100EE000206A401C2062281EA5F10105DCDC07E019
:100EF000D4E9012118F8010B9047206A401C2062B8
:100F0000381EA7F10107F3DC2046FFF7B9FA0320EA
:100F100011B041E62DE9F04F04460D46D21D22F0F6
:100F2000070089B0D0E900974846394608F02CFE02
:100F30000246F80F01D02D2307E02068810701D574
:100F40002B2302E0202101EAC0038DF820300BB1F1
:100F5000012000E00020032A824601D0072A04DB9A
:100F60002946204600F0DAF93FE12078800601D4D6
:100F70000D2500E0E569C7F30A560D2D49DA002179
:100F80004FEA175B08464FF00000002F00F44000C6
:100F900007DA00EB80004FF4400100EBD07001EA6B
:100FA00060008115012901DD4FF0FF3100224FEA79
:100FB000850CBCF1180F06D31346ACF118004FF0A6
:100FC0008052C24003E04FF4801323FA0CF30CF17B
:100FD0000C0CBCF1200F04D3ACF1200C09FA0CF07E
:100FE00001E007FA0CF000294FF0004801DD18B9C4
:100FF0000FE00ED140450CD319EB02095F4121B936
:10100000404502D19F4329EA0209BBEB175F00D09C
:10101000761C2088000502D57B48784402E07A4897
:101020007844193808AA302302F80A30037C0AF100
:101030000101002E0AF1020A53546A4602DC4FF005
:10104000300101E04FF031014FF001088DF8001040
:1010500002D0A6F2FF3603E059EA470100D06B4EFA
:10106000002D02DC2178090704D54FF002082E215B
:101070008DF80110C44600210BE0C7F303433F0184
:10108000C35C491C6D1E02F80830052908F10108EF
:1010900001DA002DF1DC00210CE000EB1973491C92
:1010A0001B786D1E082902F808304FEA091908F16B
:1010B000010801DA002DF0DC21688B0602D516E06C
:1010C000A8F10108E04505DD02EB080313F8013C37
:1010D000302BF5D0B8F1000F09DD02EB080313F84F
:1010E000013C2E2B03D1090701D4A8F10108002DE2
:1010F00005DD3E2102F808106D1E08F10108407C54
:10110000002E02F8080008F1010804DA2D207642CA
:1011100002F8080002E02B2002F808000A214FF430
:101120007A70864208F101080BDB96FBF0F330334E
:1011300002F8083096FBF0F308F1010800FB136693
:1011400001E0642E0CDB642096FBF0F3303302F8F0
:10115000083096FBF0F308F1010800FB136601E08C
:101160000A2E06DB96FBF1F0303002F8080008F199
:10117000010896FBF1F001FB1060303002F8080026
:10118000A16908F1010808EB050202EB0A00081A40
:10119000A0612078C00602D42046FFF75BF9216ADF
:1011A00008AE01EB0A00206204E0D4E9012116F840
:1011B000010B9047BAF1010AF7D22078C00602D598
:1011C0002046FFF747F96E4609E016F8010B3E2866
:1011D0000FD0D4E901219047206A401C2062B8F169
:1011E0000108F2D22046FFF74BF909B00320BDE811
:1011F000F08F206A2844206203E0D4E901213020E6
:1012000090476D1EEBD3F8E77A8C000002FCFFFFDD
:1012100010B5436913B1AFF3008001E0FFF753F954
:10122000012010BD127800F124010A7000224A70DA
:101230000122EDE711684FF0FF32E9E710B543698D
:1012400013B1AFF3008001E0FFF7D6F9012010BD24
:10125000128800F1240182840022C2840122EDE779
:1012600011684FF0FF32E9E72DE9F04116460C46D0
:10127000054600F047F8036893F80101012807D0FC
:10128000FF2C12D8185D80B101202C70BDE8F081D0
:10129000D3F807013246214603F20713C718284640
:1012A000BC46BDE8F041002360474FF0FF30EDE75A
:1012B00000487047100000207546FFF7F9FFAE4662
:1012C00005006946534620F00700854618B020B552
:1012D000FFF74EF8BDE820404FF000064FF0000742
:1012E0004FF000084FF0000BAC46ACE8C009ACE88A
:1012F000C009ACE8C009ACE8C00921F007018D467F
:101300007047000010B500F005F8001D10BD00BFCB
:10131000E588000000487047300000202DE9F041CA
:101320001F46044603260168072A01F4006004DB17
:1013300008B116A505E016A503E008B115A500E063
:1013400015A521F010002060A069C01EA0610FB19A
:10135000401EA0612046FFF77DF84FB1D4E901217E
:1013600038469047206A401C2062C01C206206E07C
:10137000206AFAE7D4E9012115F8010B9047761E9F
:10138000F8D22046FFF77CF8BDE8F0814E414E00D0
:101390006E616E00494E4600696E66002DE9F047A9
:1013A000814616468AB0354878440DC88DE80D0050
:1013B00032487844801C03AC0DC884E80D0041F627
:1013C0009B300844372190FBF1F290FBF1F5A5F139
:1013D000800501FB12041B3C02D56442012000E0A1
:1013E0000020DFF898A080460027FA44AAF1BE0A40
:1013F0000EE0E0070AD03246684607EB47010123BA
:101400000AEB810108F089FA8DE8070064107F1C5F
:10141000002CEED1194F7F44AE3F19E0E80715D0FC
:1014200007EB04100DF1180A90E80E008AE80E0090
:10143000C068F04201D1981908903246012306A9EC
:1014400003A808F06AFA03AB83E807006D10641C78
:10145000002DE3D14FF0010332466946B8F1000F89
:1014600003A802D008F044FA01E008F056FAC9E9EE
:101470000001C9F808200AB0BDE8F0877C890000A7
:1014800010B50446AFF300802046BDE81040FEF7DB
:101490005ABF000001491820ABBEFEE7260002003B
:1014A000704700000000000030B44FF0013C50F8DD
:1014B000042B51F8043BCCFA52F4D51A20D1FCB9D4
:1014C00050F8042B51F8043BCCFA52F4D51A17D13A
:1014D000B4B950F8042B51F8043BCCFA52F4D51AA5
:1014E0000ED16CB950F8042B51F8043BCCFA52F4ED
:1014F000D51A05D1002CDAD030BC4FF0000070476F
:1015000029BAB1FA81F111F01801D1F1200084401B
:10151000F2D1CA40CB4012F0FF0213F0FF0330BCFF
:10152000D01A704780B582B001900198806A00900F
:101530000098C06D10F0500F4BD1FFE70099C86DB7
:1015400040F40070C8650098006800680007002833
:1015500021D5FFE70098006804F0F2F8D0B1FFE76A
:1015600000980068C0688004002812D4FFE7009942
:10157000C86D20F48070C8650098C06DC004002854
:1015800006D4FFE70099C86D40F00100C865FFE789
:10159000FFE7FFE719E000980068C06880070028AF
:1015A00012D4FFE70099C86D20F48070C8650098D8
:1015B000C06DC004002806D4FFE70099C86D40F054
:1015C0000100C865FFE7FFE7FFE7009801F048F872
:1015D00010E00098C06DC006002804D5FFE7009811
:1015E00001F046F805E00098406D416B019888478E
:1015F000FFE7FFE702B080BD80B582B0019001989F
:10160000806A00900099C86D40F04000C86500995C
:10161000086E40F004000866009801F029F802B056
:1016200080BD000080B582B001900198806A009072
:10163000009801F019F802B080BD000080B584B0B8
:1016400002900298006804F04BF80090029800683D
:1016500004F04EF800284BD0FFE70098002847D14F
:10166000FFE702980068806800F00D00012809D1AA
:10167000FFE70298006803F0C3FF029801680320A7
:1016800008600DE00299C86D40F01000C86502992D
:10169000086E40F00100086601208DF80F002BE075
:1016A00002F05CF80190FFE7029800688068C007CC
:1016B000E8B1FFE702F052F80199401A032815D368
:1016C000FFE7029800688068C00770B1FFE70299E1
:1016D000C86D40F01000C8650299086E40F0010026
:1016E000086601208DF80F0006E0FFE7DCE7FFE762
:1016F00000208DF80F00FFE79DF80F0004B080BDBB
:1017000080B586B00490002002900498006803F031
:10171000EFFF002840F09280FFE70498006880689F
:101720003F21C8F2000108420ED0FFE70499C86DBE
:1017300040F01000C8650499086E40F0010008668A
:1017400001208DF817007DE00498006803F072FF17
:10175000049801680120B1F1A04F01900CD0FFE77F
:10176000049800684FF60071CAF6FF710844B0FA99
:1017700080F040090190FFE70198C10740F2007036
:10178000C5F2000000291CBF40F20030C5F2000085
:1017900003F06EFF4FEA002000281CD5FFE740F25F
:1017A0000000C2F200000068800942F66351C0F2F6
:1017B0003E51A0FB0110800900EB40010C2000EB22
:1017C00081000290FFE7029820B1FFE702980138FC
:1017D0000290F8E7FFE701F0C1FF0390FFE70498EC
:1017E00000680068C00740BBFFE70498006803F08A
:1017F0007FFF28B9FFE70498006803F01BFFFFE7AD
:1018000001F0ACFF0399401A032815D3FFE70498B1
:1018100000680068C00770B9FFE70499C86D40F020
:101820001000C8650499086E40F0010008660120A8
:101830008DF8170006E0FFE7D1E7FFE700208DF8FD
:101840001700FFE79DF8170006B080BDFFE7FEE731
:1018500080B541F28040C2F2000001F0D3FB80BDB0
:1018600084B003900398006840F20741C4F202017B
:10187000884206D8FFE740F60000C4F2020000905C
:1018800005E040F62000C4F202000090FFE7009857
:1018900002900398007808384CF6CD41CCF6CC4144
:1018A000A0FB011000090190029803994A6C22F0F4
:1018B000030210448864039940F68000C4F20200D9
:1018C000C864019800F01F01012088400399086551
:1018D00004B0704782B0019001980079009000999F
:1018E00040F6FC00C4F2020000EB8100019948655B
:1018F000019940F64010C4F2020088650098013852
:1019000000F01F01012088400199C86502B07047AE
:1019100084B003900291019200930398C16C006D12
:1019200048600398406D28B1FFE70398816DC06D52
:101930004860FFE70398016C406C00F01F02012033
:10194000904048600098039909684860039880684F
:10195000102809D1FFE70198039909688860029867
:1019600003990968C86008E00298039909688860CB
:10197000019803990968C860FFE704B07047000048
:101980007047000081B0EFF3108072B60090FFE75F
:10199000FEE7000080B586B004900391002001901E
:1019A000FFE7049890F85800012804D1FFE70220CF
:1019B0008DF817005AE00499012081F85800FFE7DC
:1019C000FFE70498FFF73AFE8DF80B009DF80B0037
:1019D000D8BBFFE70498C06D40F0020020F48850A7
:1019E0000499C86504980068039903F09BFFFFE71A
:1019F0000498006803F064FEF0B1FFE7019801303D
:101A0000019001984DF60261C0F20401884212D3A0
:101A1000FFE70498C06D40F0100020F00200049928
:101A2000C865FFE70499002081F85800FFE701200E
:101A30008DF817001AE0DBE70498C06D40F0010054
:101A400020F002000499C86505E00499C86D40F0D3
:101A50001000C865FFE7FFE70499002081F85800EF
:101A6000FFE79DF80B008DF81700FFE79DF81700C2
:101A700006B080BD80B5AEB02C902B9100208DF8C3
:101A8000AB002B98006808B1FFE7FFE7FFE72C9851
:101A900090F85800012804D1FFE702208DF8B70024
:101AA0005DE12C99012081F85800FFE7FFE7002055
:101AB000259026902C980068B0F1A04F06D1FFE742
:101AC00040F20010C5F200000E9015E02C9800685E
:101AD00040F20041C5F20001884207D1FFE740F221
:101AE0000050C5F200000E900C9003E000200E9014
:101AF0000C90FFE70C98FFE70E9878B9FFE72C9958
:101B0000C86D40F02000C865FFE72C99002081F8DF
:101B10005800FFE701208DF8B70020E10E9803F090
:101B200007FE0D902C98006803F002FE002840F09C
:101B30000281FFE70D98002840F0FD80FFE72C9818
:101B400001680120B1F1A04F0B900CD0FFE72C9859
:101B500000684FF60071CAF6FF710844B0FA80F0D1
:101B600040090B90FFE70B98C10740F20070C5F2E7
:101B7000000000291CBF40F20030C5F2000029908F
:101B80002B980068002872D0FFE72998806820F41D
:101B900060402B9949682C9A92F8382041EA4231EA
:101BA0000843299988602C9801680120B1F1A04F61
:101BB0000A900CD0FFE72C9800684FF60071CAF627
:101BC000FF710844B0FA80F040090A90FFE70A98D4
:101BD000C10740F20070C5F2000000291CBF40F2AE
:101BE0000030C5F2000040F20031C5F20001884229
:101BF00010D1FFE74FF0A04003F082FD089040F2C3
:101C00000010C5F2000003F07BFD01460898084370
:101C100009901BE040F20040C5F2000003F070FDA7
:101C2000069040F20050C5F2000003F069FD014645
:101C300006980843079040F20060C5F2000003F0E8
:101C40005FFD0146079808430990FFE7099868B9C6
:101C5000FFE72998806840F61F7188432B9A116826
:101C600092681143084329998860FFE762E0299947
:101C7000886820F4604088602C9801680120B1F1E8
:101C8000A04F05900CD0FFE72C9800684FF600712C
:101C9000CAF6FF710844B0FA80F040090590FFE7EA
:101CA0000598C10740F20070C5F2000000291CBF72
:101CB00040F20030C5F2000040F20031C5F20001F0
:101CC000884210D1FFE74FF0A04003F019FD0390C8
:101CD00040F20010C5F2000003F012FD0146039827
:101CE000084304901BE040F20040C5F2000003F0FE
:101CF00007FD019040F20050C5F2000003F000FD26
:101D0000014601980843029040F20060C5F20000CD
:101D100003F0F6FC0146029808430490FFE704989C
:101D200038B9FFE72999886840F61F7290438860A8
:101D3000FFE7FFE708E02C99C86D40F02000C86578
:101D400001208DF8AB00FFE7FFE72C99002081F818
:101D50005800FFE79DF8AB008DF8B700FFE79DF84E
:101D6000B7002EB080BD000080B5C4B02490239190
:101D700000208DF88B001F902398C0680021C4F2CA
:101D80007F01884201D0FFE700E0FFE7FFE72498EA
:101D900090F85800012805D1FFE702208DF8970040
:101DA00000F059BC2499012081F85800FFE7FFE7B3
:101DB0002498006803F0B4FC002840F03884FFE762
:101DC0002498006823990A68496803F0C5FC2498A0
:101DD000006803F0A5FC1E902498006803F068FCDE
:101DE0001D901E98002840F0B881FFE71D9800283C
:101DF00040F0B381FFE723988068B0F1004F0ED127
:101E0000FFE72498006823990968002203F0D0FCBA
:101E1000249800684FF0004103F076FD0CE0249810
:101E20000068239A1168926803F0C2FC2498006845
:101E3000002103F069FDFFE72398406924990968B0
:101E4000C96801F018018908884021902398006929
:101E500004281CD0FFE72498006823990A680969C0
:101E6000219B03F0F7FC24980068239A116992697A
:101E700003F022FD24980068239A1169127F013A29
:101E8000B2FA82F25209520603F002FD64E124988C
:101E90000068002103F0FCFB400348B9FFE72498E9
:101EA0000068002103F0F4FBC0F384601C9018E08C
:101EB00024980068002103F0EBFB90FAA0F0429018
:101EC000429820B9FFE720208DF80F0105E04298E5
:101ED000B0FA80F08DF80F01FFE79DF80F011C901C
:101EE000FFE71C981B9023980068400330B9FFE778
:101EF00023980068C0F384601A9015E02398006866
:101F000090FAA0F04090409820B9FFE720208DF88B
:101F1000070105E04098B0FA80F08DF80701FFE76F
:101F20009DF807011A90FFE71B981A99884207D17C
:101F3000FFE7249800680022114603F0D1FCFFE778
:101F400024980068012103F0A3FB400348B9FFE790
:101F500024980068012103F09BFBC0F38460199072
:101F600018E024980068012103F092FB90FAA0F099
:101F70003E903E9820B9FFE720208DF8FF0005E055
:101F80003E98B0FA80F08DF8FF00FFE79DF8FF0063
:101F90001990FFE71998189023980068400330B90A
:101FA000FFE723980068C0F38460179015E023983A
:101FB000006890FAA0F03C903C9820B9FFE7202000
:101FC0008DF8F70005E03C98B0FA80F08DF8F70046
:101FD000FFE79DF8F7001790FFE7189817998842D8
:101FE00007D1FFE7249800680121002203F078FC64
:101FF000FFE724980068022103F04AFB400348B938
:10200000FFE724980068022103F042FBC0F38460DC
:10201000169018E024980068022103F039FB90FA2A
:10202000A0F03A903A9820B9FFE720208DF8EF0011
:1020300005E03A98B0FA80F08DF8EF00FFE79DF8E0
:10204000EF001690FFE7169815902398006840035C
:1020500030B9FFE723980068C0F38460149015E05E
:102060002398006890FAA0F03890389820B9FFE7DC
:1020700020208DF8E70005E03898B0FA80F08DF860
:10208000E700FFE79DF8E7001490FFE71598149923
:10209000884207D1FFE7249800680221002203F05C
:1020A0001FFCFFE724980068032103F0F1FA4003C6
:1020B00048B9FFE724980068032103F0E9FAC0F368
:1020C0008460139018E024980068032103F0E0FA7C
:1020D00090FAA0F03690369820B9FFE720208DF8CE
:1020E000DF0005E03698B0FA80F08DF8DF00FFE7FA
:1020F0009DF8DF001390FFE7139812902398006873
:10210000400330B9FFE723980068C0F38460119062
:1021100015E02398006890FAA0F03490349820B924
:10212000FFE720208DF8D70005E03498B0FA80F062
:102130008DF8D700FFE79DF8D7001190FFE71298C0
:102140001199884207D1FFE72498006803210022F3
:1021500003F0C6FBFFE7FFE7FFE72498006803F002
:10216000C7FA002840F04481FFE724980068239ACA
:102170001168D26803F038FB2398C0680021C4F2CC
:102180007F01884240F03381FFE724980068109077
:1021900023980068400330B9FFE723980068C0F334
:1021A00084600F9015E02398006890FAA0F03290B8
:1021B000329820B9FFE720208DF8CF0005E0329853
:1021C000B0FA80F08DF8CF00FFE79DF8CF000F90B8
:1021D000FFE70F98013000F01F0009287DD8FFE7C6
:1021E00023980068400330B9FFE723980068C0F3E4
:1021F00084600E9015E02398006890FAA0F030906B
:10220000309820B9FFE720208DF8C70005E030980E
:10221000B0FA80F08DF8C700FFE79DF8C7000E9078
:10222000FFE70E98013000F01F0080060D90239804
:102230000068400330B9FFE723980068C0F384606A
:102240000C9015E02398006890FAA0F02E902E983C
:1022500020B9FFE720208DF8BF0005E02E98B0FAE6
:1022600080F08DF8BF00FFE79DF8BF000C90FFE7FE
:102270000D980C99013101F01F0201219140084392
:102280000B9023980068400330B9FFE7239800685B
:10229000C0F384600A9015E02398006890FAA0F0DB
:1022A0002C902C9820B9FFE720208DF8B70005E08E
:1022B0002C98B0FA80F08DF8B700FFE79DF8B700D2
:1022C0000A90FFE70B980A99013101F01F0101EB19
:1022D000410140EA0150099082E0239800684003E0
:1022E00030B9FFE723980068C0F38460089015E0D8
:1022F0002398006890FAA0F02A902A9820B9FFE766
:1023000020208DF8AF0005E02A98B0FA80F08DF813
:10231000AF00FFE79DF8AF000890FFE70898013095
:1023200000F01F008006079023980068400330B932
:10233000FFE723980068C0F38460069015E02398B7
:10234000006890FAA0F02890289820B9FFE7202094
:102350008DF8A70005E02898B0FA80F08DF8A70066
:10236000FFE79DF8A7000690FFE70798069901315F
:1023700001F01F0201219140084305902398006855
:10238000400330B9FFE723980068C0F384600490ED
:1023900015E02398006890FAA0F02690269820B9BE
:1023A000FFE720208DF89F0005E02698B0FA80F026
:1023B0008DF89F00FFE79DF89F000490FFE70599C7
:1023C0000498013000F01F0000EB40020020CFF61F
:1023D000206000EB0250084340F000700990FFE7D6
:1023E00010980999239A926803F0E2F9FFE7FFE752
:1023F0002398408848F20801084200F01781FFE75F
:10240000249801680120B1F1A04F03900CD0FFE7A0
:10241000249800684FF60071CAF6FF710844B0FABC
:1024200080F040090390FFE70398C10740F2007075
:10243000C5F2000000291CBF40F20030C5F20000C8
:1024400003F016F920902398006840F20001CCF2C6
:102450002131884208D0FFE7239800681021C9F293
:10246000C00188425AD1FFE79DF88200000600288B
:1024700054D4FFE724980068B0F1A04F09D0FFE7DB
:102480002498006840F20061C5F20001884244D1FE
:10249000FFE7249801680120B1F1A04F02900CD011
:1024A000FFE7249800684FF60071CAF6FF710844F0
:1024B000B0FA80F040090290FFE70298C10740F2AD
:1024C0000070C5F2000000291CBF40F20030C5F2C8
:1024D0000000209941F4000103F0AEF940F2000041
:1024E000C2F2000000684FEA901042F66351C0F259
:1024F0003E51A0FB01104FEA901000EB40014FF05D
:102500000C0000EB81001F90FFE71F9820B1FFE750
:102510001F9801381F90F8E7FFE786E023980068CE
:102520000021CCF2527188423ED1FFE79DF8830032
:10253000C007C8BBFFE72498006840F20011C5F24D
:102540000001884209D1FFE72498006840F2005159
:10255000C5F20001884226D0FFE7249801680120D7
:10256000B1F1A04F01900CD0FFE7249800684FF61E
:102570000071CAF6FF710844B0FA80F0400901907A
:10258000FFE70198C10740F20070C5F20000002982
:102590001CBF40F20030C5F20000209941F080716C
:1025A00003F04AF9FFE73FE0239800680021CCF6EA
:1025B0008431884236D1FFE79DF88200400600282A
:1025C00030D4FFE72498006840F20011C5F2000102
:1025D000884226D0FFE7249801680120B1F1A04F7E
:1025E00000900CD0FFE7249800684FF60071CAF6FF
:1025F000FF710844B0FA80F040090090FFE70098AE
:10260000C10740F20070C5F2000000291CBF40F273
:102610000030C5F20000209941F4800103F00CF96C
:10262000FFE700E0FFE7FFE7FFE7FFE708E02499A7
:10263000C86D40F02000C86501208DF88B00FFE7D1
:10264000FFE72499002081F85800FFE79DF88B00F0
:102650008DF89700FFE79DF8970044B080BD00001B
:1026600081B0009001B0704781B0009001B0704718
:1026700081B0009001B0704780B58EB00C90002002
:102680008DF82F0007900C9820B9FFE701208DF8F6
:102690003700DCE10C98406940B1FFE70C9890F8F6
:1026A0002400012801D1FFE7FFE7FFE70C98C06D88
:1026B00050B9FFE70C9800F0CFF90C99002008669C
:1026C0000C9981F85800FFE70C98006803F000F8B7
:1026D00028B1FFE70C98006802F0A0FFFFE70C9814
:1026E000006803F015F8F0B9FFE70C98006802F0F5
:1026F000AFFF40F20000C2F200000068800942F61D
:102700006351C0F23E51A0FB01108109022000EB91
:1027100041000790FFE7079820B1FFE707980138CD
:102720000790F8E7FFE70C98006802F0F1FF70B936
:10273000FFE70C99C86D40F01000C8650C99086E51
:1027400040F00100086601208DF82F00FFE70C988B
:10275000006802F0E5FF09900C98C06DC0060028E3
:1027600000F16781FFE70998002840F06281FFE7E8
:102770000C98C06D40F0020020F480700C99C86580
:102780000C98006802F0B4FF00287CD1FFE70C9899
:1027900001680120B1F1A04F06900CD0FFE70C9822
:1027A00000684FF60071CAF6FF710844B0FA80F075
:1027B00040090690FFE70698C10740F20070C5F295
:1027C000000000291CBF40F20030C5F2000040F2BA
:1027D0000031C5F20001884210D1FFE74FF0A04060
:1027E00002F086FF049040F20010C5F2000002F0F3
:1027F0007FFF01460498084305901BE040F200402B
:10280000C5F2000002F074FF029040F20050C5F2E1
:10281000000002F06DFF014602980843039040F269
:102820000060C5F2000002F063FF01460398084310
:102830000590FFE7059828BBFFE70C980168012089
:10284000B1F1A04F01900CD0FFE70C9800684FF653
:102850000071CAF6FF710844B0FA80F04009019097
:10286000FFE70198C10740F20070C5F2000000299F
:102870001CBF40F20030C5F200000C99496802F01C
:10288000CDFFFFE7FFE70C994A7FC86B40EA423073
:102890008A68CB681843104391F8241040EA01403D
:1028A0000A900C9890F8240001280BD1FFE70C98AF
:1028B000816A0020CFF6FE7000EB41410A98084380
:1028C0000A90FFE70C98C06A50B1FFE70C99C86AFC
:1028D000096B00F4787001430A9808430A90FFE7F7
:1028E0000C980068C06844F20701CFF6F071084008
:1028F0000A9908430C990968C8600C980068006937
:1029000020F040600C9A1168526B104308610C98DB
:10291000006802F0CDFE08900998002868D1FFE712
:102920000898002864D1FFE70C99087F91F83810C7
:10293000800340EA41000A900C980068C06844F2A5
:10294000020188430A9908430C990968C8600C98E9
:102950000069A0B1FFE70C980168086940F4803075
:1029600008610C980068D0F8C00043F6FF718843F6
:102970000C9A116812691043C1F8C00011E00C985C
:102980000168086920F4803008610C980068D0F86C
:10299000C00043F6FF7188430C990968C1F8C00074
:1029A000FFE70C9890F84000012819D1FFE70C9838
:1029B0000068006940F2FD7120EA01020C9B196871
:1029C000586CD3F848E0D3F84CC040EA0E0040EA17
:1029D0000C001B6D1843104340F00100086106E035
:1029E0000C980168086920F001000861FFE7FFE723
:1029F0000C98406901280CD1FFE70C980068006B27
:102A000020F00F000C9A1168126A013A1043086313
:102A100006E00C980168086B20F00F000863FFE7E0
:102A20000C98C06D40F0010020F002000C99C865C0
:102A300008E00C99C86D40F01000C86501208DF8C1
:102A40002F00FFE79DF82F008DF83700FFE79DF876
:102A500037000EB080BD000080B5A2B021900020EC
:102A600020901F901E901D901C9007A85421FDF7E8
:102A7000B1FC21980068B0F1A04F40F08280FFE7E0
:102A80004FF4004007904FF00050189007A801F055
:102A90008DF918B1FFE7FEF775FFFFE7FFE741F299
:102AA0004C00C4F20200016841F40051016000686A
:102AB00000F4005006900698FFE7FFE741F24C0053
:102AC000C4F20200016841F001010160006800F0F9
:102AD000010005900598FFE7FFE741F24C00C4F2C2
:102AE0000200016841F002010160006800F002008C
:102AF00004900498FFE704201C90032000901D9090
:102B0000002002901E904FF090401CA9019100F00F
:102B100071FC009A0199029845F601031C931D92DD
:102B20001E9040F20040C4F6000000F063FC0299E1
:102B300041F28040C2F2000003900822C4F2020277
:102B40000260052242608160C160802202614FF410
:102B5000807242614FF480628261C161016200F063
:102B6000FDFA18B1FFE7FEF70DFFFFE7FFE7219839
:102B700041F28041C2F20001416521988862FFE77D
:102B8000FFE722B080BD000080B58CB00A900A98A3
:102B900001680120B1F1A04F06900CD0FFE70A9820
:102BA00000684FF60071CAF6FF710844B0FA80F071
:102BB00040090690FFE70698C10740F20070C5F291
:102BC000000000291CBF40F20030C5F2000002F0F6
:102BD00057FD07900A98006802F0A2FD002840F017
:102BE000FE80FFE7FFE70A9890F85800012804D11B
:102BF000FFE702208DF82F00FAE00A99012081F802
:102C00005800FFE7FFE70A98FEF77AFD8DF82700E6
:102C10009DF82700002840F0DA80FFE70A98C06D91
:102C200040F4807040F6016188430A99C8650A98AB
:102C3000006840F20011C5F20001884204D1FFE7AC
:102C40004FF0A040059015E00A98006840F200514E
:102C5000C5F20001884206D1FFE740F20040C5F20C
:102C60000000049003E00A9800680490FFE70498CD
:102C70000590FFE705980A990968884203D0FFE7A5
:102C8000079830B9FFE70A99C86D20F48010C8652D
:102C9000FFE70A98C06DC004002806D5FFE70A992F
:102CA000086E20F00600086603E00A990020086616
:102CB000FFE70A9801681C200860FFE70A990020D6
:102CC00081F85800FFE70A98006840F20011C5F249
:102CD0000001884204D1FFE74FF0A040039015E0C7
:102CE0000A98006840F20051C5F20001884206D1FE
:102CF000FFE740F20040C5F20000029003E00A98AE
:102D000000680290FFE702980390FFE703980A9992
:102D1000096888420BD0FFE7079840B1FFE70798A2
:102D2000052804D0FFE70798092815D1FFE70A987E
:102D30000068C0688001002809D5FFE70A98C06DC7
:102D400040F4805020F400500A99C865FFE70A98C3
:102D5000006802F01FFD39E00A99C86D40F4801048
:102D6000C8650A98006840F20011C5F20001884267
:102D700004D1FFE74FF0A040019015E00A980068E9
:102D800040F20051C5F20001884206D1FFE740F24F
:102D90000040C5F20000009003E00A98006800902F
:102DA000FFE700980190FFE7019808900898C06835
:102DB0008001002809D5FFE70A98C06D40F48050D3
:102DC00020F400500A99C865FFE7FFE706E0FFE737
:102DD0000A99002081F85800FFE7FFE703E002208E
:102DE0008DF82700FFE79DF827008DF82F00FFE7FB
:102DF0009DF82F000CB080BD80B58AB00890079177
:102E00000692089801680120B1F1A04F03900CD000
:102E1000FFE7089800684FF60071CAF6FF71084492
:102E2000B0FA80F040090390FFE70398C10740F231
:102E30000070C5F2000000291CBF40F20030C5F24E
:102E4000000002F01DFC04900898006802F068FC85
:102E5000002840F0CA80FFE7FFE7089890F8580084
:102E6000012804D1FFE702208DF82700C6E0089969
:102E7000012081F85800FFE7FFE70898006840F25A
:102E80000061C5F2000188420CD0FFE7049848B108
:102E9000FFE70498052805D0FFE70498092840F0CB
:102EA0009980FFE70898FEF72BFC8DF817009DF836
:102EB0001700002840F08680FFE70898C06D40F4B6
:102EC000807040F6016188430899C86508980068D9
:102ED00040F20011C5F20001884204D1FFE74FF033
:102EE000A040029015E00898006840F20051C5F239
:102EF0000001884206D1FFE740F20040C5F2000021
:102F0000019003E0089800680190FFE701980290A3
:102F1000FFE7029808990968884203D0FFE7049800
:102F200030B9FFE70899C86D20F48010C865FFE745
:102F30000898C06DC004002806D5FFE70899086E00
:102F400020F00600086603E0089900200866FFE705
:102F50000898416D41F22550C0F60000C8620898FB
:102F6000416D41F22560C0F6000008630898416D8C
:102F700041F2F950C0F600004863089801681C202F
:102F80000860FFE70899002081F85800FFE70898DB
:102F90000168486840F01000486008980168C868F7
:102FA00040F00100C86008980168406D4031079A00
:102FB000069B00F07FF98DF817000898006802F072
:102FC000E9FB06E0FFE70899002081F85800FFE7D9
:102FD000FFE709E001208DF81700FFE708990020BE
:102FE00081F85800FFE7FFE703E002208DF81700A3
:102FF000FFE79DF817008DF82700FFE79DF82700F1
:103000000AB080BD80B584B003900398006C00685E
:103010000290039800680068019002980399496C37
:1030200001F01F01C8404007002825D5FFE79DF8A3
:103030000400400700281FD5FFE7039800680068D8
:103040008006002807D4FFE703980168086820F08D
:1030500004000860FFE70398016C406C00F01F0259
:103060000420904048600398006B20B1FFE703986C
:10307000016B8847FFE76EE002980399496C01F005
:103080001F01C840800700282FD5FFE79DF80400E6
:103090008007002829D5FFE70398006800688006AC
:1030A00000280BD4FFE703980168086820F00A00A5
:1030B00008600399012081F82500FFE70398016C5F
:1030C000406C00F01F02022090404860FFE7039927
:1030D000002081F82400FFE70398C06A20B1FFE7D1
:1030E0000398C16A8847FFE734E002980399496C66
:1030F00001F01F01C8400007002829D5FFE79DF80F
:1031000004000007002823D5FFE70398016808683A
:1031100020F00E0008600398026C406C00F01F0164
:10312000012000FA01F151600399C863039981F805
:103130002500FFE70399002081F82400FFE70398AA
:10314000406B20B1FFE70398416B8847FFE700E041
:10315000FFE7FFE7FFE704B080BD000080B584B063
:103160000290029820B9FFE701208DF80F009CE043
:103170000298006840F20741C4F20201884218D860
:10318000FFE7029908684FF6F872CBF6FD7210441B
:103190004CF6CD42CCF6CC42A0FB02026FF003000D
:1031A00000EA9200486402990020C4F20200086418
:1031B00018E0029908684FF6F832CBF6FD72104419
:1031C0004CF6CD42CCF6CC42A0FB02026FF00300DD
:1031D00000EA92004864029940F20040C4F2020002
:1031E0000864FFE70299022081F825000298006830
:1031F00000680190019847F6F071884301900299A8
:103200008868D1F80CC00B694A6940EA0C00184381
:1032100010438A691043CA691043096A014301983F
:103220000843019001980299096808600298FEF726
:1032300017FB02988068B0F5804F04D1FFE7029930
:1032400000204860FFE702990879896C08600298BD
:10325000C16C006D48600298406888B1FFE7029831
:10326000406804280CD8FFE70298FEF733FB029869
:10327000416D002008600298816DC06D486007E0D4
:10328000029900204865029988650299C865FFE7A0
:1032900002990020C863029A012182F82510029940
:1032A00081F824008DF80F00FFE79DF80F0004B0AF
:1032B00080BD000080B586B0049003910292019316
:1032C00000208DF80300FFE7049890F824000128FF
:1032D00004D1FFE702208DF8170065E00499012072
:1032E00081F82400FFE7FFE7049890F82500012803
:1032F0004BD1FFE70499022081F8250004990020B2
:10330000C86304980168086820F001000860049808
:103310000399029A019BFEF7FBFA0498006B38B1FF
:10332000FFE704980168086840F00E0008600CE0B0
:1033300004980168086820F0040008600498016897
:10334000086840F00A000860FFE70498806C006895
:10335000C003002807D5FFE70498816C086840F493
:1033600080700860FFE70498406D38B1FFE704986B
:10337000416D086840F480700860FFE704980168B8
:10338000086840F00100086009E0FFE704990020A8
:1033900081F82400FFE702208DF80300FFE79DF885
:1033A00003008DF81700FFE79DF8170006B080BDF9
:1033B00080B584B0039000F0D1F902900398019099
:1033C0000198013048B1FFE740F20400C2F200006A
:1033D0000168019808440190FFE7FFE700F0BEF99B
:1033E0000299401A0199884201D2FFE7F6E704B03A
:1033F00080BD00008BB00A90099100200890FFE783
:10340000099800680899C840002800F0A581FFE7E6
:1034100009980068089A0121914008400790079890
:10342000002800F09581FFE70998406800F003004C
:10343000012807D0FFE70998406800F00300022840
:103440002FD1FFE70A988068069008984100032072
:1034500000FA01F10698884306900998C068089917
:10346000490000FA01F106980843069006980A9967
:1034700088600A98406806900899012000FA01F1D6
:1034800006988843069009984068C0F30010089990
:1034900000FA01F106980843069006980A994860D8
:1034A000FFE70998406800F00300032818D0FFE701
:1034B0000A98C068069008984100032000FA01F1BC
:1034C000069888430690099880680899490000FA90
:1034D00001F106980843069006980A99C860FFE72C
:1034E0000998406800F00300022826D1FFE70A98F7
:1034F00008996FF0030202EA51010844006A06903D
:10350000089800F0070081000F2000FA01F10698EA
:103510008843069009980069089901F0070189001D
:1035200000FA01F106980843069006980A99089B4C
:1035300002EA530211440862FFE70A980068069005
:1035400008984100032000FA01F10698884306908C
:103550000998406800F003000899490000FA01F159
:1035600006980843069006980A9908600998807999
:103570008007002800F0EB80FFE7FFE741F26000E2
:10358000C4F20200016841F001010160006800F02E
:10359000010005900598FFE7089820F00300082136
:1035A000C4F2010140580690089800F00300810021
:1035B0000F2000FA01F10698884306900A98B0F1AE
:1035C000904F03D1FFE70020049042E00A9840F2B8
:1035D0000041C4F60001884203D1FFE701200390B7
:1035E00034E00A9840F60001C4F60001884203D195
:1035F000FFE70220029026E00A9840F60041C4F658
:103600000001884203D1FFE70320019018E00A98E7
:1036100041F20001C4F60001884203D1FFE7042013
:1036200000900AE00A9941F20042C4F60002062026
:10363000914208BF05200090FFE700980190FFE746
:1036400001980290FFE702980390FFE70398049027
:10365000FFE70498089901F00301890000FA01F1DD
:103660000698084306900698089921F0030108225D
:10367000C4F20102885040F20840C4F20100006820
:103680000690079906988843069009988079C006A5
:10369000002805D5FFE70799069808430690FFE73D
:1036A000069840F20841C4F20101086040F20C4063
:1036B000C4F20100006806900799069888430690B6
:1036C000099880798006002805D5FFE707990698B4
:1036D00008430690FFE7069840F20C41C4F201014E
:1036E000086040F20440C4F20100006806900799A7
:1036F000069888430690099880798007002805D5A8
:10370000FFE70799069808430690FFE7069840F2FE
:103710000441C4F20101086040F20040C4F201001B
:103720000068069007990698884306900998807962
:10373000C00728B1FFE70799069808430690FFE7FE
:10374000069840F20041C4F201010860FFE7FFE77C
:1037500008980130089053E60BB0704741F6B870F6
:10376000C2F200000068704740F20400C2F200009C
:10377000026841F6B871C2F200010868104408609E
:103780007047000080B582B000208DF8070003204C
:1037900000F0A0F80F2000F00DF820B1FFE70120A5
:1037A0008DF8070002E000F049F8FFE79DF80700F8
:1037B00002B080BD80B582B0019000208DF803007A
:1037C00040F20400C2F20000006878B3FFE740F264
:1037D0000000C2F20000006840F20401C2F20001E1
:1037E0000A684FF47A71B1FBF2F1B0FBF1F001F02D
:1037F0007DFBB0B9FFE701980F280DD8FFE70199CD
:103800004FF0FF30002200F04DF8019840F208011F
:10381000C2F20001086003E001208DF80300FFE719
:1038200003E001208DF80300FFE703E001208DF89D
:103830000300FFE79DF8030002B080BD80B582B0B1
:10384000FFE741F26000C4F20200016841F00101AB
:103850000160006800F0010001900198FFE7FFE7B8
:1038600041F25800C4F20200016841F08051016049
:10387000006800F0805000900098FFE701F020FB06
:10388000022001F025FB00F01FFA02B080BD00000D
:1038900080B582B08DF807009DF9070005F0B0FAF9
:1038A00002B080BD80B586B08DF8170004910392F8
:1038B00005F0C6FA02909DF917000190029804994C
:1038C000039A04F06FF80146019805F0E3FA06B098
:1038D00080BD000080B582B00190019805F0FCFA2F
:1038E00002B080BD82B001900198006800900199FB
:1038F0000120C1F8D0020199002081F8C802009A85
:10390000B2F8541041F00101A2F85410009AB2F834
:10391000541041F00201A2F8541002B070470000A8
:1039200080B584B00290029820B9FFE701208DF89D
:103930000F00BBE0029890F8910240B9FFE70299AE
:10394000002081F89002029800F0B4F8FFE7029995
:10395000032081F891020298006804F00FFD002016
:103960008DF80700FFE79DF8070002990979884262
:1039700039DAFFE702989DF8071001EB810100EBAF
:10398000C101012048749DF80700029900EB8002F4
:1039900001EBC201087402989DF8071001EB810148
:1039A00000EBC1010020C87402999DF8072002EBCA
:1039B000820201EBC201086202999DF8072002EB26
:1039C000820201EBC201486202999DF8072002EBD6
:1039D000820201EBC2018862FFE79DF80700013017
:1039E0008DF80700BFE700208DF80700FFE79DF87E
:1039F00007000299097988423EDAFFE702989DF8AC
:103A0000071001EB810100EBC101002081F8510199
:103A10009DF80710029A01EB810302EBC30282F8C2
:103A2000501102999DF8072002EB820201EBC201BE
:103A300081F8530102999DF8072002EB820201EB05
:103A4000C201C1F8600102999DF8072002EB8202D1
:103A500001EBC201C1F8640102999DF8072002EB55
:103A6000820201EBC201C1F86801FFE79DF807007F
:103A700001308DF80700BAE7029A10685168926821
:103A800004F068FC0299002008730299012081F873
:103A900091020298807A012804D1FFE70298FFF78B
:103AA00021FFFFE700208DF80F00FFE79DF80F00D2
:103AB00004B080BD80B598B0179002A85421FCF7DF
:103AC00089FC1798006845F60041C4F2000188425D
:103AD0001ED1FFE74FF4005002904FF000601190AC
:103AE00002A800F063F918B1FFE7FDF74BFFFFE70D
:103AF000FFE741F25800C4F20200016841F40001FE
:103B00000160006800F4000001900198FFE7FFE702
:103B100018B080BD85B00390039800285ED1FFE700
:103B200047F20000C4F20000006800F4C060B0F585
:103B3000806F49D1FFE747F28001C4F200010868B5
:103B400020F48070086047F20002C4F2000211689D
:103B5000012060F34A21116040F20001C2F200012D
:103B60000968322251434DF68362C4F21B32A1FB35
:103B7000022100EB91400290FFE747F21400C4F2EB
:103B800000000168002049050029019006D5FFE7E3
:103B90000298002818BF01200190FFE70198C00794
:103BA00020B1FFE7029801380290E6E747F21400DF
:103BB000C4F2000000684005002804D5FFE7032098
:103BC0008DF813007CE008E047F28001C4F20001A8
:103BD000086820F480700860FFE76DE00398B0F596
:103BE000007F5ED1FFE747F20000C4F200000068EA
:103BF00000F4C060B0F5806F49D1FFE747F2800163
:103C0000C4F20001086840F48070086047F20002C6
:103C1000C4F200021168012060F34A21116040F2F1
:103C20000001C2F200010968322251434DF683625D
:103C3000C4F21B32A1FB022100EB91400290FFE78E
:103C400047F21400C4F20000016800204905002971
:103C5000009006D5FFE70298002818BF01200090C9
:103C6000FFE70098C00720B1FFE7029801380290F3
:103C7000E6E747F21400C4F200000068400500289F
:103C800004D5FFE703208DF8130019E008E047F2A0
:103C90008001C4F20001086840F480700860FFE70A
:103CA00009E047F20001C4F200010868022262F351
:103CB0004A200860FFE7FFE700208DF81300FFE7C8
:103CC0009DF8130005B0704747F20801C4F20001E7
:103CD000086840F4804008607047000081B08DF8AB
:103CE000030047F20001C4F20001086820F0070059
:103CF00008604EF61051CEF20001086840F0040052
:103D000008609DF80300012802D1FFE730BF03E0FF
:103D100040BF20BF20BFFFE74EF61051CEF200019A
:103D2000086820F00400086001B0704781B08DF889
:103D3000030047F20001C4F200010868012262F3A7
:103D4000020008604EF61051CEF20001086840F003
:103D5000040008609DF80300012802D1FFE730BF8E
:103D600003E040BF20BF20BFFFE74EF61051CEF268
:103D70000001086820F00400086001B070470000EE
:103D800080B582B001908DF803100198B0F5804F96
:103D900005D1FFE79DF80300FFF7C8FF04E09DF899
:103DA0000300FFF79BFFFFE702B080BD80B586B040
:103DB000059000208DF80B008DF80A00059880789A
:103DC0000007002840F1B580FFE700208DF80900CA
:103DD00041F25800C4F202000068C000002813D469
:103DE000FFE7FFE741F25800C4F20200016841F02A
:103DF00080510160006800F0805001900198FFE759
:103E000001208DF80900FFE747F20001C4F200012C
:103E1000086840F480700860FFF7A0FC0390FFE79B
:103E200047F20000C4F200000068C00500280CD46E
:103E3000FFE7FFF793FC0399401A032804D3FFE739
:103E400003208DF80B0000E0EAE79DF80B00002846
:103E50005BD1FFE741F29000C4F20200006800F479
:103E6000407004900498C8B1FFE704980599096D63
:103E7000884213D0FFE741F29001C4F202010868C2
:103E800020F440700490086840F4803008600868AE
:103E900020F48030086004980860FFE79DF8100067
:103EA000C007E0B1FFE7FFF759FC0390FFE741F2DD
:103EB0009000C4F202000068800700280ED4FFE7DB
:103EC000FFF74CFC0399401A41F28931884204D330
:103ED000FFE703208DF80B0000E0E8E7FFE79DF81F
:103EE0000B0060B9FFE741F29001C4F202010868DB
:103EF00020F44070059A126D1043086004E09DF8AC
:103F00000B008DF80A00FFE704E09DF80B008DF828
:103F10000A00FFE79DF80900012809D1FFE741F2F7
:103F20005801C4F20201086820F080500860FFE7E1
:103F3000FFE705980078C00760B1FFE741F288010C
:103F4000C4F20201086820F00300059A5268104389
:103F50000860FFE705980078800700280CD5FFE788
:103F600041F28801C4F20201086820F00C00059AB1
:103F7000926810430860FFE7059800784007002822
:103F80000CD5FFE741F28801C4F20201086820F075
:103F90003000059AD26810430860FFE70598007862
:103FA000000700280CD5FFE741F28801C4F20201A6
:103FB000086820F0C000059A126910430860FFE706
:103FC00005980078C00600280CD5FFE741F288016B
:103FD000C4F20201086820F44070059A5269104347
:103FE0000860FFE705980078800600280CD5FFE7F9
:103FF00041F28801C4F20201086820F44060059A89
:10400000926910430860FFE7059800784006002891
:104010000CD5FFE741F28801C4F20201086820F4E0
:104020004050059AD26910430860FFE70598007870
:10403000000600280CD5FFE741F28801C4F2020116
:10404000086820F44040059A126A10430860FFE7B0
:1040500005984078C00760B1FFE741F28801C4F2DB
:104060000201086820F44030059A526A1043086043
:10407000FFE705988078800700280CD5FFE741F21C
:104080009C01C4F20201086820F00300059A926ABC
:1040900010430860FFE705984078800700280CD59A
:1040A000FFE741F28801C4F20201086820F44020D1
:1040B000059AD26A10430860FFE7059840784007E8
:1040C00000281BD5FFE741F28801C4F2020108680D
:1040D00020F44010059A126B104308600598006B9D
:1040E000B0F5801F09D1FFE741F20C01C4F20201D3
:1040F000086840F480100860FFE7FFE70598407803
:10410000000700281BD5FFE741F28801C4F2020135
:10411000086820F44000059A526B10430860059827
:10412000406BB0F5800F09D1FFE741F20C01C4F2FA
:104130000201086840F480100860FFE7FFE7059877
:104140004078C00600281BD5FFE741F28801C4F281
:104150000201086820F04070059A926B10430860D5
:104160000598806BB0F1807F09D1FFE741F20C0127
:10417000C4F20201086840F480100860FFE7FFE71E
:1041800005984078800600281BD5FFE741F288019A
:10419000C4F20201086820F04060059AD26B104317
:1041A00008600598C06BB0F1006F09D1FFE741F2DC
:1041B0000C01C4F20201086840F480100860FFE7B7
:1041C000FFE705984078400600281BD5FFE741F23D
:1041D0008801C4F20201086820F04060059A126C60
:1041E000104308600598006CB0F1006F09D1FFE73B
:1041F00041F20C01C4F20201086840F4801008602A
:10420000FFE7FFE705984078000600281BD5FFE789
:1042100041F28801C4F20201086820F04050059A7A
:10422000526C104308600598406CB0F1805F09D172
:10423000FFE741F20C01C4F20201086840F480304B
:104240000860FFE7FFE705988078C007D8B1FFE76F
:1042500041F28801C4F20201086820F04040059A4A
:10426000926C104308600598806CB0F1804F09D1C2
:10427000FFE741F20C01C4F20201086840F480300B
:104280000860FFE7FFE705988078400700281BD506
:10429000FFE741F29C01C4F20201086820F44010DB
:1042A000059AD26C104308600598C06CB0F5001FE9
:1042B00009D1FFE741F20C01C4F20201086840F4A1
:1042C00080100860FFE7FFE79DF80A0006B080BD98
:1042D00080B586B00490039100200090049820B926
:1042E000FFE701208DF8170081E1039842F20001F9
:1042F000C4F20201096801F00F01884216D9FFE7F4
:1043000042F20000C4F20200016821F00F01039A9A
:1043100011430160006800F00F000399884204D047
:10432000FFE701208DF8170061E1FFE704980078AE
:10433000C007002800F0A380FFE704984068032826
:1043400039D1FFE741F20000C4F2020000688001A9
:10435000002804D4FFE701208DF8170047E103F09F
:10436000C7FE019001984BF20141C0F2C44188425E
:1043700020D3FFE741F20800C4F20200006810F009
:10438000F00F0AD0FFE7049800788007002810D5C6
:10439000FFE70498806860B9FFE741F20801C4F2C2
:1043A00002010868082262F307100860802000906C
:1043B000FFE7FFE738E00498406802280ED1FFE7E6
:1043C00041F20000C4F2020000688003002804D417
:1043D000FFE701208DF8170009E10DE041F2000030
:1043E000C4F2020000684005002804D4FFE7012061
:1043F0008DF81700FBE0FFE700F0FEF80190019850
:104400004BF20141C0F2C44188420CD3FFE741F2B4
:104410000801C4F202010868082262F3071008606C
:1044200080200090FFE7FFE741F20801C4F202019B
:10443000086820F00300049A526810430860FFF7F0
:104440008DF90290FFE741F20800C4F20200006813
:1044500000F00C0004994968B0EB810F0ED0FFE723
:10446000FFF77CF90299401A41F28931884204D35E
:10447000FFE703208DF81700B9E0E4E7FFE70498B1
:104480000078800700282CD5FFE7049800784007C3
:10449000002809D5FFE741F20801C4F202010868CB
:1044A00040F4E0600860FFE7049800780007002807
:1044B0000BD5FFE741F20801C4F20201086840F49D
:1044C000E06020F460500860FFE741F20801C4F2A8
:1044D0000201086820F0F000049A92681043086016
:1044E0000DE00098802809D1FFE741F20801C4F2ED
:1044F0000201086820F0F0000860FFE7FFE703987A
:1045000042F20001C4F20201096801F00F01884281
:1045100028D2FFE742F20001C4F20201086820F04D
:104520000F00039A10430860FFF718F90290FFE7A5
:1045300042F20000C4F20200006800F00F0003998C
:1045400088420ED0FFE7FFF709F90299401A41F2BD
:104550008931884204D3FFE703208DF8170046E035
:10456000E6E7FFE704980078400700280CD5FFE74E
:1045700041F20801C4F20201086820F4E060049AE4
:10458000D26810430860FFE704980078000700280D
:104590000DD5FFE741F20801C4F20201086820F4DA
:1045A0006050049A126940EAC2000860FFE700F018
:1045B00023F841F20801C4F202010968C9B20A09EC
:1045C00049F64051C0F60001895C01F01F01C84066
:1045D00040F20001C2F20001086040F20800C2F29D
:1045E00000000068FFF7E6F88DF81700FFE79DF878
:1045F000170006B080BD000086B041F20800C4F28A
:104600000200006800F00C00042806D1FFE742F227
:104610000040C0F2F400019069E041F20800C4F2E9
:104620000200006800F00C00082806D1FFE744F6FD
:104630000000C0F2E810019058E041F20800C4F216
:104640000200006800F00C000C284BD1FFE741F29B
:104650000C00C4F20200016801F00301049100683B
:10466000C1B2012000EB11100290049800900228C2
:1046700015D0FFE70098032812D1FFE7029944F60E
:104680000000C0F2E810B0FBF1F041F20C01C4F2FE
:1046900002010968C1F306214843059011E0FFE7D4
:1046A000029942F20040C0F2F400B0FBF1F041F296
:1046B0000C01C4F202010968C1F3062148430590C8
:1046C000FFE741F20C00C4F20200006800F0C06194
:1046D000022000EB1160039005980399B0FBF1F004
:1046E000019002E000200190FFE7FFE7FFE701985B
:1046F00006B07047B0B588B00690069820B9FFE7BD
:1047000001208DF81F00CCE306980078C007002830
:1047100000F09B80FFE741F20800C4F2020000684D
:1047200000F00C00049041F20C00C4F2020000689A
:1047300000F00300039004980C2804D1FFE70398CD
:10474000032804D0FFE70498082812D1FFE741F2BC
:104750000000C4F2020000688003002808D5FFE7CB
:104760000698406820B9FFE701208DF81F0098E304
:104770006AE0FFE706984068B0F5803F09D1FFE79F
:1047800041F20001C4F20201086840F48030086080
:1047900020E006984068B0F5A02F0DD1FFE741F268
:1047A0000001C4F20201086840F480200860086833
:1047B00040F4803008600CE041F20001C4F20201D4
:1047C000086820F480300860086820F480200860C1
:1047D000FFE7FFE7FFE706984068D0B1FFE7FEF785
:1047E000BDFF0590FFE741F20000C4F2020000683F
:1047F000800300280CD4FFE7FEF7B0FF0599401AAC
:10480000652804D3FFE703208DF81F0049E3EAE79A
:1048100019E0FEF7A3FF0590FFE741F20000C4F2A4
:1048200002000068800300280CD5FFE7FEF796FF22
:104830000599401A652804D3FFE703208DF81F006F
:104840002FE3EAE7FFE7FFE7FFE706980078800736
:10485000002840F19F80FFE741F20800C4F2020007
:10486000006800F00C00049041F20C00C4F2020059
:10487000006800F00300039004980C2804D1FFE7BF
:104880000398022804D0FFE7049804282CD1FFE7FE
:1048900041F20000C4F2020000684005002808D57B
:1048A000FFE70698C06820B9FFE701208DF81F00D8
:1048B000F7E241F20401C4F20201086820F0FE4070
:1048C000069A126940EA0260086040F20800C2F2EB
:1048D00000000068FEF76EFF20B1FFE701208DF8B1
:1048E0001F00DEE2FFE754E00698C06870B3FFE700
:1048F00041F20001C4F20201086840F480700860CF
:10490000FEF72CFF0590FFE741F20000C4F2020021
:104910000068400500280CD4FFE7FEF71FFF05994B
:10492000401A032804D3FFE703208DF81F00B8E2E4
:10493000EAE741F20401C4F20201086820F0FE40F7
:10494000069A126940EA0260086021E041F2000123
:10495000C4F20201086820F480700860FEF7FEFED1
:104960000590FFE741F20000C4F202000068400534
:1049700000280CD5FFE7FEF7F1FE0599401A032841
:1049800004D3FFE703208DF81F008AE2EAE7FFE780
:10499000FFE7FFE7069800780007002849D5FFE702
:1049A0000698406910B3FFE741F29401C4F2020196
:1049B000086840F001000860FEF7D0FE0590FFE7B0
:1049C00041F29400C4F202000068800700280CD471
:1049D000FFE7FEF7C3FE0599401A032804D3FFE75B
:1049E00003208DF81F005CE2EAE721E041F2940128
:1049F000C4F20201086820F001000860FEF7AEFE74
:104A00000590FFE741F29400C4F2020000688007BD
:104A100000280CD5FFE7FEF7A1FE0599401A0328F0
:104A200004D3FFE703208DF81F003AE2EAE7FFE72F
:104A3000FFE7069800784007002840F1C680FFE7AE
:104A400000208DF80B0041F25800C4F2020000680B
:104A5000C000002813D4FFE7FFE741F25800C4F27A
:104A60000200016841F080510160006800F0805050
:104A700001900198FFE701208DF80B00FFE747F256
:104A80000000C4F200000068C005002822D4FFE73F
:104A900047F20001C4F20001086840F48070086029
:104AA000FEF75CFE0590FFE747F20000C4F200004D
:104AB0000068C00500280CD4FFE7FEF74FFE0599FB
:104AC000401A032804D3FFE703208DF81F00E8E114
:104AD000EAE7FFE7FFE706988068012809D1FFE7CA
:104AE00041F29001C4F20201086840F00100086040
:104AF0001FE00698806805280DD1FFE741F290017C
:104B0000C4F20201086840F004000860086840F040
:104B1000010008600CE041F29001C4F20201086853
:104B200020F001000860086820F004000860FFE73A
:104B3000FFE7FFE706988068E0B1FFE7FEF70EFEAB
:104B40000590FFE741F29000C4F202000068800780
:104B500000280ED4FFE7FEF701FE0599401A41F246
:104B60008931884204D3FFE703208DF81F0098E1C4
:104B7000E8E71BE0FEF7F2FD0590FFE741F2900049
:104B8000C4F202000068800700280ED5FFE7FEF798
:104B9000E5FD0599401A41F28931884204D3FFE7C7
:104BA00003208DF81F007CE1E8E7FFE79DF80B008C
:104BB000012809D1FFE741F25801C4F20201086857
:104BC00020F080500860FFE7FFE706980078800635
:104BD000002849D5FFE70698806910B3FFE741F246
:104BE0009801C4F20201086840F001000860FEF775
:104BF000B5FD0590FFE741F29800C4F2020000689D
:104C0000800700280CD4FFE7FEF7A8FD0599401A9D
:104C1000032804D3FFE703208DF81F0041E1EAE7F2
:104C200021E041F29801C4F20201086820F001007D
:104C30000860FEF793FD0590FFE741F29800C4F28B
:104C400002000068800700280CD5FFE7FEF786FD0C
:104C50000599401A032804D3FFE703208DF81F00AD
:104C60001FE1EAE7FFE7FFE70698C069002800F0C8
:104C70001481FFE741F20800C4F20200006800F06E
:104C80000C000C2800F0B080FFE70698C0690228ED
:104C90007CD1FFE741F20001C4F20201086820F074
:104CA00080700860FEF75AFD0590FFE741F20000B2
:104CB000C4F202000068800100280CD5FFE7FEF76F
:104CC0004DFD0599401A032804D3FFE703208DF812
:104CD0001F00E6E0EAE741F20C01C4F202010868B5
:104CE00048F20C02C0F29F121040DDF818C0DCF848
:104CF0002020DCF82450DCF828E0DCF82C306FF0C1
:104D00000F0404EB0514224342EA0E22DCF8304083
:104D100040F2000ECFF6E07E0EEA045EAEF5001E15
:104D200042EA0E02DCF834E04FF07E4C0CEA0E6CE6
:104D30000CF17E4C42EA0C0242EAC3621043086066
:104D400041F20002C4F20202106840F0807010606C
:104D5000086840F080700860FEF700FD0590FFE7EE
:104D600041F20000C4F202000068800100280CD467
:104D7000FFE7FEF7F3FC0599401A032804D3FFE789
:104D800003208DF81F008CE0EAE72CE041F20001DF
:104D9000C4F20201086820F080700860FEF7DEFCB3
:104DA0000590FFE741F20000C4F2020000688001B4
:104DB00000280CD5FFE7FEF7D1FC0599401A03281F
:104DC00004D3FFE703208DF81F006AE0EAE741F211
:104DD0000C01C4F2020108684FF6FC72CFF6EE62D5
:104DE00010400860FFE757E00698C069012804D129
:104DF000FFE701208DF81F0053E041F20C00C4F2E0
:104E0000020000680390039800F003000699096A05
:104E100088423BD1FFE7039800F0F00006994A6A08
:104E20006FF00F0101EB021188422FD1FFE70398C9
:104E300000F4FE400699896AB0EB012F26D1FFE706
:104E4000039800F078400699C96AB0EBC16F1DD194
:104E5000FFE7039800F4C00006990A6B0021CFF623
:104E6000E07101EA0251A1F5001188420ED1FFE77D
:104E7000039800F0C06006994A6B4FF07E4101EA4A
:104E8000026101F17E41884204D0FFE701208DF8E4
:104E90001F0006E0FFE7FFE7FFE700208DF81F0097
:104EA000FFE79DF81F0008B0B0BD00004EF21001F2
:104EB000CEF20001086840F0020008607047000070
:104EC0003021C4F20101086820F001000860704739
:104ED00081B000903021C4F20101086820F0020086
:104EE000009A1043086001B07047000080B582B09E
:104EF0000190019803F0B4F902B080BD4EF21001A8
:104F0000CEF20001086820F002000860704700003F
:104F1000FFE7FEE780B582B0ADF80600ADF80410FB
:104F2000ADF80220ADF800302A2000F02DFBBDF8CE
:104F30000600013080B200F00FFBBDF80200013026
:104F400080B200F009FB2B2000F01EFBBDF804002E
:104F50001A3080B200F000FBBDF800001A3080B2B9
:104F600000F0FAFA2C2000F00FFB02B080BD000028
:104F700080B582B0ADF80600ADF80410ADF802209F
:104F8000BDF80620BDF8043010461946FFF7C2FFF1
:104F9000BDF8020000F0E0FA02B080BD80B584B038
:104FA00084460698ADF80EC0ADF80C10ADF80A2096
:104FB000ADF80830ADF80600BDF80E00BDF80C10D5
:104FC000BDF80A20013ABDF80830013B92B29BB20D
:104FD000FFF7A0FFBDF80C00ADF80400FFE7BDF837
:104FE0000400BDF8081088421EDAFFE7BDF80E0085
:104FF000ADF80200FFE7BDF80200BDF80A108842D4
:105000000BDAFFE7BDF8060000F0A6FAFFE7BDF8EF
:1050100002000130ADF80200EDE7FFE7BDF8040043
:105020000130ADF80400DAE704B080BD704700003D
:1050300080B592B0FFF7FAFF43F60040C4F20000DB
:1050400001F06AFA40F60040C4F600000090042126
:105050000C9100F041FF6420019000F0C9FA009823
:105060000C9900F0C7FF019800F0C2FA019800F017
:10507000BFFA112000F088FA7820109000F0B8FAFA
:10508000B12000F081FA05200E9000F073FA3C2068
:10509000029000F06FFA029800F06CFAB22000F073
:1050A00073FA0E9800F066FA029800F063FA02981C
:1050B00000F060FAB32000F067FA0E9800F05AFA98
:1050C000029800F057FA029800F054FA0E9800F097
:1050D00051FA029800F04EFA029800F04BFAB42010
:1050E00000F052FA032000F045FAC02000F04CFA1C
:1050F000AB2000F03FFA0B2000F03CFA0C9800F0D7
:1051000039FAC12000F040FAC520049000F032FACC
:10511000C22000F039FA0D20059000F02BFA002093
:10512000119000F027FAC32000F02EFA8D20039092
:1051300000F020FA6A2000F01DFAC42000F024FAE2
:10514000039800F017FAEE2000F014FA049800F02B
:105150001BFA0F20099000F00DFAE02000F014FA7D
:105160000720089000F006FA0E2000F003FA08204D
:10517000069000F0FFF9089800F0FCF910200D905F
:1051800000F0F8F9089800F0F5F90220079000F017
:10519000F1F9089800F0EEF909200B9000F0EAF917
:1051A000099800F0E7F925200A9000F0E3F936208D
:1051B0000F9000F0DFF9119800F0DCF9069800F08C
:1051C000D9F90C9800F0D6F90D9800F0D3F9E12048
:1051D00000F0DAF90A2000F0CDF9059800F0CAF9DC
:1051E000069800F0C7F9089800F0C4F9099800F093
:1051F000C1F9089800F0BEF9079800F0BBF90898CB
:1052000000F0B8F90B9800F0B5F9099800F0B2F980
:105210000A9800F0AFF9352000F0ACF9119800F0D1
:10522000A9F90B9800F0A6F90C9800F0A3F90D98D5
:1052300000F0A0F9FC2000F0A7F9802000F09AF916
:105240003A2000F0A1F90E9800F094F90F9800F0C0
:105250009BF9109800F08EF9212000F095F9292093
:1052600000F092F92A2000F08FF9119800F082F9ED
:105270001A2000F07FF9119800F07CF9692000F005
:1052800079F92B2000F080F9119800F073F90120D2
:1052900000F070F9119800F06DF9A02000F06AF9A3
:1052A0002C2000F071F912B080BD0000B0B588B0BC
:1052B00094468E4604460E980D990C9AADF81E4001
:1052C000ADF81CE08DF81BC0ADF81830ADF8162015
:1052D0008DF815108DF81400002001908DF8100045
:1052E000BDF81E00ADF80A009DF8150040088DF8C5
:1052F00012009DF81220D008012101EBD2015207C3
:10530000002A18BF08469DF815104843ADF80C0058
:105310009DF81B0020388DF81B00BDF81E00BDF85D
:105320001C109DF812200244013A9DF815300B44E0
:10533000013B92B29BB2FFF7EDFD0198ADF80E0074
:10534000FFE7BDF80E00BDF80C10884280F2C18066
:10535000FFE79DF815000C2810D1FFE79DF81B0012
:1053600000EB400149F69C50C0F6000000EB8100C4
:10537000BDF80E10405C8DF813003EE09DF815005E
:1053800010280ED1FFE79DF81B104AF21020C0F63E
:10539000000000EB0110BDF80E10405C8DF813000A
:1053A0002AE09DF81500182810D1FFE79DF81B0092
:1053B00000EB40014AF60000C0F6000000EB0110CF
:1053C000BDF80E10405C8DF8130014E09DF8150038
:1053D00020280ED1FFE79DF81B104BF6D010C0F629
:1053E000000000EB8110BDF80E10405C8DF813003A
:1053F00000E06EE0FFE7FFE7FFE700208DF8110017
:10540000FFE79DF8110007285CDCFFE79DF814001A
:1054100030BBFFE79DF813009DF81110C840C0078E
:1054200028B1FFE7BDF8180000F096F804E0BDF8D9
:10543000160000F091F8FFE79DF8100001308DF89C
:1054400010009DF810209DF81210B2FBF1F000FB47
:10545000112020B9FFE700208DF8100032E02AE08B
:105460009DF813009DF81110C840C00748B1FFE730
:10547000BDF81E00BDF81C10BDF81820FFF778FD20
:10548000FFE7BDF81E000130ADF81E00BDF81E009C
:10549000BDF80A10401A9DF8121088420AD1FFE7A1
:1054A000BDF80A00ADF81E00BDF81C000130ADF8D3
:1054B0001C0007E0FFE7FFE79DF8110001308DF8C1
:1054C00011009EE7FFE7BDF80E000130ADF80E00B9
:1054D00037E708B0B0BD0000B0B588B094468E463E
:1054E00004460E980D990C9AADF81E40ADF81CE0DC
:1054F000CDF818C0ADF81630ADF814208DF81310A3
:105500008DF81200FFE70698007818B3FFE7BDF8A2
:105510001E00BDF81C10069A1278BDF81630BDF8B2
:1055200014C09DF813409DF81250EE46CEF8085076
:10553000CEF80440CEF800C0FFF7B8FE9DF8131077
:10554000BDF81E0000EB5100ADF81E0006980130BA
:105550000690D8E708B0B0BD80B582B0ADF80600BF
:105560009DF8070000F028F89DF8060000F024F8E8
:1055700002B080BD80B582B08DF807009DF80700AD
:1055800000F01AF802B080BD80B584B08DF80F002D
:1055900040F60000C4F6000001904FF40061029153
:1055A00000F09AFC9DF80F0000F006F801980299AF
:1055B00000F020FD04B080BD80B582B08DF80700FA
:1055C000FFE743F60040C4F2000001F015F808B907
:1055D000FFE7F6E79DF8071043F60040C4F200002D
:1055E00001F040F8042003F043FE02B080BD00004B
:1055F00080B582B001900198FDF7DAFE02B080BD5F
:1056000081B00090009880684FF6C071C7F6FF71B6
:10561000084002300099886001B0704781B0009066
:10562000009988684FF6C072C5F6FF721040886016
:1056300001B0704781B00090009880684FF6C0714B
:10564000C7F6FF71084001300099886001B07047CB
:1056500081B000900098806840F080504FF6C07193
:10566000C7F6FF7108400099886001B070470000DC
:1056700081B000900098806800F0E07001B0704741
:1056800081B000900098806800F01F0001B0704762
:1056900083B0029001910298019900EB8100603083
:1056A00000900098006800F0F84003B070470000D8
:1056B00081B0009000988068C0F3C00001B07047CE
:1056C00081B0009000988068C00F01B07047000062
:1056D00081B0009000988068C0F3407001B07047BE
:1056E00081B0009000988068C0F3400001B070471E
:1056F00081B000900098806800F0010001B0704710
:1057000081B000900098806800F0010001B07047FF
:1057100081B0009000988068C0F3007001B07047BD
:1057200081B0009000988068C0F3800001B070479D
:1057300081B0009000988068C0F3800001B070478D
:1057400081B000900098C06800F44060B0FA80F02A
:10575000400901B07047000084B0039002910192AB
:105760000398029901F4407100EB911030300090E1
:1057700000980068029901F01F021F2191408843A0
:105780000199C1F38461914008430099086004B015
:105790007047000081B00090009880684FF6C0719B
:1057A000C7F6FF71084004300099886001B0704767
:1057B00084B00390029101920398029901F0007164
:1057C00000EBD15014300090009800680299C1F3AA
:1057D0000452072191408843019991400843009960
:1057E000086004B07047000083B0029001910092FD
:1057F0000298D0F8B00001996FF3DF418843009A16
:1058000002F018034FF6FF72C0F20702DA401140AF
:1058100008440299C1F8B00003B0704782B001900B
:1058200000910198806820F47C1000990843019948
:10583000886002B07047000082B00190009101982A
:10584000806820F0E070009908430199886002B0F8
:105850007047000085B00490039102920193049870
:10586000039900EB810060300090009800684FF2CF
:105870000001C0F2FF310140029800F0F840019AA7
:105880001043084340F000400099086005B070479D
:1058900084B00390029101920398029900EB810079
:1058A000603000900098006820F000700199084373
:1058B0000099086004B0704784B00390029101928F
:1058C0000398029900EB8100603000900098006816
:1058D00020F08070019908430099086004B0704777
:1058E00084B00390029101920398029900EB810029
:1058F000603000900098006820F000400199084353
:105900000099086004B0704782B00190009101983E
:10591000406920F00040009908430199486102B0B5
:105920007047000082B001900091019880684FF6A6
:10593000C071C3F6FF710140009800F08040084438
:1059400000F100400199886002B0704782B0019078
:10595000019A41F24C00C4F2020001681143016057
:105960000068019908400090009802B0704700005C
:1059700082B00190019A41F24C00C4F20200016829
:10598000114301600068019908400090009802B03E
:105990007047000082B00190019A41F24C00C4F2BD
:1059A00002000168114301600068019908400090FD
:1059B000009802B07047000082B00190019A41F255
:1059C0004C00C4F2020001681143016000680199B3
:1059D00008400090009802B07047000082B001902B
:1059E000019A41F25800C4F20200016811430160BB
:1059F0000068019908400090009802B070470000CC
:105A000082B00190019A41F25800C4F2020001688C
:105A1000114301600068019908400090009802B0AD
:105A20007047000082B00190019A41F26000C4F218
:105A3000020001681143016000680199084000906C
:105A4000009802B07047000082B00190019A41F2C4
:105A50006000C4F20200016811430160006801990E
:105A600008400090009802B07047000082B001909A
:105A7000019A41F26000C4F2020001681143016022
:105A80000068019908400090009802B0704700003B
:105A900081B00090009A40F20441C4F2010108680C
:105AA0009043086001B0704781B00090009A40F2C6
:105AB0002441C4F2010108689043086001B07047B6
:105AC00081B00090009A40F20C41C4F201010868D4
:105AD0009043086001B0704781B00090009A40F296
