:020000040800F2
:10000000982B0020A9020008595700080D4000084D
:1000100055570008F5070008756400080000000047
:10002000000000000000000000000000D55800089B
:100030002909000800000000355800082D59000863
:10004000C3020008C3020008C3020008C30200087C
:10005000C3020008C3020008C3020008C30200086C
:10006000C3020008C3020008C3020008F907000821
:10007000C3020008C3020008C3020008C30200084C
:10008000C3020008C3020008C3020008C30200083C
:10009000C3020008C3020008C3020008C30200082C
:1000A000C3020008C3020008C3020008C30200081C
:1000B000C5590008C3020008C3020008C3020008B3
:1000C000C3020008C3020008C3020008C3020008FC
:1000D000C3020008C3020008C3020008C3020008EC
:1000E000C3020008C3020008C3020008C3020008DC
:1000F000C3020008C3020008C3020008C3020008CC
:10010000C3020008C3020008C3020008C3020008BB
:10011000C3020008C3020008C3020008C3020008AB
:10012000C3020008C3020008C3020008C30200089B
:10013000C3020008C3020008C3020008C30200088B
:10014000C3020008C3020008C30200080000000048
:10015000000000000000000000000000000000009F
:10016000000000000000000000000000C3020008C2
:10017000C3020008C3020008C3020008C30200084B
:10018000C3020008C3020008C3020008C30200083B
:10019000C302000800000000C3020008C3020008F8
:1001A000C3020008C3020008C3020008C30200081B
:1001B000C3020008C3020008C3020008C30200080B
:1001C000C3020008C3020008C3020008C3020008FB
:1001D000C3020008C302000800F002F800F054F85F
:1001E00014A696E8000CB244B344DA4501D100F0FD
:1001F0004BF8BAE80F000FA696E83000A5EB04050F
:1002000004EB0607AAEB0704A7F101074FEA15154F
:100210004FEA3414A4F10104AC4201D300F034F8E5
:1002200013F0010F18BFFB1A43F0010300F001F8AF
:10023000DBE71847346E0000546E0000103A24BF0C
:1002400078C878C1FAD8520724BF30C830C144BF3B
:1002500004680C6070470000704700000023002411
:1002600000250026103A28BF78C1FBD8520728BFC6
:1002700030C148BF0B6070471FB506F0C7FE00F0E5
:10028000D5F81FBD10B510BD00F0EAF81146FFF714
:10029000F3FF06F041FE00F008F903B4FFF7F2FFA8
:1002A00003BC00F00BF900000948804709480047EB
:1002B000FEE7FEE7FEE7FEE7FEE7FEE7FEE7FEE716
:1002C000FEE7FEE704480549054A064B7047000073
:1002D000B1590008D9010008981D0020982B002072
:1002E000982300209823002053EA020C00F0698034
:1002F0002DE9F04B4FF00006002B1FBFB3FA83F53A
:1003000003FA05F424FA05F65E4012BF1643B2FA6A
:1003100082F502FA05F4C5F120051EBF22FA05FC9C
:1003200044EA0C04203556EA044C4FEA144418BF42
:10033000641C4FF000084FF00009904271EB030C71
:1003400039D3002919BFB1FA81F701FA07F6B0FADB
:1003500080F700FA07F6C7F120071EBF20FA07FC56
:1003600046EA0C062037B6FBF4FCA7EB0507103F66
:1003700007F01F0BCBF120062CFA06F60CFA0BFB4C
:1003800044BFB3460026202FA4BF5E464FF0000BAB
:100390005BEA060C08BF4FF0010B19EB0B0948EBA9
:1003A0000608ABFB027C06FB02CC0BFB03CCC01B9C
:1003B00071EB0C01C1E70B46024641464846BDE8D9
:1003C000F08B13B5084318BF4FF0FF300146AFF371
:1003D0000080BDE81C4070474FF0000200B5134696
:1003E00094469646203922BFA0E80C50A0E80C5055
:1003F000B1F12001BFF4F7AF090728BFA0E80C5006
:1004000048BF0CC05DF804EB890028BF40F8042BFE
:1004100008BF704748BF20F8022B11F0804F18BF6B
:1004200000F8012B704770477047704708487CB54B
:100430007844009007487844009C0546019004E009
:100440002046016808448047241DAC42F8D17CBD99
:10045000546C0000526C00000048704710000020EF
:100460007546FFF7F9FFAE4605006946534620F092
:100470000700854618B020B5FFF724FFBDE82040EF
:100480004FF000064FF000074FF000084FF0000B50
:10049000AC46ACE8C009ACE8C009ACE8C009ACE8BF
:1004A000C00921F007018D46704710B50446AFF32F
:1004B00000802046BDE81040FFF7EFBE014918203C
:1004C000ABBEFEE7260002007047000080B582B098
:1004D00001900198806A00900098C06D10F0500F54
:1004E0004BD1FFE70099C86D40F40070C8650098D3
:1004F000006800680007002821D5FFE70098006821
:1005000004F046F8D0B1FFE700980068C0688004A6
:10051000002812D4FFE70099C86D20F48070C865E8
:100520000098C06DC004002806D4FFE70099C86D8C
:1005300040F00100C865FFE7FFE7FFE719E000981A
:100540000068C0688007002812D4FFE70099C86DD2
:1005500020F48070C8650098C06DC004002806D4DF
:10056000FFE70099C86D40F00100C865FFE7FFE7AD
:10057000FFE7009801F048F810E00098C06DC00651
:10058000002804D5FFE7009801F046F805E0009840
:10059000406D416B01988847FFE7FFE702B080BDDF
:1005A00080B582B001900198806A00900099C86D72
:1005B00040F04000C8650099086E40F004000866ED
:1005C000009801F029F802B080BD000080B582B02B
:1005D00001900198806A0090009801F019F802B02B
:1005E00080BD000080B584B002900298006803F0DE
:1005F0009FFF00900298006803F0A2FF00284BD0F4
:10060000FFE70098002847D1FFE70298006880685C
:1006100000F00D00012809D1FFE70298006803F0FF
:1006200017FF02980168032008600DE00299C86D69
:1006300040F01000C8650299086E40F0010008669D
:1006400001208DF80F002BE002F05CF80190FFE72D
:10065000029800688068C007E8B1FFE702F052F82E
:100660000199401A032815D3FFE7029800688068B3
:10067000C00770B1FFE70299C86D40F01000C8656F
:100680000299086E40F00100086601208DF80F0005
:1006900006E0FFE7DCE7FFE700208DF80F00FFE74B
:1006A0009DF80F0004B080BD80B586B00490002096
:1006B00002900498006803F043FF002840F0928005
:1006C000FFE70498006880683F21C8F200010842F3
:1006D0000ED0FFE70499C86D40F01000C86504997A
:1006E000086E40F00100086601208DF817007DE0DB
:1006F0000498006803F0C6FE049801680120B1F177
:10070000A04F01900CD0FFE7049800684FF60071ED
:10071000CAF6FF710844B0FA80F040090190FFE783
:100720000198C10740F20070C5F2000000291CBF0B
:1007300040F20030C5F2000003F0C2FE4FEA002094
:1007400000281CD5FFE740F20000C2F2000000685C
:10075000800942F66351C0F23E51A0FB01108009AE
:1007600000EB40010C2000EB81000290FFE70298B3
:1007700020B1FFE7029801380290F8E7FFE701F0A7
:10078000C1FF0390FFE7049800680068C00740BB02
:10079000FFE70498006803F0D3FE28B9FFE7049848
:1007A000006803F06FFEFFE701F0ACFF0399401A09
:1007B000032815D3FFE7049800680068C00770B9E4
:1007C000FFE70499C86D40F01000C8650499086EF1
:1007D00040F00100086601208DF8170006E0FFE7F1
:1007E000D1E7FFE700208DF81700FFE79DF817001D
:1007F00006B080BDFFE7FEE780B541F28440C2F25B
:10080000000001F0D3FB80BD84B003900398006822
:1008100040F20741C4F20201884206D8FFE740F6E1
:100820000000C4F20200009005E040F62000C4F28F
:1008300002000090FFE700980290039800780838C3
:100840004CF6CD41CCF6CC41A0FB01100009019043
:10085000029803994A6C22F00302104488640399B9
:1008600040F68000C4F20200C864019800F01F0145
:10087000012088400399086504B0704782B0019058
:10088000019800790090009940F6FC00C4F2020043
:1008900000EB810001994865019940F64010C4F2CF
:1008A000020088650098013800F01F01012088408F
:1008B0000199C86502B0704784B00390029101921B
:1008C00000930398C16C006D48600398406D28B197
:1008D000FFE70398816DC06D4860FFE70398016CE6
:1008E000406C00F01F02012090404860009803997E
:1008F0000968486003988068102809D1FFE70198CB
:10090000039909688860029803990968C86008E03B
:100910000298039909688860019803990968C8607A
:10092000FFE704B0704700007047000081B0EFF3AC
:10093000108072B60090FFE7FEE7000080B586B039
:100940000490039100200190FFE7049890F858006C
:10095000012804D1FFE702208DF817005AE004991E
:10096000012081F85800FFE7FFE70498FFF73AFEFF
:100970008DF80B009DF80B00D8BBFFE70498C06D05
:1009800040F0020020F488500499C865049800687B
:10099000039903F0EFFEFFE70498006803F0B8FD49
:1009A000F0B1FFE701980130019001984DF6026126
:1009B000C0F20401884212D3FFE70498C06D40F0F2
:1009C000100020F002000499C865FFE70499002098
:1009D00081F85800FFE701208DF817001AE0DBE7E7
:1009E0000498C06D40F0010020F002000499C86531
:1009F00005E00499C86D40F01000C865FFE7FFE707
:100A00000499002081F85800FFE79DF80B008DF84D
:100A10001700FFE79DF8170006B080BD80B5AEB0A7
:100A20002C902B9100208DF8AB002B98006808B11A
:100A3000FFE7FFE7FFE72C9890F85800012804D162
:100A4000FFE702208DF8B7005DE12C99012081F8C5
:100A50005800FFE7FFE70020259026902C980068BB
:100A6000B0F1A04F06D1FFE740F20010C5F2000040
:100A70000E9015E02C98006840F20041C5F200018C
:100A8000884207D1FFE740F20050C5F200000E9007
:100A90000C9003E000200E900C90FFE70C98FFE70D
:100AA0000E9878B9FFE72C99C86D40F02000C86512
:100AB000FFE72C99002081F85800FFE701208DF80E
:100AC000B70020E10E9803F05BFD0D902C980068B4
:100AD00003F056FD002840F00281FFE70D98002842
:100AE00040F0FD80FFE72C9801680120B1F1A04F94
:100AF0000B900CD0FFE72C9800684FF60071CAF6F7
:100B0000FF710844B0FA80F040090B90FFE70B98A2
:100B1000C10740F20070C5F2000000291CBF40F27E
:100B20000030C5F2000029902B980068002872D090
:100B3000FFE72998806820F460402B9949682C9A37
:100B400092F8382041EA42310843299988602C986C
:100B500001680120B1F1A04F0A900CD0FFE72C985A
:100B600000684FF60071CAF6FF710844B0FA80F0D1
:100B700040090A90FFE70A98C10740F20070C5F2E9
:100B8000000000291CBF40F20030C5F2000040F216
:100B90000031C5F20001884210D1FFE74FF0A040BC
:100BA00003F0D6FC089040F20010C5F2000003F0FC
:100BB000CFFC01460898084309901BE040F2004032
:100BC000C5F2000003F0C4FC069040F20050C5F2EC
:100BD000000003F0BDFC014606980843079040F270
:100BE0000060C5F2000003F0B3FC0146079808431B
:100BF0000990FFE7099868B9FFE72998806840F6EF
:100C00001F7188432B9A11689268114308432999F0
:100C10008860FFE762E02999886820F46040886076
:100C20002C9801680120B1F1A04F05900CD0FFE78E
:100C30002C9800684FF60071CAF6FF710844B0FAAC
:100C400080F040090590FFE70598C10740F2007069
:100C5000C5F2000000291CBF40F20030C5F20000C0
:100C600040F20031C5F20001884210D1FFE74FF099
:100C7000A04003F06DFC039040F20010C5F20000AC
:100C800003F066FC01460398084304901BE040F221
:100C90000040C5F2000003F05BFC019040F2005000
:100CA000C5F2000003F054FC01460198084302908D
:100CB00040F20060C5F2000003F04AFC01460298D1
:100CC00008430490FFE7049838B9FFE7299988683A
:100CD00040F61F7290438860FFE7FFE708E02C9919
:100CE000C86D40F02000C86501208DF8AB00FFE71B
:100CF000FFE72C99002081F85800FFE79DF8AB0032
:100D00008DF8B700FFE79DF8B7002EB080BD00005A
:100D100080B5C4B02490239100208DF88B001F90E3
:100D20002398C0680021C4F27F01884201D0FFE708
:100D300000E0FFE7FFE7249890F85800012805D16C
:100D4000FFE702208DF8970000F059BC249901209C
:100D500081F85800FFE7FFE72498006803F008FCDB
:100D6000002840F03884FFE72498006823990A6837
:100D7000496803F019FC2498006803F0F9FB1E9001
:100D80002498006803F0BCFB1D901E98002840F0DA
:100D9000B881FFE71D98002840F0B381FFE7239852
:100DA0008068B0F1004F0ED1FFE7249800682399C6
:100DB0000968002203F024FC249800684FF00041E9
:100DC00003F0CAFC0CE024980068239A116892682A
:100DD00003F016FC24980068002103F0BDFCFFE737
:100DE0002398406924990968C96801F018018908A5
:100DF000884021902398006904281CD0FFE724989C
:100E0000006823990A680969219B03F04BFC249828
:100E10000068239A1169926903F076FC24980068AF
:100E2000239A1169127F013AB2FA82F252095206EC
:100E300003F056FC64E124980068002103F050FBA5
:100E4000400348B9FFE724980068002103F048FBFD
:100E5000C0F384601C9018E024980068002103F01F
:100E60003FFB90FAA0F04290429820B9FFE7202083
:100E70008DF80F0105E04298B0FA80F08DF80F016F
:100E8000FFE79DF80F011C90FFE71C981B9023982B
:100E90000068400330B9FFE723980068C0F384601E
:100EA0001A9015E02398006890FAA0F040904098BE
:100EB00020B9FFE720208DF8070105E04098B0FA3F
:100EC00080F08DF80701FFE79DF807011A90FFE712
:100ED0001B981A99884207D1FFE7249800680022DE
:100EE000114603F025FCFFE724980068012103F078
:100EF000F7FA400348B9FFE724980068012103F09E
:100F0000EFFAC0F38460199018E02498006801217A
:100F100003F0E6FA90FAA0F03E903E9820B9FFE781
:100F200020208DF8FF0005E03E98B0FA80F08DF8A3
:100F3000FF00FFE79DF8FF001990FFE71998189050
:100F400023980068400330B9FFE723980068C0F396
:100F50008460179015E02398006890FAA0F03C9008
:100F60003C9820B9FFE720208DF8F70005E03C9879
:100F7000B0FA80F08DF8F700FFE79DF8F7001790C2
:100F8000FFE718981799884207D1FFE7249800686F
:100F90000121002203F0CCFBFFE724980068022126
:100FA00003F09EFA400348B9FFE724980068022145
:100FB00003F096FAC0F38460169018E02498006855
:100FC000022103F08DFA90FAA0F03A903A9820B9F5
:100FD000FFE720208DF8EF0005E03A98B0FA80F0A6
:100FE0008DF8EF00FFE79DF8EF001690FFE71698E9
:100FF000159023980068400330B9FFE723980068F4
:10100000C0F38460149015E02398006890FAA0F073
:101010003890389820B9FFE720208DF8E70005E0E8
:101020003898B0FA80F08DF8E700FFE79DF8E70008
:101030001490FFE715981499884207D1FFE7249888
:1010400000680221002203F073FBFFE72498006888
:10105000032103F045FA400348B9FFE724980068EC
:10106000032103F03DFAC0F38460139018E0249844
:101070000068032103F034FA90FAA0F03690369815
:1010800020B9FFE720208DF8DF0005E03698B0FAA0
:1010900080F08DF8DF00FFE79DF8DF001390FFE799
:1010A0001398129023980068400330B9FFE7239803
:1010B0000068C0F38460119015E02398006890FAEE
:1010C000A0F03490349820B9FFE720208DF8D700A5
:1010D00005E03498B0FA80F08DF8D700FFE79DF86E
:1010E000D7001190FFE712981199884207D1FFE7C6
:1010F000249800680321002203F01AFBFFE7FFE7B2
:10110000FFE72498006803F01BFA002840F04481B0
:10111000FFE724980068239A1168D26803F08CFADC
:101120002398C0680021C4F27F01884240F03381D7
:10113000FFE724980068109023980068400330B9B6
:10114000FFE723980068C0F384600F9015E02398B0
:10115000006890FAA0F03290329820B9FFE7202082
:101160008DF8CF0005E03298B0FA80F08DF8CF000E
:10117000FFE79DF8CF000F90FFE70F98013000F0D8
:101180001F0009287DD8FFE723980068400330B985
:10119000FFE723980068C0F384600E9015E0239861
:1011A000006890FAA0F03090309820B9FFE7202036
:1011B0008DF8C70005E03098B0FA80F08DF8C700D0
:1011C000FFE79DF8C7000E90FFE70E98013000F092
:1011D0001F0080060D9023980068400330B9FFE798
:1011E00023980068C0F384600C9015E02398006891
:1011F00090FAA0F02E902E9820B9FFE720208DF8CD
:10120000BF0005E02E98B0FA80F08DF8BF00FFE730
:101210009DF8BF000C90FFE70D980C99013101F08B
:101220001F020121914008430B902398006840035E
:1012300030B9FFE723980068C0F384600A9015E096
:101240002398006890FAA0F02C902C9820B9FFE722
:1012500020208DF8B70005E02C98B0FA80F08DF8CA
:10126000B700FFE79DF8B7000A90FFE70B980A99CF
:10127000013101F01F0101EB410140EA01500990E9
:1012800082E023980068400330B9FFE723980068A4
:10129000C0F38460089015E02398006890FAA0F0ED
:1012A0002A902A9820B9FFE720208DF8AF0005E0AA
:1012B0002A98B0FA80F08DF8AF00FFE79DF8AF00F4
:1012C0000890FFE70898013000F01F0080060790A3
:1012D00023980068400330B9FFE723980068C0F303
:1012E0008460069015E02398006890FAA0F028909A
:1012F000289820B9FFE720208DF8A70005E028985E
:10130000B0FA80F08DF8A700FFE79DF8A7000690DF
:10131000FFE707980699013101F01F020121914072
:101320000843059023980068400330B9FFE72398ED
:101330000068C0F38460049015E02398006890FA78
:10134000A0F02690269820B9FFE720208DF89F0076
:1013500005E02698B0FA80F08DF89F00FFE79DF831
:101360009F000490FFE705990498013000F01F00EA
:1013700000EB40020020CFF6206000EB0250084353
:1013800040F000700990FFE710980999239A92683D
:1013900003F036F9FFE7FFE72398408848F2080199
:1013A000084200F01781FFE7249801680120B1F19D
:1013B000A04F03900CD0FFE7249800684FF600710F
:1013C000CAF6FF710844B0FA80F040090390FFE7C5
:1013D0000398C10740F20070C5F2000000291CBF4D
:1013E00040F20030C5F2000003F06AF82090239824
:1013F000006840F20001CCF22131884208D0FFE7BA
:10140000239800681021C9F2C00188425AD1FFE731
:101410009DF882000006002854D4FFE72498006855
:10142000B0F1A04F09D0FFE72498006840F20061B6
:10143000C5F20001884244D1FFE7249801680120E9
:10144000B1F1A04F02900CD0FFE7249800684FF64E
:101450000071CAF6FF710844B0FA80F040090290AA
:10146000FFE70298C10740F20070C5F200000029B2
:101470001CBF40F20030C5F20000209941F4000189
:1014800003F002F940F20000C2F2000000684FEAE7
:10149000901042F66351C0F23E51A0FB01104FEA9A
:1014A000901000EB40014FF00C0000EB81001F900A
:1014B000FFE71F9820B1FFE71F9801381F90F8E75A
:1014C000FFE786E0239800680021CCF25271884241
:1014D0003ED1FFE79DF88300C007C8BBFFE7249813
:1014E000006840F20011C5F20001884209D1FFE70F
:1014F0002498006840F20051C5F20001884226D0CD
:10150000FFE7249801680120B1F1A04F01900CD0B1
:10151000FFE7249800684FF60071CAF6FF7108448F
:10152000B0FA80F040090190FFE70198C10740F24E
:101530000070C5F2000000291CBF40F20030C5F267
:101540000000209941F0807103F09EF8FFE73FE032
:10155000239800680021CCF68431884236D1FFE719
:101560009DF882004006002830D4FFE724980068E8
:1015700040F20011C5F20001884226D0FFE724980E
:1015800001680120B1F1A04F00900CD0FFE7249832
:1015900000684FF60071CAF6FF710844B0FA80F097
:1015A00040090090FFE70098C10740F20070C5F2C3
:1015B000000000291CBF40F20030C5F20000209955
:1015C00041F4800103F060F8FFE700E0FFE7FFE788
:1015D000FFE7FFE708E02499C86D40F02000C865E8
:1015E00001208DF88B00FFE7FFE72499002081F8A8
:1015F0005800FFE79DF88B008DF89700FFE79DF8F6
:10160000970044B080BD000081B0009001B07047E9
:1016100081B0009001B0704781B0009001B0704778
:1016200080B58EB00C9000208DF82F0007900C989C
:1016300020B9FFE701208DF83700DCE10C98406904
:1016400040B1FFE70C9890F82400012801D1FFE792
:10165000FFE7FFE70C98C06D50B9FFE70C9800F06A
:10166000CFF90C99002008660C9981F85800FFE723
:101670000C98006802F054FF28B1FFE70C9800684E
:1016800002F0F4FEFFE70C98006802F069FFF0B981
:10169000FFE70C98006802F003FF40F20000C2F27E
:1016A00000000068800942F66351C0F23E51A0FB81
:1016B00001108109022000EB41000790FFE7079825
:1016C00020B1FFE7079801380790F8E7FFE70C988B
:1016D000006802F045FF70B9FFE70C99C86D40F053
:1016E0001000C8650C99086E40F0010008660120E2
:1016F0008DF82F00FFE70C98006802F039FF099081
:101700000C98C06DC006002800F16781FFE70998BA
:10171000002840F06281FFE70C98C06D40F00200A5
:1017200020F480700C99C8650C98006802F008FFDE
:1017300000287CD1FFE70C9801680120B1F1A04F8F
:1017400006900CD0FFE70C9800684FF60071CAF6BF
:10175000FF710844B0FA80F040090690FFE7069850
:10176000C10740F20070C5F2000000291CBF40F222
:101770000030C5F2000040F20031C5F2000188429D
:1017800010D1FFE74FF0A04002F0DAFE049040F2E3
:101790000010C5F2000002F0D3FE01460498084391
:1017A00005901BE040F20040C5F2000002F0C8FEC8
:1017B000029040F20050C5F2000002F0C1FE014666
:1017C00002980843039040F20060C5F2000002F066
:1017D000B7FE0146039808430590FFE7059828BB2C
:1017E000FFE70C9801680120B1F1A04F01900CD0E7
:1017F000FFE70C9800684FF60071CAF6FF710844C5
:10180000B0FA80F040090190FFE70198C10740F26B
:101810000070C5F2000000291CBF40F20030C5F284
:1018200000000C99496802F021FFFFE7FFE70C99DF
:101830004A7FC86B40EA42308A68CB68184310433D
:1018400091F8241040EA01400A900C9890F8240086
:1018500001280BD1FFE70C98816A0020CFF6FE70BB
:1018600000EB41410A9808430A90FFE70C98C06AD0
:1018700050B1FFE70C99C86A096B00F47870014316
:101880000A9808430A90FFE70C980068C06844F281
:101890000701CFF6F07108400A9908430C990968CE
:1018A000C8600C980068006920F040600C9A1168CC
:1018B000526B104308610C98006802F021FE0890FA
:1018C0000998002868D1FFE70898002864D1FFE74D
:1018D0000C99087F91F83810800340EA41000A9083
:1018E0000C980068C06844F2020188430A990843D2
:1018F0000C990968C8600C980069A0B1FFE70C98C2
:101900000168086940F4803008610C980068D0F8DC
:10191000C00043F6FF7188430C9A116812691043A6
:10192000C1F8C00011E00C980168086920F480300B
:1019300008610C980068D0F8C00043F6FF71884336
:101940000C990968C1F8C000FFE70C9890F84000B6
:10195000012819D1FFE70C980068006940F2FD7179
:1019600020EA01020C9B1968586CD3F848E0D3F8C0
:101970004CC040EA0E0040EA0C001B6D18431043B7
:1019800040F00100086106E00C980168086920F049
:1019900001000861FFE7FFE70C98406901280CD1BE
:1019A000FFE70C980068006B20F00F000C9A11689C
:1019B000126A013A1043086306E00C980168086B4C
:1019C00020F00F000863FFE70C98C06D40F00100A5
:1019D00020F002000C99C86508E00C99C86D40F031
:1019E0001000C86501208DF82F00FFE79DF82F003B
:1019F0008DF83700FFE79DF837000EB080BD00007E
:101A000080B5A2B02190002020901F901E901D90C4
:101A10001C9007A85421FEF7DFFC21980068B0F164
:101A2000A04F40F08280FFE74FF4004007904FF056
:101A30000050189007A801F00DF818B1FFE7FEF765
:101A400075FFFFE7FFE741F24C00C4F202000168B6
:101A500041F400510160006800F4005006900698BF
:101A6000FFE7FFE741F24C00C4F20200016841F0D9
:101A700001010160006800F0010005900598FFE792
:101A8000FFE741F24C00C4F20200016841F002019C
:101A90000160006800F0020004900498FFE7042051
:101AA0001C90032000901D90002002901E904FF08B
:101AB00090401CA9019100F071FC009A01990298D4
:101AC00045F601031C931D921E9040F20040C4F69F
:101AD000000000F063FC029941F28440C2F2000071
:101AE00003900822C4F20202026005224260816073
:101AF000C160802202614FF4807242614FF48062C3
:101B00008261C161016200F0FDFA18B1FFE7FEF7E2
:101B10000DFFFFE7FFE7219841F28441C2F2000187
:101B2000416521988862FFE7FFE722B080BD000091
:101B300080B58CB00A900A9801680120B1F1A04FDD
:101B400006900CD0FFE70A9800684FF60071CAF6BD
:101B5000FF710844B0FA80F040090690FFE706984C
:101B6000C10740F20070C5F2000000291CBF40F21E
:101B70000030C5F2000002F0ABFC07900A98006844
:101B800002F0F6FC002840F0FE80FFE7FFE70A982D
:101B900090F85800012804D1FFE702208DF82F00AB
:101BA000FAE00A99012081F85800FFE7FFE70A9858
:101BB000FEF77AFD8DF827009DF82700002840F0F9
:101BC000DA80FFE70A98C06D40F4807040F601614A
:101BD00088430A99C8650A98006840F20011C5F266
:101BE0000001884204D1FFE74FF0A040059015E0C6
:101BF0000A98006840F20051C5F20001884206D1FF
:101C0000FFE740F20040C5F20000049003E00A98AC
:101C100000680490FFE704980590FFE705980A998B
:101C20000968884203D0FFE7079830B9FFE70A99AF
:101C3000C86D20F48010C865FFE70A98C06DC00425
:101C4000002806D5FFE70A99086E20F0060008660E
:101C500003E00A9900200866FFE70A9801681C2043
:101C60000860FFE70A99002081F85800FFE70A980A
:101C7000006840F20011C5F20001884204D1FFE77C
:101C80004FF0A040039015E00A98006840F2005120
:101C9000C5F20001884206D1FFE740F20040C5F2DC
:101CA0000000029003E00A9800680290FFE70298A3
:101CB0000390FFE703980A99096888420BD0FFE771
:101CC000079840B1FFE70798052804D0FFE7079879
:101CD000092815D1FFE70A980068C068800100282C
:101CE00009D5FFE70A98C06D40F4805020F40050F9
:101CF0000A99C865FFE70A98006802F073FC39E0AA
:101D00000A99C86D40F48010C8650A98006840F2CE
:101D10000011C5F20001884204D1FFE74FF0A04056
:101D2000019015E00A98006840F20051C5F20001E8
:101D3000884206D1FFE740F20040C5F20000009063
:101D400003E00A9800680090FFE700980190FFE721
:101D5000019808900898C0688001002809D5FFE71D
:101D60000A98C06D40F4805020F400500A99C8656C
:101D7000FFE7FFE706E0FFE70A99002081F8580037
:101D8000FFE7FFE703E002208DF82700FFE79DF85B
:101D900027008DF82F00FFE79DF82F000CB080BDC5
:101DA00080B58AB0089007910692089801680120D2
:101DB000B1F1A04F03900CD0FFE7089800684FF6F0
:101DC0000071CAF6FF710844B0FA80F04009039030
:101DD000FFE70398C10740F20070C5F20000002938
:101DE0001CBF40F20030C5F2000002F071FB04900D
:101DF0000898006802F0BCFB002840F0CA80FFE7AA
:101E0000FFE7089890F85800012804D1FFE7022066
:101E10008DF82700C6E00899012081F85800FFE7F7
:101E2000FFE70898006840F20061C5F200018842AF
:101E30000CD0FFE7049848B1FFE70498052805D0C7
:101E4000FFE70498092840F09980FFE70898FEF71B
:101E50002BFC8DF817009DF81700002840F08680B5
:101E6000FFE70898C06D40F4807040F60161884338
:101E70000899C8650898006840F20011C5F2000191
:101E8000884204D1FFE74FF0A040029015E0089887
:101E9000006840F20051C5F20001884206D1FFE718
:101EA00040F20040C5F20000019003E0089800688D
:101EB0000190FFE701980290FFE7029808990968EE
:101EC000884203D0FFE7049830B9FFE70899C86D4E
:101ED00020F48010C865FFE70898C06DC004002892
:101EE00006D5FFE70899086E20F00600086603E0B3
:101EF000089900200866FFE70898416D40F2CD4040
:101F0000C0F60000C8620898416D40F2CD50C0F69E
:101F1000000008630898416D40F2A150C0F600002F
:101F20004863089801681C200860FFE708990020B2
:101F300081F85800FFE708980168486840F01000F1
:101F4000486008980168C86840F00100C8600898B7
:101F50000168406D4031079A069B00F07FF98DF8CB
:101F600017000898006802F03DFB06E0FFE70899BB
:101F7000002081F85800FFE7FFE709E001208DF815
:101F80001700FFE70899002081F85800FFE7FFE7F6
:101F900003E002208DF81700FFE79DF817008DF889
:101FA0002700FFE79DF827000AB080BD80B584B008
:101FB00003900398006C0068029003980068006822
:101FC000019002980399496C01F01F01C840400735
:101FD000002825D5FFE79DF80400400700281FD5FD
:101FE000FFE70398006800688006002807D4FFE731
:101FF00003980168086820F004000860FFE7039870
:10200000016C406C00F01F0204209040486003986F
:10201000006B20B1FFE70398016B8847FFE76EE094
:1020200002980399496C01F01F01C84080070028FD
:102030002FD5FFE79DF804008007002829D5FFE78A
:10204000039800680068800600280BD4FFE7039817
:102050000168086820F00A0008600399012081F8EF
:102060002500FFE70398016C406C00F01F0202207E
:1020700090404860FFE70399002081F82400FFE7C3
:102080000398C06A20B1FFE70398C16A8847FFE759
:1020900034E002980399496C01F01F01C840000721
:1020A000002829D5FFE79DF804000007002823D564
:1020B000FFE703980168086820F00E0008600398A5
:1020C000026C406C00F01F01012000FA01F1516028
:1020D0000399C863039981F82500FFE7039900205D
:1020E00081F82400FFE70398406B20B1FFE70398D5
:1020F000416B8847FFE700E0FFE7FFE7FFE704B039
:1021000080BD000080B584B00290029820B9FFE73E
:1021100001208DF80F009CE00298006840F2074112
:10212000C4F20201884218D8FFE7029908684FF606
:10213000F872CBF6FD7210444CF6CD42CCF6CC4290
:10214000A0FB02026FF0030000EA920048640299CB
:102150000020C4F20200086418E0029908684FF6F3
:10216000F832CBF6FD7210444CF6CD42CCF6CC42A0
:10217000A0FB02026FF0030000EA9200486402999B
:1021800040F20040C4F202000864FFE70299022016
:1021900081F825000298006800680190019847F6D0
:1021A000F0718843019002998868D1F80CC00B69DE
:1021B0004A6940EA0C00184310438A691043CA690F
:1021C0001043096A0143019808430190019802995C
:1021D000096808600298FEF717FB02988068B0F55E
:1021E000804F04D1FFE7029900204860FFE7029981
:1021F0000879896C08600298C16C006D486002988B
:10220000406888B1FFE70298406804280CD8FFE7CF
:102210000298FEF733FB0298416D00200860029897
:10222000816DC06D486007E0029900204865029901
:1022300088650299C865FFE702990020C863029A81
:10224000012182F82510029981F824008DF80F00F1
:10225000FFE79DF80F0004B080BD000080B586B098
:10226000049003910292019300208DF80300FFE790
:10227000049890F82400012804D1FFE702208DF88B
:10228000170065E00499012081F82400FFE7FFE7CB
:10229000049890F8250001284BD1FFE7049902200B
:1022A00081F8250004990020C86304980168086833
:1022B00020F00100086004980399029A019BFEF740
:1022C000FBFA0498006B38B1FFE7049801680868CE
:1022D00040F00E0008600CE004980168086820F0E7
:1022E0000400086004980168086840F00A0008606B
:1022F000FFE70498806C0068C003002807D5FFE75B
:102300000498816C086840F480700860FFE70498C6
:10231000406D38B1FFE70498416D086840F4807063
:102320000860FFE704980168086840F00100086051
:1023300009E0FFE70499002081F82400FFE702206C
:102340008DF80300FFE79DF803008DF81700FFE705
:102350009DF8170006B080BD80B584B0039000F0F2
:10236000D1F90290039801900198013048B1FFE73C
:1023700040F20400C2F20000016801980844019094
:10238000FFE7FFE700F0BEF90299401A0199884281
:1023900001D2FFE7F6E704B080BD00008BB00A90E1
:1023A000099100200890FFE7099800680899C84043
:1023B000002800F0A581FFE709980068089A01212C
:1023C0009140084007900798002800F09581FFE7AA
:1023D0000998406800F00300012807D0FFE709983A
:1023E000406800F0030002282FD1FFE70A988068B8
:1023F000069008984100032000FA01F106988843EE
:1024000006900998C0680899490000FA01F10698F9
:102410000843069006980A9988600A9840680690D2
:102420000899012000FA01F106988843069009985E
:102430004068C0F30010089900FA01F106980843BB
:10244000069006980A994860FFE70998406800F0EE
:102450000300032818D0FFE70A98C0680690089880
:102460004100032000FA01F106988843069009987C
:1024700080680899490000FA01F10698084306901F
:1024800006980A99C860FFE70998406800F00300C1
:10249000022826D1FFE70A9808996FF0030202EAA2
:1024A00051010844006A0690089800F00700810076
:1024B0000F2000FA01F106988843069009980069F8
:1024C000089901F00701890000FA01F10698084314
:1024D000069006980A99089B02EA53021144086282
:1024E000FFE70A980068069008984100032000FA68
:1024F00001F10698884306900998406800F00300AF
:102500000899490000FA01F10698084306900698D8
:102510000A990860099880798007002800F0EB800C
:10252000FFE7FFE741F26000C4F20200016841F0FA
:1025300001010160006800F0010005900598FFE7C7
:10254000089820F003000821C4F2010140580690C9
:10255000089800F0030081000F2000FA01F10698AE
:10256000884306900A98B0F1904F03D1FFE700200E
:10257000049042E00A9840F20041C4F6000188420B
:1025800003D1FFE70120039034E00A9840F60001F0
:10259000C4F60001884203D1FFE70220029026E042
:1025A0000A9840F60041C4F60001884203D1FFE7D3
:1025B0000320019018E00A9841F20001C4F60001DE
:1025C000884203D1FFE7042000900AE00A9941F213
:1025D0000042C4F600020620914208BF0520009088
:1025E000FFE700980190FFE701980290FFE702984B
:1025F0000390FFE703980490FFE70498089901F01F
:102600000301890000FA01F1069808430690069834
:10261000089921F003010822C4F20102885040F217
:102620000840C4F2010000680690079906988843A4
:10263000069009988079C006002805D5FFE707991C
:10264000069808430690FFE7069840F20841C4F256
:102650000101086040F20C40C4F2010000680690DD
:102660000799069888430690099880798006002883
:1026700005D5FFE70799069808430690FFE70698F7
:1026800040F20C41C4F20101086040F20440C4F27F
:1026900001000068069007990698884306900998FB
:1026A00080798007002805D5FFE707990698084339
:1026B0000690FFE7069840F20441C4F20101086069
:1026C00040F20040C4F201000068069007990698A5
:1026D0008843069009988079C00728B1FFE70799D9
:1026E000069808430690FFE7069840F20041C4F2BE
:1026F00001010860FFE7FFE708980130089053E602
:102700000BB0704741F69450C2F200000068704769
:1027100040F20400C2F20000026841F69451C2F295
:1027200000010868104408607047000080B582B05E
:1027300000208DF80700032000F0A0F80F2000F023
:102740000DF820B1FFE701208DF8070002E000F04E
:1027500049F8FFE79DF8070002B080BD80B582B060
:10276000019000208DF8030040F20400C2F2000046
:10277000006878B3FFE740F20000C2F20000006892
:1027800040F20401C2F200010A684FF47A71B1FB11
:10279000F2F1B0FBF1F001F021FAB0B9FFE70198D6
:1027A0000F280DD8FFE701994FF0FF30002200F00D
:1027B0004DF8019840F20801C2F20001086003E000
:1027C00001208DF80300FFE703E001208DF80300EE
:1027D000FFE703E001208DF80300FFE79DF8030009
:1027E00002B080BD80B582B0FFE741F26000C4F264
:1027F0000200016841F001010160006800F0010081
:1028000001900198FFE7FFE741F25800C4F202008F
:10281000016841F080510160006800F08050009034
:102820000098FFE701F0C4F9022001F0C9F900F0B7
:1028300007F902B080BD000080B582B08DF80700B6
:102840009DF9070004F01CF902B080BD80B586B088
:102850008DF817000491039204F032F902909DF96B
:102860001700019002980499039A02F0ADFF014607
:10287000019804F04FF906B080BD000080B582B029
:102880000190019804F068F902B080BD85B0039012
:10289000039800285ED1FFE747F20000C4F2000071
:1028A000006800F4C060B0F5806F49D1FFE747F2DF
:1028B0008001C4F20001086820F48070086047F2CB
:1028C0000002C4F200021168012060F34A21116085
:1028D00040F20001C2F200010968322251434DF674
:1028E0008362C4F21B32A1FB022100EB91400290F3
:1028F000FFE747F21400C4F2000001680020490518
:102900000029019006D5FFE70298002818BF012092
:102910000190FFE70198C00720B1FFE70298013856
:102920000290E6E747F21400C4F200000068400598
:10293000002804D5FFE703208DF813007CE008E0B1
:1029400047F28001C4F20001086820F4807008603A
:10295000FFE76DE00398B0F5007F5ED1FFE747F237
:102960000000C4F20000006800F4C060B0F5806FA1
:1029700049D1FFE747F28001C4F20001086840F442
:102980008070086047F20002C4F200021168012062
:1029900060F34A21116040F20001C2F200010968AF
:1029A000322251434DF68362C4F21B32A1FB022155
:1029B00000EB91400290FFE747F21400C4F20000E0
:1029C0000168002049050029009006D5FFE702981C
:1029D000002818BF01200090FFE70098C00720B131
:1029E000FFE7029801380290E6E747F21400C4F2CC
:1029F000000000684005002804D5FFE703208DF89B
:102A0000130019E008E047F28001C4F200010868F1
:102A100040F480700860FFE709E047F20001C4F26B
:102A200000010868022262F34A200860FFE7FFE71E
:102A300000208DF81300FFE79DF8130005B07047E4
:102A400047F20801C4F20001086840F480400860C1
:102A50007047000080B586B0059000208DF80B000F
:102A60008DF80A00059880780007002840F1B580AD
:102A7000FFE700208DF8090041F25800C4F202007F
:102A80000068C000002813D4FFE7FFE741F25800B8
:102A9000C4F20200016841F080510160006800F05A
:102AA000805001900198FFE701208DF80900FFE7B1
:102AB00047F20001C4F20001086840F48070086029
:102AC000FFF720FE0390FFE747F20000C4F200008A
:102AD0000068C00500280CD4FFE7FFF713FE039938
:102AE000401A032804D3FFE703208DF80B0000E011
:102AF000EAE79DF80B0000285BD1FFE741F2900068
:102B0000C4F20200006800F4407004900498C8B158
:102B1000FFE704980599096D884213D0FFE741F259
:102B20009001C4F20201086820F440700490086823
:102B300040F480300860086820F480300860049811
:102B40000860FFE79DF81000C007E0B1FFE7FFF75E
:102B5000D9FD0390FFE741F29000C4F20200006843
:102B6000800700280ED4FFE7FFF7CCFD0399401A39
:102B700041F28931884204D3FFE703208DF80B002E
:102B800000E0E8E7FFE79DF80B0060B9FFE741F2DE
:102B90009001C4F20201086820F44070059A126D99
:102BA0001043086004E09DF80B008DF80A00FFE771
:102BB00004E09DF80B008DF80A00FFE79DF809007E
:102BC000012809D1FFE741F25801C4F20201086867
:102BD00020F080500860FFE7FFE705980078C00705
:102BE00060B1FFE741F28801C4F20201086820F0F9
:102BF0000300059A526810430860FFE705980078C3
:102C0000800700280CD5FFE741F28801C4F20201D9
:102C1000086820F00C00059A926810430860FFE7EE
:102C200005980078400700280CD5FFE741F288019D
:102C3000C4F20201086820F03000059AD2681043FF
:102C40000860FFE705980078000700280CD5FFE72B
:102C500041F28801C4F20201086820F0C000059A20
:102C6000126910430860FFE705980078C006002845
:102C70000CD5FFE741F28801C4F20201086820F494
:102C80004070059A526910430860FFE70598007884
:102C9000800600280CD5FFE741F28801C4F202014A
:102CA000086820F44060059A926910430860FFE7C5
:102CB00005980078400600280CD5FFE741F288010E
:102CC000C4F20201086820F44050059AD26910430A
:102CD0000860FFE705980078000600280CD5FFE79C
:102CE00041F28801C4F20201086820F44040059ACC
:102CF000126A10430860FFE705984078C00760B18A
:102D0000FFE741F28801C4F20201086820F4403074
:102D1000059A526A10430860FFE70598807880079B
:102D200000280CD5FFE741F29C01C4F202010868BB
:102D300020F00300059A926A10430860FFE70598A7
:102D40004078800700280CD5FFE741F28801C4F2E3
:102D50000201086820F44020059AD26A10430860F6
:102D6000FFE705984078400700281BD5FFE741F2B0
:102D70008801C4F20201086820F44010059A126B21
:102D8000104308600598006BB0F5801F09D1FFE77C
:102D900041F20C01C4F20201086840F4801008609E
:102DA000FFE7FFE705984078000700281BD5FFE7FD
:102DB00041F28801C4F20201086820F44000059A3B
:102DC000526B104308600598406BB0F5800F09D135
:102DD000FFE741F20C01C4F20201086840F48010E0
:102DE0000860FFE7FFE705984078C00600281BD57C
:102DF000FFE741F28801C4F20201086820F0407048
:102E0000059A926B104308600598806BB0F1807F43
:102E100009D1FFE741F20C01C4F20201086840F455
:102E200080100860FFE7FFE70598407880060028DB
:102E30001BD5FFE741F28801C4F20201086820F0C7
:102E40004060059AD26B104308600598C06BB0F1E2
:102E5000006F09D1FFE741F20C01C4F202010868DA
:102E600040F480100860FFE7FFE7059840784006CF
:102E700000281BD5FFE741F28801C4F2020108686F
:102E800020F04060059A126C104308600598006CB1
:102E9000B0F1006F09D1FFE741F20C01C4F2020169
:102EA000086840F480100860FFE7FFE70598407865
:102EB000000600281BD5FFE741F28801C4F2020199
:102EC000086820F04050059A526C1043086005983D
:102ED000406CB0F1805F09D1FFE741F20C01C4F210
:102EE0000201086840F480300860FFE7FFE70598BA
:102EF0008078C007D8B1FFE741F28801C4F202012F
:102F0000086820F04040059A926C104308600598CC
:102F1000806CB0F1804F09D1FFE741F20C01C4F29F
:102F20000201086840F480300860FFE7FFE7059879
:102F30008078400700281BD5FFE741F29C01C4F2CE
:102F40000201086820F44010059AD26C1043086012
:102F50000598C06CB0F5001F09D1FFE741F20C01E4
:102F6000C4F20201086840F480100860FFE7FFE740
:102F70009DF80A0006B080BD80B586B0049003912C
:102F800000200090049820B9FFE701208DF8170079
:102F900081E1039842F20001C4F20201096801F0E4
:102FA0000F01884216D9FFE742F20000C4F2020086
:102FB000016821F00F01039A11430160006800F0DD
:102FC0000F000399884204D0FFE701208DF8170015
:102FD00061E1FFE704980078C007002800F0A380B3
:102FE000FFE704984068032839D1FFE741F2000069
:102FF000C4F2020000688001002804D4FFE7012029
:103000008DF8170047E102F017FC019001984BF290
:103010000141C0F2C441884220D3FFE741F20800D9
:10302000C4F20200006810F0F00F0AD0FFE7049825
:1030300000788007002810D5FFE70498806860B901
:10304000FFE741F20801C4F202010868082262F3B6
:103050000710086080200090FFE7FFE738E0049841
:10306000406802280ED1FFE741F20000C4F20200DE
:1030700000688003002804D4FFE701208DF81700C2
:1030800009E10DE041F20000C4F2020000684005D1
:10309000002804D4FFE701208DF81700FBE0FFE7CC
:1030A00000F02CF9019001984BF20141C0F2C441AB
:1030B00088420CD3FFE741F20801C4F2020108681C
:1030C000082262F30710086080200090FFE7FFE706
:1030D00041F20801C4F20201086820F00300049ADA
:1030E000526810430860FFF70DFB0290FFE741F2C2
:1030F0000800C4F20200006800F00C00049949685E
:10310000B0EB810F0ED0FFE7FFF7FCFA0299401AEF
:1031100041F28931884204D3FFE703208DF817007C
:10312000B9E0E4E7FFE704980078800700282CD591
:10313000FFE7049800784007002809D5FFE741F22F
:103140000801C4F20201086840F4E0600860FFE78B
:1031500004980078000700280BD5FFE741F208012A
:10316000C4F20201086840F4E06020F46050086096
:10317000FFE741F20801C4F20201086820F0F00004
:10318000049A9268104308600DE00098802809D1E5
:10319000FFE741F20801C4F20201086820F0F000E4
:1031A0000860FFE7FFE7039842F20001C4F2020162
:1031B000096801F00F01884228D2FFE742F20001BE
:1031C000C4F20201086820F00F00039A104308605F
:1031D000FFF798FA0290FFE742F20000C4F2020003
:1031E000006800F00F00039988420ED0FFE7FFF758
:1031F00089FA0299401A41F28931884204D3FFE7E3
:1032000003208DF8170046E0E6E7FFE70498007812
:10321000400700280CD5FFE741F20801C4F2020183
:10322000086820F4E060049AD26810430860FFE761
:1032300004980078000700280DD5FFE741F2080147
:10324000C4F20201086820F46050049A126940EA4E
:10325000C2000860FFE700F051F841F20801C4F233
:1032600002010968C9B20A0947F22601C0F6000145
:10327000895C01F01F01C84040F20001C2F2000168
:10328000086040F20800C2F200000068FFF766FA2A
:103290008DF81700FFE79DF8170006B080BD00000D
:1032A00040F20000C2F200000068704780B5FFF7EE
:1032B000F7FF41F20801C4F202010968C1F30222DA
:1032C00047F23601C0F60001895C01F01F01C840D9
:1032D00080BD000080B5FFF7E3FF41F20801C4F2B2
:1032E00002010968C1F3C22247F23601C0F60001AB
:1032F000895C01F01F01C84080BD000086B041F22A
:103300000800C4F20200006800F00C00042806D196
:10331000FFE742F20040C0F2F400019069E041F2A0
:103320000800C4F20200006800F00C00082806D172
:10333000FFE744F60000C0F2E810019058E041F2C7
:103340000800C4F20200006800F00C000C284BD109
:10335000FFE741F20C00C4F20200016801F0030132
:1033600004910068C1B2012000EB11100290049892
:103370000090022815D0FFE70098032812D1FFE73C
:10338000029944F60000C0F2E810B0FBF1F041F2FF
:103390000C01C4F202010968C1F3062148430590FB
:1033A00011E0FFE7029942F20040C0F2F400B0FBE6
:1033B000F1F041F20C01C4F202010968C1F30621E7
:1033C00048430590FFE741F20C00C4F20200006898
:1033D00000F0C061022000EB116003900598039992
:1033E000B0FBF1F0019002E000200190FFE7FFE761
:1033F000FFE7019806B07047B0B588B00690069810
:1034000020B9FFE701208DF81F00CCE30698007873
:10341000C007002800F09B80FFE741F20800C4F2DB
:103420000200006800F00C00049041F20C00C4F2AD
:103430000200006800F00300039004980C2804D1F7
:10344000FFE70398032804D0FFE70498082812D167
:10345000FFE741F20000C4F2020000688003002888
:1034600008D5FFE70698406820B9FFE701208DF8EE
:103470001F0098E36AE0FFE706984068B0F5803FD8
:1034800009D1FFE741F20001C4F20201086840F4EB
:103490008030086020E006984068B0F5A02F0DD17C
:1034A000FFE741F20001C4F20201086840F4802005
:1034B0000860086840F4803008600CE041F20001C8
:1034C000C4F20201086820F480300860086820F423
:1034D00080200860FFE7FFE7FFE706984068D0B16B
:1034E000FFE7FFF70FF90590FFE741F20000C4F294
:1034F00002000068800300280CD4FFE7FFF702F900
:103500000599401A652804D3FFE703208DF81F00B2
:1035100049E3EAE719E0FFF7F5F80590FFE741F224
:103520000000C4F202000068800300280CD5FFE709
:10353000FFF7E8F80599401A652804D3FFE7032050
:103540008DF81F002FE3EAE7FFE7FFE7FFE70698A4
:1035500000788007002840F19F80FFE741F20800D3
:10356000C4F20200006800F00C00049041F20C006C
:10357000C4F20200006800F00300039004980C28D5
:1035800004D1FFE70398022804D0FFE70498042839
:103590002CD1FFE741F20000C4F2020000684005B0
:1035A000002808D5FFE70698C06820B9FFE701208A
:1035B0008DF81F00F7E241F20401C4F2020108682D
:1035C00020F0FE40069A126940EA0260086040F26C
:1035D0000800C2F200000068FFF7C0F820B1FFE762
:1035E00001208DF81F00DEE2FFE754E00698C06876
:1035F00070B3FFE741F20001C4F20201086840F431
:1036000080700860FFF77EF80590FFE741F2000048
:10361000C4F202000068400500280CD4FFE7FFF761
:1036200071F80599401A032804D3FFE703208DF8A9
:103630001F00B8E2EAE741F20401C4F2020108689F
:1036400020F0FE40069A126940EA0260086021E01C
:1036500041F20001C4F20201086820F480700860A1
:10366000FFF750F80590FFE741F20000C4F20200B6
:103670000068400500280CD5FFE7FFF743F80599DF
:10368000401A032804D3FFE703208DF81F008AE2C5
:10369000EAE7FFE7FFE7FFE7069800780007002862
:1036A00049D5FFE70698406910B3FFE741F294015E
:1036B000C4F20201086840F001000860FFF722F838
:1036C0000590FFE741F29400C4F202000068800711
:1036D00000280CD4FFE7FFF715F80599401A0328D6
:1036E00004D3FFE703208DF81F005CE2EAE721E046
:1036F00041F29401C4F20201086820F00100086060
:10370000FFF700F80590FFE741F29400C4F20200D1
:103710000068800700280CD5FFE7FEF7F3FF059946
:10372000401A032804D3FFE703208DF81F003AE274
:10373000EAE7FFE7FFE7069800784007002840F136
:10374000C680FFE700208DF80B0041F25800C4F25C
:1037500002000068C000002813D4FFE7FFE741F231
:103760005800C4F20200016841F080510160006815
:1037700000F0805001900198FFE701208DF80B00C8
:10378000FFE747F20000C4F200000068C00500280F
:1037900022D4FFE747F20001C4F20001086840F4B8
:1037A00080700860FEF7AEFF0590FFE747F200006B
:1037B000C4F200000068C00500280CD4FFE7FEF743
:1037C000A1FF0599401A032804D3FFE703208DF8D1
:1037D0001F00E8E1EAE7FFE7FFE7069880680128B5
:1037E00009D1FFE741F29001C4F20201086840F0FC
:1037F000010008601FE00698806805280DD1FFE7EA
:1038000041F29001C4F20201086840F0040008602F
:10381000086840F0010008600CE041F29001C4F239
:103820000201086820F001000860086820F0040028
:103830000860FFE7FFE7FFE706988068E0B1FFE771
:10384000FEF760FF0590FFE741F29000C4F202002E
:103850000068800700280ED4FFE7FEF753FF0599A4
:10386000401A41F28931884204D3FFE703208DF8E2
:103870001F0098E1E8E71BE0FEF744FF0590FFE733
:1038800041F29000C4F202000068800700280ED5C3
:10389000FFE7FEF737FF0599401A41F28931884268
:1038A00004D3FFE703208DF81F007CE1E8E7FFE782
:1038B0009DF80B00012809D1FFE741F25801C4F23D
:1038C0000201086820F080500860FFE7FFE70698D3
:1038D00000788006002849D5FFE70698806910B374
:1038E000FFE741F29801C4F20201086840F00100CC
:1038F0000860FEF707FF0590FFE741F29800C4F269
:1039000002000068800700280CD4FFE7FEF7FAFEEB
:103910000599401A032804D3FFE703208DF81F0000
:1039200041E1EAE721E041F29801C4F202010868AE
:1039300020F001000860FEF7E5FE0590FFE741F288
:103940009800C4F202000068800700280CD5FFE749
:10395000FEF7D8FE0599401A032804D3FFE7032099
:103960008DF81F001FE1EAE7FFE7FFE70698C0694F
:10397000002800F01481FFE741F20800C4F20200C1
:10398000006800F00C000C2800F0B080FFE70698FB
:10399000C06902287CD1FFE741F20001C4F20201B4
:1039A000086820F080700860FEF7ACFE0590FFE725
:1039B00041F20000C4F202000068800100280CD52A
:1039C000FFE7FEF79FFE0599401A032804D3FFE79F
:1039D00003208DF81F00E6E0EAE741F20C01C4F293
:1039E0000201086848F20C02C0F29F121040DDF894
:1039F00018C0DCF82020DCF82450DCF828E0DCF8E3
:103A00002C306FF00F0404EB0514224342EA0E221F
:103A1000DCF8304040F2000ECFF6E07E0EEA045EA5
:103A2000AEF5001E42EA0E02DCF834E04FF07E4CA8
:103A30000CEA0E6C0CF17E4C42EA0C0242EAC362C4
:103A40001043086041F20002C4F20202106840F024
:103A500080701060086840F080700860FEF752FEC9
:103A60000590FFE741F20000C4F202000068800107
:103A700000280CD4FFE7FEF745FE0599401A0328FD
:103A800004D3FFE703208DF81F008CE0EAE72CE069
:103A900041F20001C4F20201086820F08070086061
:103AA000FEF730FE0590FFE741F20000C4F202008D
:103AB0000068800100280CD5FFE7FEF723FE05997A
:103AC000401A032804D3FFE703208DF81F006AE0A3
:103AD000EAE741F20C01C4F2020108684FF6FC72F9
:103AE000CFF6EE6210400860FFE757E00698C06925
:103AF000012804D1FFE701208DF81F0053E041F2B7
:103B00000C00C4F2020000680390039800F0030068
:103B10000699096A88423BD1FFE7039800F0F0005C
:103B200006994A6A6FF00F0101EB021188422FD10A
:103B3000FFE7039800F4FE400699896AB0EB012F75
:103B400026D1FFE7039800F078400699C96AB0EBE8
:103B5000C16F1DD1FFE7039800F4C00006990A6BFE
:103B60000021CFF6E07101EA0251A1F5001188426F
:103B70000ED1FFE7039800F0C06006994A6B4FF042
:103B80007E4101EA026101F17E41884204D0FFE7F3
:103B900001208DF81F0006E0FFE7FFE7FFE70020A8
:103BA0008DF81F00FFE79DF81F0008B0B0BD0000B2
:103BB0003021C4F20101086820F00100086070475C
:103BC00081B000903021C4F20101086820F00200A9
:103BD000009A1043086001B07047000080B582B0C1
:103BE0000190019801F078FE02B080BD83B0019091
:103BF000FFE7019890F88400012804D1FFE7022034
:103C00008DF80B002CE00199012081F88400FFE77A
:103C1000FFE701992420C1F8880001980068006836
:103C2000009001980168086820F001000860009881
:103C300020F00050009001990020486600980199FA
:103C40000968086001992020C1F88800FFE7019900
:103C5000002081F88400FFE700208DF80B00FFE7CB
:103C60009DF80B0003B0704780B584B002900191BD
:103C7000FFE7029890F88400012804D1FFE70220B2
:103C80008DF80F0032E00299012081F88400FFE7EF
:103C9000FFE702992420C1F88800029800680068B4
:103CA000009002980168086820F0010008600298FE
:103CB0000068806820F060600199084302990968F3
:103CC0008860029801F082FE0098029909680860F5
:103CD00002992020C1F88800FFE70299002081F8AE
:103CE0008400FFE700208DF80F00FFE79DF80F002C
:103CF00004B080BD80B584B002900191FFE70298C6
:103D000090F88400012804D1FFE702208DF80F000D
:103D100032E00299012081F88400FFE7FFE7029971
:103D20002420C1F88800029800680068009002987A
:103D30000168086820F00100086002980068806847
:103D400020F0604001990843029909688860029850
:103D500001F03CFE00980299096808600299202051
:103D6000C1F88800FFE70299002081F88400FFE78E
:103D700000208DF80F00FFE79DF80F0004B080BD14
:103D800080B582B00090009820B9FFE701208DF83F
:103D9000070046E00098806908B1FFE700E0FFE710
:103DA0000098D0F8880040B9FFE70099002081F81A
:103DB0008400009800F03AF8FFE700992420C1F849
:103DC000880000980168086820F0010008600098E9
:103DD000806A20B1FFE7009801F03CFEFFE7009801
:103DE00001F0D0FF012804D1FFE701208DF8070082
:103DF00017E000980168486820F4904048600098F7
:103E00000168886820F02A008860009801680868C6
:103E100040F001000860009801F0C0FE8DF8070036
:103E2000FFE79DF8070002B080BD000080B59EB09E
:103E30001D9000201C901B901A901990189003A8B8
:103E40005421FCF7C9FA1D98006843F60001C4F23A
:103E5000010188423BD1FFE701200390002004903C
:103E600003A8FEF7F7FD18B1FFE7FCF75FFDFFE7DA
:103E7000FFE741F26000C4F20200016841F48041B2
:103E80000160006800F4804002900298FFE7FFE7BD
:103E900041F24C00C4F20200016841F004010160EB
:103EA000006800F0040001900198FFE730201890AE
:103EB0000220199000201A901B9007201C9040F6B9
:103EC0000000C4F6000018A9FEF768FAFFE71EB06C
:103ED00080BD000080B58AB008900791ADF81A2027
:103EE00005930898D0F88800202840F08780FFE7E5
:103EF000079820B1FFE7BDF81A0020B9FFE70120BD
:103F00008DF827007EE008990020C1F890000899FC
:103F10002120C1F88800FEF7F5FB0290BDF81A00D9
:103F20000899A1F85400BDF81A000899A1F85600A4
:103F300008988068B0F5805F09D1FFE708980069AC
:103F400028B9FFE7002004900798039004E0079841
:103F5000049000200390FFE7FFE70898B0F85600B0
:103F600088B3FFE70898029B05996A461160802193
:103F7000002202F0F9F940B1FFE708992020C1F8CA
:103F8000880003208DF827003CE0049858B9FFE72B
:103F9000039800886FF35F20089909688862039886
:103FA0000230039008E00498007808990968886254
:103FB000049801300490FFE70899B1F856000138E1
:103FC000A1F85600C9E70898029B05996A46116056
:103FD0004021002202F0C8F940B1FFE708992020F3
:103FE000C1F8880003208DF827000BE008992020F5
:103FF000C1F8880000208DF8270003E002208DF82A
:104000002700FFE79DF827000AB080BDFFE7FEE725
:1040100080B582B0ADF80600ADF80410ADF802200E
:10402000ADF800302A2000F0D7F9BDF806000130C5
:1040300080B200F0B9F9BDF80200013080B200F0A2
:10404000B3F92B2000F0C8F9BDF804001A3080B293
:1040500000F0AAF9BDF800001A3080B200F0A4F90F
:104060002C2000F0B9F902B080BD000080B582B00C
:10407000ADF80600ADF80410ADF80220BDF806203A
:10408000BDF8043010461946FFF7C2FFBDF8020024
:1040900000F08AF902B080BD80B584B084460698ED
:1040A000ADF80EC0ADF80C10ADF80A20ADF8083030
:1040B000ADF80600BDF80E00BDF80C10BDF80A20E2
:1040C000013ABDF80830013B92B29BB2FFF7A0FF66
:1040D000BDF80C00ADF80400FFE7BDF80400BDF822
:1040E000081088421EDAFFE7BDF80E00ADF80200A6
:1040F000FFE7BDF80200BDF80A1088420BDAFFE7BF
:10410000BDF8060000F050F9FFE7BDF802000130ED
:10411000ADF80200EDE7FFE7BDF804000130ADF8AF
:104120000400DAE704B080BD7047000080B592B0AB
:10413000FFF7FAFF43F60040C4F2000000F068FD0C
:1041400040F60040C4F60000009004210C9100F0FD
:10415000F5FB6420019000F073F900980C9900F0D1
:104160007BFC019800F06CF9019800F069F91120CE
:1041700000F032F97820109000F062F9B12000F0E0
:104180002BF905200E9000F01DF93C20029000F064
:1041900019F9029800F016F9B22000F01DF90E98F6
:1041A00000F010F9029800F00DF9029800F00AF9F9
:1041B000B32000F011F90E9800F004F9029800F015
:1041C00001F9029800F0FEF80E9800F0FBF8029852
:1041D00000F0F8F8029800F0F5F8B42000F0FCF8D0
:1041E000032000F0EFF8C02000F0F6F8AB2000F05C
:1041F000E9F80B2000F0E6F80C9800F0E3F8C12095
:1042000000F0EAF8C520049000F0DCF8C22000F0CD
:10421000E3F80D20059000F0D5F80020119000F093
:10422000D1F8C32000F0D8F88D20039000F0CAF830
:104230006A2000F0C7F8C42000F0CEF8039800F020
:10424000C1F8EE2000F0BEF8049800F0C5F80F2089
:10425000099000F0B7F8E02000F0BEF807200890C1
:1042600000F0B0F80E2000F0ADF80820069000F045
:10427000A9F8089800F0A6F810200D9000F0A2F818
:10428000089800F09FF80220079000F09BF808982B
:1042900000F098F809200B9000F094F8099800F0CD
:1042A00091F825200A9000F08DF836200F9000F04C
:1042B00089F8119800F086F8069800F083F80C98B9
:1042C00000F080F80D9800F07DF8E12000F084F80F
:1042D0000A2000F077F8059800F074F8069800F0CE
:1042E00071F8089800F06EF8099800F06BF80898DB
:1042F00000F068F8079800F065F8089800F062F898
:104300000B9800F05FF8099800F05CF80A9800F04C
:1043100059F8352000F056F8119800F053F80B9832
:1043200000F050F80C9800F04DF80D9800F04AF8A5
:10433000FC2000F051F8802000F044F83A2000F012
:104340004BF80E9800F03EF80F9800F045F81098E2
:1043500000F038F8212000F03FF8292000F03CF868
:104360002A2000F039F8119800F02CF81A2000F0FB
:1043700029F8119800F026F8692000F023F82B2086
:1043800000F02AF8119800F01DF8012000F01AF84A
:10439000119800F017F8A02000F014F82C2000F07D
:1043A0001BF812B080BD000080B582B0ADF80600E9
:1043B0009DF8070000F028F89DF8060000F024F8AA
:1043C00002B080BD80B582B08DF807009DF807006F
:1043D00000F01AF802B080BD80B584B08DF80F00EF
:1043E00040F60000C4F6000001904FF40061029115
:1043F00000F0A4FA9DF80F0000F006F80198029969
:1044000000F02AFB04B080BD80B582B08DF80700B3
:10441000FFE743F60040C4F2000000F069FC08B971
:10442000FFE7F6E79DF8071043F60040C4F20000EE
:1044300000F094FC052002F063FD02B080BD000096
:1044400080B582B001900198FDF786FF02B080BD73
:1044500081B00090009880684FF6C071C7F6FF7178
:10446000084002300099886001B0704781B0009028
:10447000009988684FF6C072C5F6FF7210408860D8
:1044800001B0704781B00090009880684FF6C0710D
:10449000C7F6FF71084001300099886001B070478D
:1044A00081B000900098806840F080504FF6C07155
:1044B000C7F6FF7108400099886001B0704700009E
:1044C00081B000900098806800F0E07001B0704703
:1044D00081B000900098806800F01F0001B0704724
:1044E00083B0029001910298019900EB8100603045
:1044F00000900098006800F0F84003B0704700009A
:1045000081B0009000988068C0F3C00001B070478F
:1045100081B0009000988068C00F01B07047000023
:1045200081B0009000988068C0F3407001B070477F
:1045300081B0009000988068C0F3400001B07047DF
:1045400081B000900098806800F0010001B07047D1
:1045500081B000900098806800F0010001B07047C1
:1045600081B0009000988068C0F3007001B070477F
:1045700081B0009000988068C0F3800001B070475F
:1045800081B0009000988068C0F3800001B070474F
:1045900081B000900098C06800F44060B0FA80F0EC
:1045A000400901B07047000084B00390029101926D
:1045B0000398029901F4407100EB911030300090A3
:1045C00000980068029901F01F021F219140884362
:1045D0000199C1F38461914008430099086004B0D7
:1045E0007047000081B00090009880684FF6C0715D
:1045F000C7F6FF71084004300099886001B0704729
:1046000084B00390029101920398029901F0007125
:1046100000EBD15014300090009800680299C1F36B
:104620000452072191408843019991400843009921
:10463000086004B07047000083B0029001910092BE
:104640000298D0F8B00001996FF3DF418843009AD7
:1046500002F018034FF6FF72C0F20702DA40114071
:1046600008440299C1F8B00003B0704782B00190CD
:1046700000910198806820F47C100099084301990A
:10468000886002B07047000082B0019000910198EC
:10469000806820F0E070009908430199886002B0BA
:1046A0007047000085B00490039102920193049832
:1046B000039900EB810060300090009800684FF291
:1046C0000001C0F2FF310140029800F0F840019A69
:1046D0001043084340F000400099086005B070475F
:1046E00084B00390029101920398029900EB81003B
:1046F000603000900098006820F000700199084335
:104700000099086004B0704784B003900291019250
:104710000398029900EB81006030009000980068D7
:1047200020F08070019908430099086004B0704738
:1047300084B00390029101920398029900EB8100EA
:10474000603000900098006820F000400199084314
:104750000099086004B0704782B001900091019800
:10476000406920F00040009908430199486102B077
:104770007047000082B001900091019880684FF668
:10478000C071C3F6FF710140009800F080400844FA
:1047900000F100400199886002B0704782B001903A
:1047A000019A41F24C00C4F2020001681143016019
:1047B0000068019908400090009802B0704700001E
:1047C00082B00190019A41F24C00C4F202000168EB
:1047D000114301600068019908400090009802B000
:1047E0007047000082B00190019A41F25800C4F273
:1047F00002000168114301600068019908400090BF
:10480000009802B07047000082B00190019A41F216
:104810005800C4F202000168114301600068019968
:1048200008400090009802B07047000082B00190EC
:10483000019A41F26000C4F2020001681143016074
:104840000068019908400090009802B0704700008D
:1048500080B586B0039002910298006890FAA0F0AB
:104860000490049820B9FFE720208DF8170005E098
:104870000498B0FA80F08DF81700FFE79DF8170054
:104880000190FFE7029800680199C84000284AD0CB
:10489000FFE702980068019A0121914008400090CA
:1048A0000098E0B3FFE702984068012805D0FFE7D1
:1048B0000298406802280DD1FFE703980099029AF8
:1048C000926800F05DF90398029A1168D26800F0CE
:1048D00009F9FFE703980099029A126900F012F9AA
:1048E00002984068022813D1FFE70098FF2807D8F4
:1048F000FFE703980099029A526900F027F806E052
:1049000003980099029A526900F05EF8FFE7FFE70A
:1049100003980099029A526800F0A6F8FFE7019800
:1049200001300190AEE7002006B080BD82B001905A
:10493000009100980199886202B0704782B001909E
:10494000009100980199886202B070478AB0059082
:10495000049103920598006A0290049890FAA0F0DE
:104960000890089820B9FFE720208DF8270005E07F
:104970000898B0FA80F08DF82700FFE702989DF8BC
:1049800027108A000F2191408843009003980190DE
:10499000049890FAA0F00690069820B9FFE720202E
:1049A0008DF81F0005E00698B0FA80F08DF81F0022
:1049B000FFE7009801999DF81F209200914008435D
:1049C000059908620AB070478AB005900491039275
:1049D0000598406A02900498000A90FAA0F00890A6
:1049E000089820B9FFE720208DF8270005E00898F7
:1049F000B0FA80F08DF82700FFE702989DF82710A5
:104A00008A000F21914088430090039801900498F8
:104A1000000A90FAA0F00690069820B9FFE720203F
:104A20008DF81F0005E00698B0FA80F08DF81F00A1
:104A3000FFE7009801999DF81F20920091400843DC
:104A4000059948620AB0704782B0019000910098C1
:104A50000199886102B0704782B00190009100987E
:104A60000199886102B070478AB005900491039261
:104A7000059800680290049890FAA0F008900898B1
:104A800020B9FFE720208DF8270005E00898B0FA4C
:104A900080F08DF82700FFE702989DF827104A0064
:104AA000032191408843009003980190049890FA64
:104AB000A0F00690069820B9FFE720208DF81F008F
:104AC00005E00698B0FA80F08DF81F00FFE7009827
:104AD00001999DF81F2052009140084305990860F4
:104AE0000AB0704783B0029001910092029840682A
:104AF00001998843009A514308430299486003B0E2
:104B0000704700008AB00590049103920598C06830
:104B10000290049890FAA0F00890089820B9FFE756
:104B200020208DF8270005E00898B0FA80F08DF875
:104B30002700FFE702989DF827104A0003219140C3
:104B40008843009003980190049890FAA0F0069092
:104B5000069820B9FFE720208DF81F0005E0069891
:104B6000B0FA80F08DF81F00FFE7009801999DF8DA
:104B70001F205200914008430599C8600AB0704751
:104B80008AB0059004910392059880680290049879
:104B900090FAA0F00890089820B9FFE720208DF83F
:104BA000270005E00898B0FA80F08DF82700FFE7AD
:104BB00002989DF827104A000321914088430090F5
:104BC00003980190049890FAA0F00690069820B9F6
:104BD000FFE720208DF81F0005E00698B0FA80F06E
:104BE0008DF81F00FFE7009801999DF81F205200E3
:104BF00091400843059988600AB0704781B00090E1
:104C00000099486820F00800486001B07047000033
:104C100081B000900099086840F04000086001B041
:104C20007047000081B000900099486840F008008B
:104C3000486001B07047000080B584B003900291D5
:104C400001208DF80700039800F05AF8002846D19B
:104C5000FFE7039800684FF6BF718843029A0092FD
:104C60001168D2F804E0D2F80CC0136941EA0E01D1
:104C700041EA0C0119435369194393691943D369F4
:104C80001943126A11430843039908600398406866
:104C900040F604718843029A9168D28A114308430E
:104CA00003994860029881680020B0EBD12F06D1AB
:104CB000FFE703984FF4805100F034F8FFE70298C3
:104CC000006AB0F5005F06D1FFE703980299496AD0
:104CD00000F01EF8FFE700208DF80700FFE70399BA
:104CE000C86920F40060C8619DF8070004B080BD69
:104CF00081B0009000988068C0F3400001B0704718
:104D000081B0009000980068C0F3801001B0704737
:104D100082B001900091BDF800000199086102B0D5
:104D20007047000082B0019000910198406820F423
:104D30008050009908430199486002B07047000014
:104D400082B0019000910198406820F01000009915
:104D500008430199486002B07047000083B0029098
:104D60008DF8071002980C3000909DF8070000990C
:104D7000087003B07047000081B000900099086887
:104D800020F08000086001B07047000081B0009002
:104D90000099886820F08000886001B070470000AA
:104DA00081B000900099086840F00100086001B0EF
:104DB0007047000081B000900099C86840F0010081
:104DC000C86001B07047000081B000900099486948
:104DD00040F00100486101B07047000080B584B028
:104DE00003900291039800680190039842F60041F5
:104DF000C4F2010188422DD0FFE70398B0F1804F43
:104E000028D0FFE7039840F20041C4F20001884235
:104E100020D0FFE7039840F60001C4F20001884269
:104E200018D0FFE7039840F60041C4F20001884221
:104E300010D0FFE7039843F20041C4F20101884219
:104E400008D0FFE7039845F20001C4F2010188424F
:104E500008D1FFE7019820F07000029949680843E3
:104E60000190FFE7039842F60041C4F20101884235
:104E700045D0FFE70398B0F1804F40D0FFE703989B
:104E800040F20041C4F20001884238D0FFE70398A5
:104E900040F60001C4F20001884230D0FFE70398D9
:104EA00040F60041C4F20001884228D0FFE7039891
:104EB00043F20041C4F20101884220D0FFE7039889
:104EC00044F20001C4F20101884218D0FFE70398C0
:104ED00044F20041C4F20101884210D0FFE7039878
:104EE00044F60001C4F20101884208D0FFE70398AC
:104EF00045F20001C4F20101884208D1FFE70198A0
:104F000020F440700299C96808430190FFE70198B6
:104F10000399086003980299896800F041F80398A2
:104F20000299098800F054F8039842F60041C4F24F
:104F30000101884228D0FFE7039843F20041C4F200
:104F40000101884220D0FFE7039844F20001C4F237
:104F50000101884218D0FFE7039844F20041C4F2EF
:104F60000101884210D0FFE7039844F60001C4F223
:104F70000101884208D0FFE7039845F20001C4F21E
:104F80000101884206D1FFE703980299096900F000
:104F900027F8FFE70398FFF717FF002004B080BD54
:104FA00082B00190009100980199C86202B07047E8
:104FB00082B001900091019880684BF6F871CFF6AD
:104FC000FE710840009908430199886002B070475B
:104FD00082B00190009100980199886202B07047F8
:104FE00082B00190009100980199086302B0704767
:104FF00082B001900091019840684FF68F71CFF612
:10500000FF510840009908430199486002B0704779
:1050100080B58EB0002101910D910C910B910A91F8
:10502000099108910791069105910491039141F22C
:105030001840C2F2000002904FF0A04202604FF40C
:10504000403242608160C1600161012242610822F8
:105050008261017741770522026280F82410C162E3
:10506000016380F83810C16380F84010FCF7D8FA6B
:1050700018B1FFE7FBF75AFCFFE700200B9041F265
:105080001840C2F200000BA9FBF7C8FC18B1FFE7FB
:10509000FBF74CFCFFE744F20000C3F6C02003908E
:1050A0000620049005907F200690042007900020A1
:1050B000089041F21840C2F2000003A9FBF728FE55
:1050C00018B1FFE7FBF732FCFFE740F60000C2F63D
:1050D000306003900C20049041F21840C2F20000AE
:1050E00003A9FBF715FE18B1FFE7FBF71FFCFFE76D
:1050F0002020C1F2F04003901220049041F21840A9
:10510000C2F2000003A9FBF703FE18B1FFE7FBF7AB
:105110000DFCFFE70820C0F6904003901820049093
:1051200041F21840C2F2000003A9FBF7F1FD18B1EB
:10513000FFE7FBF7FBFBFFE748F20000C3F6F06078
:1051400003904FF48070049041F21840C2F20000C6
:1051500003A9FBF7DDFD18B1FFE7FBF7E7FBFFE76E
:105160000EB080BD80B584B0FFE741F24800C4F2C4
:105170000200016841F004010160006800F00400D1
:1051800003900398FFE7FFE741F24800C4F20200F2
:10519000016841F001010160006800F00100029027
:1051A0000298FFE70B20019000221146FDF74EFB0D
:1051B0000198FDF741FB04B080BD000080B596B0BA
:1051C00000200D9015901490139012901190109053
:1051D00020200190FFF7E2FA04200990FFF7DEFAA1
:1051E00001200C90FFF7DAFA02200590FFF7D6FABB
:1051F00008200090FFF7D2FA099940F20040C4F667
:1052000000000F90FFF792FB0F9840210B91FFF7E2
:105210008DFB40F60000C4F6000008904FF40061DA
:105220000791FFF711FC099940F60040C4F6000011
:105230000A90FFF709FC08980C990D9A10911192A9
:10524000149110A90E91FFF703FBDDF814C00C9A1E
:105250000D9B0E990898CDF840C011931492FFF75A
:10526000F7FADDF824C00C9A0D9B0E990898CDF83A
:1052700040C011931492FFF7EBFADDF800C00C9ACE
:105280000D9B0E990898CDF840C011931492FFF72A
:10529000DFFA0D9A0E990C981090119214904FF01D
:1052A00090400690FFF7D4FADDF814C00C9A0D9BDD
:1052B0000E990698CDF840C011931492FFF7C8FAE2
:1052C000DDF800C00C9A0D9B0E990698CDF840C0F1
:1052D00011931492FFF7BCFA0C9A0D9B0E99069845
:1052E0004FF0100CCDF840C011931492FFF7B0FAB4
:1052F000DDF804C00C9A0D9B0E990698CDF840C0BD
:1053000011931492FFF7A4FADDF82CC00C9A0D9BB0
:105310000E990698CDF840C011931492FFF798FAB1
:105320000C9A0D9B0E9906984FF0800CCDF808C092
:10533000CDF840C011931492FFF78AFADDF824C02B
:105340000C9B0D9A0E990F98CDF840C011931292B4
:1053500013921492FFF77CFA0C9A0D9B0E990F98FA
:105360004FF4005CCDF840C011931492FFF770FA2F
:105370000C9A0D9B0E990F984FF4004CCDF840C03D
:1053800011931492FFF764FADDF82CC00C9A0D9B70
:105390000E990898CDF840C011931492FFF758FA6F
:1053A000DDF808C00C9A0D9B0E990898CDF840C006
:1053B00011931492FFF74CFA0C9A0D9B0E990898D2
:1053C0004FF4807CCDF80CC0CDF840C011931492FE
:1053D000FFF73EFA0C9A0D9B0E9908984FF4007C4B
:1053E000CDF810C0CDF840C011931492FFF730FAF9
:1053F000DDF80CC00C9A0D9B0E990698CDF840C0B4
:1054000011931492FFF724FADDF810C00C9A0D9B4B
:105410000E990698CDF840C011931492FFF718FA30
:10542000059B0D9A0E9906984FF4806CCDF840C0FC
:10543000119312921392149206221592FFF708FA12
:10544000DDF81CC00C9B0D9A0E990898CDF840C051
:105450001193129313921492FFF7FAF9DDF824C016
:105460000C9B0D9A0E990A98CDF840C01193129397
:1054700013921492FFF7ECF9DDF82CC00C9B0D9AF7
:105480000E990F98CDF840C0119312921392149276
:10549000FFF7DEF916B080BD80B598B00EA8059074
:1054A0002821FAF799FF002006900D900C900B90A0
:1054B0000A90099008904FF48050FFF7B7F9022046
:1054C0000090FFF77DF9009906980822089209914B
:1054D0000A900B900C90052001900D9040F2004036
:1054E000C4F60000039008A90291FFF7B1F9DDF8B6
:1054F00000C0019A0299069B03984FF0100ECDF858
:1055000010E0CDF820E0CDF824C00A930B930C9363
:105510000D92FFF79DF9DDF800C0019A0299069BF4
:1055200003984FF0200ECDF820E0CDF824C00A9368
:105530000B930C930D92FFF78BF9049A059906983B
:105540000E904FF482730F934FF4E0631093119019
:1055500012904FF400731393149215901690072035
:10556000179043F20000C4F201000790FFF764FBBC
:1055700006990798FFF7E4FB0798FFF753FB18B06D
:1055800080BD000080B598B00EA805902821FAF7DC
:1055900023FF002006900D900C900B900A9009902C
:1055A00008904FF40040FFF71DF90420FFF708F9B9
:1055B00006984FF4806108910221049109910A90A4
:1055C0000B900C90062001900D9040F60000C4F660
:1055D0000000039008A90291FFF73AF9019A029995
:1055E000DDF810C0069B03984FF4805ECDF820E0F4
:1055F000CDF824C00A930B930C930D92FFF728F972
:10560000049A059906984FF440430E934FF4827321
:105610000F934FF4E06310931192012212924FF412
:105620000072139210221492159016900720179072
:1056300043F60040C4F200000790FFF7FDFA069918
:105640000798FFF77DFB0798FFF7D8FA18B080BDE1
:1056500080B588B0002001900790069005900490D6
:1056600003900120FFF7D0F801F022FA019A1146C9
:1056700000F074F801461C20009001F029FA00980F
:1056800001F0E6F90198A921ADF80C10049041F25F
:105690008731059106904FF08040029003A9FFF7F3
:1056A0009DFB0298FFF768FB01990298FFF780FCC9
:1056B00001990298FFF79CFC0298FFF767FB08B07E
:1056C00080BD000080B582B041F2E440C2F200002B
:1056D000009043F60001C4F2010101604FF4E13192
:1056E0004160002101918160C16001610C22426131
:1056F0008161C161016241628162FEF741FB18B1C3
:10570000FFE7FBF713F9FFE741F2E440C2F20000C4
:105710000021FEF7EFFA18B1FFE7FBF707F9FFE703
:1057200041F2E440C2F200000021FEF79DFA18B1F8
:10573000FFE7FBF7FBF8FFE741F2E440C2F20000AD
:10574000FEF754FA18B1FFE7FBF7F0F8FFE702B0F5
:1057500080BD0000FFE7FEE7FFE7FEE788B00790A7
:1057600006910592079800F0070004900498C0F194
:105770000700052803D3FFE70420019004E0049804
:10578000C0F107000190FFE70198039004980430EE
:10579000062803D8FFE70020009003E004980338B0
:1057A0000090FFE70098029006980399012202FA00
:1057B00001F101390840029B984005999A40013A4D
:1057C0001140084308B0704788B0079006910592D1
:1057D000079800F0070004900498C0F1070005281E
:1057E00003D3FFE70420019004E00498C0F1070010
:1057F0000190FFE70198039004980430062803D82D
:10580000FFE70020009003E0049803380090FFE7D2
:105810000098029006980399012202FA01F10139D9
:105820000840029B984005999A40013A114008436C
:1058300008B070477047000086B041F20C00C4F217
:105840000200016801F0030104910068C1B2012067
:1058500000EB1110029004980090022815D0FFE789
:105860000098032812D1FFE7029944F60000C0F225
:10587000E810B0FBF1F041F20C01C4F2020109683A
:10588000C1F306214843059011E0FFE7029942F277
:105890000040C0F2F400B0FBF1F041F20C01C4F2A0
:1058A00002010968C1F3062148430590FFE741F270
:1058B0000C00C4F20200006800F0C061022000EB9E
:1058C0001160039005980399B0FBF1F001900198E5
:1058D00006B070477047000080B582B00090009815
:1058E0000138B0F1807F03D3FFE70120019019E078
:1058F000009801384EF21401CEF2000108604FF01A
:10590000FF300F2101F006F94EF21801CEF200012E
:10591000002008604EF21002CEF200020721116052
:105920000190FFE7019802B080BD000080B5FCF750
:10593000EFFE80BD80B594B006A800903821FAF73C
:105940004BFD0020059004900390029001904FF4CD
:105950000070FCF79BFF0098022106914FF48072C3
:10596000099240220A920D910E9101220F92122269
:1059700010921191062212921391FDF73DFD18B17C
:10598000FFE7FAF7D3FFFFE70F2001900320029013
:10599000002003900490059001A80421FDF7ECFA83
:1059A00018B1FFE7FAF7C2FFFFE714B080BD0000AF
:1059B0004EF68851CEF20001086840F4700008608D
:1059C0007047000080B501F0F7FA80BD82B0019009
:1059D0000198406E40B9FFE701990120A1F86A00E3
:1059E0000199A1F8680032E008208DF803008DF8D5
:1059F0000200019800688068C0F342608DF80100E1
:105A0000019800688068400F8DF800009DF8020042
:105A10009DF8002047F24603C0F60003995C484316
:105A200047F23E01C0F600018A5CB0FBF2F0019A39
:105A3000A2F86A009DF803009DF801209B5C584382
:105A4000895CB0FBF1F00199A1F86800FFE702B0B2
:105A50007047000081B00090009890F8280000077F
:105A600000280BD5FFE700980068406820F400404C
:105A7000009A1168926B10434860FFE7009890F815
:105A80002800C00758B1FFE700980068406820F47C
:105A90000030009A1168D26A10434860FFE700980E
:105AA00090F82800800700280BD5FFE700980068D1
:105AB000406820F48030009A1168126B10434860EF
:105AC000FFE7009890F82800400700280BD5FFE773
:105AD00000980068406820F48020009A1168526B9A
